:100000000C9409010C9431010C9431010C943101D0
:100010000C9431010C9431010C9431010C94310198
:100020000C9431010C9431010C94A30D0C940C0E22
:100030000C9431010C9431010C9431010C94310178
:100040000C9431010C9431010C9431010C94310168
:100050000C9431010C9431010C9431010C9440103A
:100060000C9431010C9431010C9431010C94310148
:100070000C9431010C9431010C9431010C94310138
:100080000C9431010C9431010C9431010C94310128
:100090000C9431010C9431010C9431010C94310118
:1000A0000C9431010C9431010C94310100000000DA
:1000B000240027002A002D0030000000000023004B
:1000C000260029002C002F00080B0002020200006D
:1000D00009040000010202000005240010010524AB
:1000E000010101042402060524060001070581031D
:1000F00010004009040100020A0000000705020286
:1001000040000007058302400000040309041201B7
:100110000002EF020140D804E3E6000101020301FE
:100120005156455820546563680051564558204C37
:10013000796E65706164000000000200090F000024
:10014000030401000C00000000000000000000009B
:100150000000000000040802011040804010204010
:1001600080408008020401804020100201108010AD
:1001700020404000000000250028002B002E003108
:10018000000404040404030405020202020403023E
:10019000020202060606060606040402020204051E
:1001A000010906A1018502050719E029E7150025C7
:1001B0000175019508810295017508810395067501
:1001C00008150025730507190029E78100C0050CF3
:1001D0000901A1018505150026FF0319002AFF0367
:1001E000950475108100C00600FF0901A101850377
:1001F0000901150026FF0075089504B10185040961
:100200000195697508150026FF00B100C000BD10FA
:100210001A1511241FBECFEFDAE0DEBFCDBF22E0FA
:10022000AEE8B1E001C01D92AB3DB207E1F711E0CD
:10023000A0E0B1E0ECE8F4E302C005900D92AE3826
:10024000B107D9F711E0C8E0D1E004C02197FE0161
:100250000E942118C730D107C9F70E9482110C945F
:10026000391A0C9400002091240230912502821743
:10027000930798F4FC01EE0FFF1F8E0F9F1FE09174
:100280002E02F0912F02E80FF91F50834183628301
:100290008091260280688093260208959091D30170
:1002A000911103C08FEF9FEF08954FB7F89492E03C
:1002B0009093E9009091F200292F30E01216130676
:1002C00014F421E030E0232B29F084E68093D2015E
:1002D0008091F100992339F02091F200211103C09F
:1002E0002BE62093E8004FBF9923E1F290E00895B8
:1002F000CF93DF93EC019B01B4E6ABEF2115310501
:10030000F1F0A9012134310514F040E450E080916E
:10031000E80082FFFCCF942FFB01E21BF30BEC0FF4
:10032000FD1F915028F08091F10080833196F9CF24
:10033000B093D201A093E800241B350BDFCFCB0193
:10034000DF91CF9108954091A5015091A601209190
:10035000A3013091A40142175307B4F49091E8002F
:100360009570E1F39091E80092FD19C08093F1003F
:100370008091A5019091A60101968F739927892BF1
:1003800019F48EEF8093E8008091A5019091A60169
:1003900001969093A6018093A50181E0089580E0E5
:1003A0000895DF92EF92FF920F931F93CF93DF9305
:1003B000D82E8A01EB017B01E40EF51ECE15DF0578
:1003C00059F0D7FE12C0FE0184910E94A30121962C
:1003D0008111F4CF0FEF1FEFC801DF91CF911F9173
:1003E0000F91FF90EF90DF9008958881EECF2FB7A7
:1003F000F89487708093E9009091E800892F8072CB
:1004000095FF04C09091F20080E4891B2FBF0895EE
:1004100080919B0181110DC082E08093970184E05F
:100420008093980110929A011092990181E0809333
:100430009B0187E991E00895CF93DF9381E080935A
:100440003702809338022DE332E030933A02209352
:10045000390210923C0210923B0225E231E03093C7
:1004600034022093330210923F0210923E02109207
:10047000410210924002809342028093430281EC39
:1004800080933D020E940802FC0181819091370215
:10049000482F490F5527551F483051059CF5A2811B
:1004A000B381109709F523E332E03383228320815F
:1004B000209335028093360280913802820F808328
:1004C00020913902A22FB0913A028A2F821B8917FC
:1004D000C8F481813D91C82FD0E0C35FDE4F3883DF
:1004E0008F5F8183F2CFD90118962D913C91199796
:1004F00021153105C1F723E332E019963C932E9381
:100500001897D5CFDF91CF9108950F931F93CF9375
:10051000DF931F92CDB7DEB782E0898342E450E0DB
:1005200068EC70E080E80E94D1010E940802DC01C2
:1005300012960D911C910115110589F0D801ED91CC
:10054000FC910280F381E02DBE016F5F7F4FC801F7
:10055000099597FD04C0F80100851185ECCF8981CC
:100560000F90DF91CF911F910F910895CF93DF935B
:100570001F92CDB7DEB76983DC01ED91FC9102805B
:10058000F381E02D41E050E0BE016F5F7F4F0995A0
:100590000F90DF91CF91089583E08093E9008091DF
:1005A000F200882319F08AE38093E800089583E03D
:1005B0000E94F70190E00895FC018485958597FDE0
:1005C00005C02FEF3FEF3587248708950C944E0127
:1005D000CF93DF93EC018C859D8597FF04C00E942B
:1005E0004E019D878C878C859D85DF91CF910895E5
:1005F000FC018485958597FD0BC09FB7F89482E038
:100600008093E9008091F2009FBF90E001960895E9
:100610009FB7F89482E08093E9008091F2009FBF39
:1006200090E0089581508F3008F047C0E82FF0E047
:10063000E45EFC4F0C94211839033D032B03310376
:1006400035035D035D035D03400346034A034E0328
:1006500054035D035803809180008F77809380005E
:100660000895809180008F7DF9CF80918000877FF1
:10067000F5CF84B58F7784BD089584B58F7DFBCF8A
:10068000809190008F7780939000089580919000E2
:100690008F7DF9CF80919000877FF5CF8091C0004A
:1006A0008F778093C00008958091C0008F7DF9CF2F
:1006B0008091C200877F8093C2000895CF93DF931B
:1006C000282F30E0F901E95CFE4F8491F901EB5AE3
:1006D000FE4FD491F901EF57FE4FC491CC23A1F006
:1006E00081110E941203EC2FF0E0EE0FFF1FE65481
:1006F000FF4FA591B491EC91ED2381E090E009F4D6
:1007000080E0DF91CF91089580E090E0FACF1F93D1
:10071000CF93DF93282F30E0F901E95CFE4F8491FD
:10072000F901EB5AFE4FD491F901EF57FE4FC491F6
:10073000CC23A9F0162F81110E941203EC2FF0E0B8
:10074000EE0FFF1FED58FE4FA591B4918FB7F894AF
:10075000EC91111108C0D095DE23DC938FBFDF919F
:10076000CF911F910895DE2BF8CFCF93DF9390E0C8
:10077000FC01EB5AFE4F24918F579E4FFC01849150
:100780008823D1F090E0880F991FFC01E455FF4FBA
:10079000A591B491FC01ED58FE4FC591D491611122
:1007A0000EC09FB7F8948C91E22FE0958E238C9326
:1007B0002881E223E8839FBFDF91CF9108958FB70F
:1007C000F894EC91E22BEC938FBFF6CF3FB7F894FF
:1007D0008091930190919401A0919501B09196011F
:1007E00026B5A89B05C02F3F19F00196A11DB11D8C
:1007F0003FBFBA2FA92F982F8827BC01CD01620FC8
:10080000711D811D911D42E0660F771F881F991F82
:100810004A95D1F708950F931F93CF93DF9300D09C
:1008200000D000D01F92CDB7DEB78091260287FF9F
:1008300066C00E94E60300912A0210912B022091CB
:100840002C0230912D02601B710B820B930B6C32CA
:1008500071408105910568F3F89480913202E0912E
:100860003002F091310240912702509128022091EC
:100870002E0230912F025A83498389010F5F1F4F47
:10088000D9019C919F839081982B9E839081809524
:1008900089238D838D818C8388E08B835E816D813C
:1008A0004F813B812C8189819A81D801508347FDFA
:1008B000252F3A952083262F39F0441F00C00000D1
:1008C0006083000000C0F2CF38E04D9160830000EB
:1008D000019761F74F833B832C839A8389837894B4
:1008E0000E94E60360932A0270932B0280932C02ED
:1008F00090932D02809126028F778093260227966F
:100900000FB6F894DEBF0FBECDBFDF91CF911F9120
:100910000F9108958F929F92AF92BF92CF92DF92E4
:10092000EF92FF926B017C010E94E6034B015C0198
:10093000C114D104E104F104B9F00E94E60368197E
:1009400079098A099B09683E73408105910580F306
:1009500021E0C21AD108E108F10888EE880E83E090
:10096000981EA11CB11CE4CFFF90EF90DF90CF90B8
:10097000BF90AF909F908F900895CF92DF92EF92AB
:10098000CF93DF936B01E82ED0E0C0E0809124028A
:1009900090912502C817D90778F46E2DA601CE01D3
:1009A0000E9433010E940B0462E370E080E090E05B
:1009B0000E948A042196EACFDF91CF91EF90DF90D9
:1009C000CF900895CF92DF92EF92CF93DF936B0198
:1009D000E82EC0912402D0912502D7FD0FC06E2DC4
:1009E000A601CE010E9433010E940B0462E370E075
:1009F00080E090E00E948A042197EFCFDF91CF91B1
:100A0000EF90DF90CF9008957F928F929F92AF9258
:100A1000BF92CF92DF92EF92FF920F931F93CF93EB
:100A2000DF93C82E8B017A018091D301811110C010
:100A30008FEF9FEFDF91CF911F910F91FF90EF907C
:100A4000DF90CF90BF90AF909F908F907F90089550
:100A50008091A90180FF05C08091E00082608093B1
:100A6000E000CE2DDF2DD12C8AEFB82E8C2D877093
:100A7000982E8C2D8072882E8C2D8074782E9AE37F
:100A8000A92E209719F4DD2009F452C08C2D0E9464
:100A9000F70181110AC0BA94BB2051F261E070E005
:100AA00080E090E00E948A04ECCF8C171D0611F0C4
:100AB0000CF08C2F9FB7F8949092E9002091E800F9
:100AC00025FD02C09FBFDDCF282F30E0C21BD30B16
:100AD000882029F08150A0F01092F100FBCFF8019E
:100AE000C7FC0AC0815050F041914093F100FACF09
:100AF00044914093F10031968150D0F7020F131FBB
:100B0000DD2021F0A092E800D12CDCCF8091E8001C
:100B100085FD07C0A092E800DD24D394209791F2D0
:100B2000F3CF209779F6772069F2A092E800CACF38
:100B300084E68093A801C7017DCFCF92DF92EF9228
:100B4000FF920F931F93CF93DF931F92CDB7DEB722
:100B50007C0169836A0141E050E0BE016F5F7F4F15
:100B6000FC0183810E9404058C0197FD0CC0F701F4
:100B7000838148E050E0B60180640E940405080FBC
:100B8000191F97FD8C01C8010F90DF91CF911F9124
:100B90000F91FF90EF90DF90CF900895CF93DF9368
:100BA000EC0180914402811105C00E941C0281E089
:100BB00080934402AE0162E083E392E0DF91CF9143
:100BC0000C949D0580914402811105C00E941C0275
:100BD00081E0809344024FEC52E065E083E392E0D1
:100BE0000C949D05CF93DF93EC0180910C01882339
:100BF00031F083E00E9404051816190634F081E0F4
:100C000090E09B838A8380E090E0DF91CF9108950C
:100C1000FC01448155816081718184ED91E00C94E7
:100C2000F2052F923F924F925F926F927F928F9236
:100C30009F92AF92BF92CF92DF92EF92FF920F936B
:100C40001F93CF93DF93CDB7DEB72C970FB6F894F1
:100C5000DEBF0FBECDBF9A838983FB01C080D180E8
:100C6000E280F38084809580A680B780008511851E
:100C700082858C8783858B8720E030E0A901C501C0
:100C8000B4010E945215882309F40DC120E030E020
:100C9000A901C701B6010E94521520E030E040E8EA
:100CA0005FE387FF79C0C701B6010E94C4166B01DC
:100CB0007C0120E030E040EC50E4C701B6010E9426
:100CC000B8156B017C010E94A2171B01072E000CB6
:100CD000880B990B0E9459159B01AC01C701B60105
:100CE0000E94C3162B013C01AC019B01C501B4015C
:100CF0000E94B8159B01AC0160E070E080E89FE3C2
:100D00000E94C31698014C855B850E94B8156B83C1
:100D10007C838D839E83A501940160E070E080E870
:100D20009FE30E94C31698014C855B850E94B8150D
:100D30006B017C016F83D8868987FA86A3019201B3
:100D400060E070E080E89FE30E94C316A501940173
:100D50000E94B8159B01AC0160E070E080E89FE361
:100D60000E94C31698014C855B850E94B8154B0103
:100D70005C01E2E02E16310409F47BC0E4F4211496
:100D80003104B1F12A94232851F146015701CB8057
:100D9000DC80ED80FE802CC0C701B6010E94D81710
:100DA00087FD87CF20E030E040E85FE3C701B60170
:100DB0000E94C3167CCFE3E02E16310409F465C00F
:100DC000F4E02F16310409F76801EC84FB848B01F1
:100DD0008C87BB868F809884A984BA8409C0480117
:100DE000AC84BB840B811C818D818C87EE81EB8769
:100DF00020E030E04FE753E4B8018C859B850E94EA
:100E0000B8150E94A917E981FA81608320E030E0DB
:100E10004FE753E4B401C5010E94B8150E94A91719
:100E2000E981FA81618320E030E04FE753E4B601C5
:100E3000C7010E94B8150E94A917E981FA8162834F
:100E40002C960FB6F894DEBF0FBECDBFDF91CF91C9
:100E50001F910F91FF90EF90DF90CF90BF90AF90D8
:100E60009F908F907F906F905F904F903F902F90CA
:100E700008956B017C014801AC84BB840F81188507
:100E8000F985FC878A858B87B3CF8B809C80AD806A
:100E9000BE806801EC84FB840F811885E985EC87AE
:100EA000FA85FB87A5CF4801AC84BB846801750136
:100EB0009FCF8F929F92AF92BF92CF92DF92EF928D
:100EC000FF920F931F93CF93DF93CDB7DEB72F978A
:100ED0000FB6F894DEBF0FBECDBF9091AB0192303C
:100EE00049F420910001280F2093000127FF15C02D
:100EF000109200012F960FB6F894DEBF0FBECDBF43
:100F0000DF91CF911F910F91FF90EF90DF90CF90E5
:100F1000BF90AF909F908F900895253624F084E67F
:100F200080930001E7CFE0912E02F0912F024091D3
:100F3000240250912502CA01880F991F840F951F22
:100F40008E0F9F1FE817F90728F410821182128272
:100F50003396F8CF80912602806880932602822FF4
:100F600064E10E94DD17192F822F220F990B811B3C
:100F7000910917FD939564E170E00E94EB176B01F6
:100F8000062FF12CE12CCE14DF0481F06DEA71E024
:100F9000CE0101960E94110649815A816B81C701D9
:100FA0000E9433018FEFE81AF80AEDCF053009F4FB
:100FB00049C0112309F446C0612F110F770B880B2C
:100FC000990B0E9459152091B5013091B6014091BD
:100FD000B7015091B8010E94B81523E333E343E20F
:100FE00051E40E94B81520E030E04FE753E40E943E
:100FF00030170091B1011091B2012091B3013091ED
:10100000B4018090AD019090AE01A090AF01B0907E
:10101000B00189829A82AB82BC820D831E832F83AA
:10102000388769877A878B879C87BE016F5F7F4F80
:10103000CE010D960E9411064D855E856F85C60115
:101040000E9433010E940B0455CFCF92DF92EF92A2
:10105000FF920F931F93CF93DF936C01EB017B0102
:10106000E40EF51E10E000E0CE15DF0581F0699179
:101070006D30D1F3D601ED91FC910190F081E02D1E
:10108000C6010995892B19F00F5F1F4FEDCFC801DD
:10109000DF91CF911F910F91FF90EF90DF90CF9054
:1010A000089520E2260F283080F4FC01E359FF4F19
:1010B000605E770B21E030E001C0220F6A95EAF70D
:1010C000209530812323208360E0FC01E159FF4F0C
:1010D00026E0662321F03081361301C010822150B2
:1010E00031962111F6CF83599F4F0E94CE0581E0A2
:1010F00090E0089520E2260F283078F4FC01E359AF
:10110000FF4F605E770B41E050E001C0440F6A95ED
:10111000EAF72081242B208360E0FC01E159FF4F96
:101120002081261709F1DC01A059BF4F2C91261709
:10113000D9F011962C912617B9F011962C912617FB
:1011400099F011962C91261779F011962C9126176B
:1011500059F030E020E0419141110DC0280F391FB6
:10116000F901E159FF4F608383599F4F0E94CE05DB
:1011700081E090E008952F5F3F4F2630310559F709
:1011800021E030E0FC013383228390E080E0089589
:10119000EF92FF921F93CF93DF93EC01162F0E94E3
:1011A0007A087C01612FCE010E945108C70199275E
:1011B000DF91CF911F91FF90EF900895089590E0F7
:1011C00080E00895CF93C82F60E00E94B50360E0EF
:1011D0008C2FCF910C948703DC01FB0188E4808382
:1011E00089E4818384E482831D969C911D979F707E
:1011F0009F5B93831D968D919C9124E09695879596
:101200002A95E1F78F708F5B848385E00895EF92D4
:10121000FF920F931F93CF93DF93FB01208121381F
:1012200071F52381223259F5DC0112964C9124810B
:1012300035814217130619F5EC010B851C85F12C3D
:10124000E12C0115110589F0F80144815581628175
:10125000738180E80E94D1018F3F980749F0E80E22
:10126000F91ED8010D911C91ECCF81E08F87C70149
:10127000DF91CF911F910F91FF90EF90089590E033
:1012800080E0F6CFCF93DF93CDB7DEB769970FB687
:10129000F894DEBF0FBECDBFFC01DB018C918F5FE8
:1012A0008C939E012D5F3F4F8DE0D9011D928A9551
:1012B000E9F729E0298384E08A8391E09D8383E034
:1012C0008E832A8721E22B879C879D879F8722E236
:1012D000288B27E02B8B25E02C8B8E8B20E430E0B5
:1012E000388F2F8B998F82818B8395858685998BFB
:1012F0008A8B838180688D8B49E150E0BE016F5FEE
:101300007F4F80E00E94D10169960FB6F894DEBF4E
:101310000FBECDBFDF91CF910895CF93DF93EB0147
:101320000E9476168883CE01DF91CF910895EF92C7
:10133000FF920F931F93CF93DF937C018C01C8EC36
:10134000D0E0CE010E947616F80181938F0121969C
:10135000C133F1E0DF07A9F7C701DF91CF911F91FA
:101360000F91FF90EF900895FC0101900020E9F7A4
:101370003197AF01481B590BBC0184ED91E00C94EF
:10138000F2058F929F92AF92BF920F931F93CF93CC
:10139000DF93CDB7DEB7A1970FB6F894DEBF0FBECF
:1013A000CDBF19A2423008F44AE08E010F5D1F4FF5
:1013B000842E912CB12CA12CA50194010E94FF1721
:1013C000E62FB901CA01EA30F4F4E05DD801EE93EA
:1013D0008D01232B242B252B79F790E080E01097AB
:1013E00019F0CD010E94B409A1960FB6F894DEBFA2
:1013F0000FBECDBFDF91CF911F910F91BF90AF90E6
:101400009F908F900895E95CE1CF0F931F93CF9346
:10141000DF93EC0188819981009759F02A813B8103
:101420002617370730F081E0DF91CF911F910F91A0
:1014300008958B016F5F7F4F0E946C19009759F0E0
:10144000998388831B830A832C813D81232B59F741
:10145000FC011082E8CF80E0E7CFCF93DF93EC016F
:1014600088819981009711F00E94E31819821882EF
:101470001D821C821B821A82DF91CF9108950F93E7
:101480001F93CF93DF93EC010C811D810B5F1F4FE6
:10149000B8010E94050A882391F0288139818C8146
:1014A0009D816BE471E0820F931F0E94321A1D83AD
:1014B0000C83CE01DF91CF911F910F910895CE0142
:1014C0000E942D0AF6CFEF92FF920F931F93CF93B6
:1014D000DF93EC017B01198218821B821A821D8224
:1014E0001C82FB0101900020E9F731978F01061B58
:1014F000170BB8010E94050A811109C0CE01DF91C6
:10150000CF911F910F91FF90EF900C942D0A1D83A6
:101510000C83B70188819981DF91CF911F910F9141
:10152000FF90EF900C94321ACF92DF92EF92FF92DD
:101530000F931F93CF93DF93CDB7DEB729970FB6E5
:10154000F894DEBF0FBECDBF8C01862FF80111824B
:10155000108213821282158214824AE09E012F5F4C
:101560003F4F6901B90190E00E942815F6010190F2
:101570000020E9F731977F01EC18FD08B701C80199
:101580000E94050A811112C0C8010E942D0A2996E5
:101590000FB6F894DEBF0FBECDBFDF91CF911F9184
:1015A0000F91FF90EF90DF90CF900895F801F582B2
:1015B000E482B601808191810E94321AE8CFEF92D5
:1015C000FF920F931F93CF93DF93EC01FB01E08019
:1015D000F180E114F10411F1048115810115110567
:1015E000A9F08C819D81080F191FB801CE010E94BE
:1015F000050A882399F0288139818C819D81B70162
:10160000820F931F0E94321A1D830C83CE01DF913B
:10161000CF911F910F91FF90EF900895CE010E94FE
:101620002D0AF4CFFC0180819181009711F00C9478
:10163000E3180895BF92CF92DF92EF92FF920F933B
:101640001F93CF93DF93CDB7DEB761970FB6F894B2
:10165000DEBF0FBECDBFB82E25E0289FC0011124EC
:10166000825A9D4FFC01DE011D9601900D922A9534
:10167000E1F7FC018081811133C08E01025F1F4FB1
:101680006E01F2E1CF0ED11CF801F1908F01FF2025
:10169000B9F081E591E00E94B4096F2D70E090E00F
:1016A00080E040E10E94C1098EE591E00E94B4090A
:1016B0006F2D8AE592E00E945108C016D10621F7ED
:1016C00061960FB6F894DEBF0FBECDBFDF91CF910C
:1016D0001F910F91FF90EF90DF90CF90BF900895F2
:1016E000813071F76E01FDE0CF0ED11C7E0181E1EA
:1016F000E80EF11CF60101816281102F062F011501
:101700001105F1F2EFECF2E08191919108171907C0
:1017100021F4DF0112971D921C9282E0E73DF80749
:1017200099F70E94E2056B2DCE0107960E94940A5C
:1017300061E671E0CE0101960E94630ABE01695F15
:101740007F4FCE0101960E94DF0A0E943F0A0E944D
:101750000806CE0101960E94120BCE0107960E9448
:10176000120BB80190E080E040E10E94C1098EE5D3
:1017700091E00E94B409E2E0CE0ED11CEC14FD040D
:1017800009F49ECFB7CF9F92AF92BF92CF92DF92D4
:10179000EF92FF920F931F93CF93DF93CDB7DEB7F6
:1017A00061970FB6F894DEBF0FBECDBF982E25E02F
:1017B000289FC0011124825A9D4FFC01DE011D9615
:1017C00001900D922A95E1F7FC01808181114FC0B3
:1017D0008E01025F1F4F6E01F2E1CF0ED11CF801A6
:1017E000F1908F01FF2089F1692DCE0107960E94AB
:1017F000940A63E771E0CE0101960E94630ABE017C
:10180000695F7F4FCE0101960E94DF0A0E943F0A66
:101810000E940806CE0101960E94120BCE01079687
:101820000E94120B6F2D70E090E080E040E10E947A
:10183000C1098EE591E00E94B4096F2D8AE592E01E
:101840000E947A08C016D10651F661960FB6F89438
:10185000DEBF0FBECDBFDF91CF911F910F91FF90E3
:10186000EF90DF90CF90BF90AF909F900895813020
:1018700061F77E01FDE0EF0EF11C5E0181E1A80E33
:10188000B11CCC24C394D12CF70101816281102FAB
:10189000062F01151105C9F28091CF029091D00257
:1018A0000817190721F18091D1029091D2020817EF
:1018B0001907E9F08091D3029091D4020817190713
:1018C000B1F08091D5029091D6020817190779F0EE
:1018D000EFECF2E090E080E021913191232BC9F50B
:1018E000880F991FFC01E153FD4F118300830E9473
:1018F000E205692DCE0107960E94940A6EE771E019
:10190000CE0101960E94630ABE01695F7F4FCE013E
:1019100001960E94DF0A0E943F0A0E940806CE013B
:1019200001960E94120BCE0107960E94120BB8017D
:1019300090E080E040E10E94C1098EE591E00E94C4
:10194000B409F2E0EF0EF11CEA14FB0409F47DCFB8
:101950009BCF01968430910509F0BECFD0925D02F5
:10196000C0925C02C6CF9F92AF92BF92CF92DF929D
:10197000EF92FF920F931F93CF93DF93CDB7DEB714
:10198000CC53D1400FB6F894DEBF0FBECDBFDC0103
:10199000FB01EDB6FEB612962C91129784819581CB
:1019A0002817190609F063C0218180819281C45CE7
:1019B000DE4F9883CC53D140813A09F05AC0213090
:1019C00009F051C08381833021F49330D9F09430F1
:1019D00081F181E00FB6F894FEBE0FBEEDBEC45C8F
:1019E000DE4F0FB6F894DEBF0FBECDBFDF91CF91B3
:1019F0001F910F91FF90EF90DF90CF90BF90AF902D
:101A00009F900895198282ED8A831B8287E68C83DA
:101A100041E050E0BE01645C7E4F80E00E94D10155
:101A200044E050E0BE016F5F7F4F80E00E94D10133
:101A3000D0CFCE0186599F4F0E94970989E6FE01BB
:101A4000E659FF4FDE01119601900D928A95E1F75C
:101A500041E050E0BE01645C7E4F80E00E94D10115
:101A600049E650E0DFCF81E0233009F4B3CF80E0D6
:101A7000B1CF8132E1F72B3019F41F969C93A9CF97
:101A80002A3019F450969C93A4CF293081F79430D2
:101A900071F766817781CDB6DEB68DB79EB7861BAE
:101AA000970B0FB6F8949EBF0FBE8DBF0DB71EB734
:101AB0000F5F1F4FC8010E94780189E6F801319637
:101AC000DE01AD52BF4F01900D928A95E1F7FE0104
:101AD000ED52FF4F5F0108EC10E0F50191905F01BE
:101AE000C8010E947616981621F0692DC8010E943F
:101AF0007E160F5F1F4F0133F1E01F0771F789E674
:101B0000FE01ED52FF4FDE01A659BF4F01900D922D
:101B10008A95E1F789E6FE01E659FF4FDE0111964D
:101B200001900D928A95E1F789E6FE013196AEE5C6
:101B3000B2E001900D928A95E1F70FB6F894DEBEFF
:101B40000FBECDBE94CF1F920F920FB60F921124ED
:101B50008F939F938091E1009091E100937F909308
:101B6000E10083FF0FC01092E90091E09093EB0039
:101B70001092EC0092E39093ED001092D30198E064
:101B80009093F00082FF1CC093E09093E900909145
:101B9000F200992319F09AE39093E8009091A8013C
:101BA000992329F09091A80191509093A8019091C8
:101BB000D201992329F09091D20191509093D201B2
:101BC00084FF18C08091E2008E7E81608093E200E5
:101BD0008091E1008F7E8093E1008091A9018E7E4B
:101BE00080618093A9019F918F910F900FBE0F90FC
:101BF0001F90189580FFF7CF8091E2008E7E806164
:101C00008093E2008091E1008E7E8093E1008091DC
:101C1000A9018E7E8160E5CF1F920F920FB60F92C1
:101C20001124CF92DF92EF92FF920F931F932F9385
:101C30003F934F935F936F937F938F939F93AF9354
:101C4000BF93EF93FF93CF93DF93CDB7DEB76C973E
:101C5000DEBFCDBF1092E9008091E80083FF2FC066
:101C600089E0FE017596EE2EDF2E815029F09091CD
:101C7000F10090833196F9CF84E68093D20182EF10
:101C80008093E8008D8987FF39C09091E80090FF2C
:101C9000FCCF982F907609F033C19E894F89588DDB
:101CA0002F89F88C911131C0803861F58091AA019B
:101CB0008093F1001092F1008EEF8093E8006C9613
:101CC0000FB6F894DEBF0FBECDBFDF91CF91FF916D
:101CD000EF91BF91AF919F918F917F916F915F91A4
:101CE0004F913F912F911F910F91FF90EF90DF90B7
:101CF000CF900F900FBE0F901F9018959EEF90936E
:101D0000E800C7CF1092F100D5CF913059F481117E
:101D1000D3CF4130510581F68091AA018D7F809308
:101D2000AA01CACF933049F48111C6CF4130510581
:101D300019F68091AA018260F2CF953041F480912A
:101D4000E80080FFFCCF20682093E300B5CF9630F9
:101D500009F0A8C00B8D1C8D22E01092E9001092B2
:101D6000A6011092A501F2122EC01092A4011092A9
:101D7000A3010E9485021F8299E09983FA8291E073
:101D80009E8390EA98879AEF99872091A5013091D8
:101D9000A601275F3F4F3C832B838D831092E90080
:101DA0001092A6011092A5011093A4010093A30123
:101DB00049E050E0BE016F5F7F4F80E00E94D1019B
:101DC0000E94850279CF1093A4010093A3010E9481
:101DD0000802DC0112960D911C910115110509F400
:101DE00049C1D801ED91FC910480F581E02D6E2D63
:101DF0007D2DC8010995009709F037C1F8010085CC
:101E00001185EBCFF3E0FF120EC08F89882309F410
:101E100040C0823061F440E86CE08AE291E00E94C8
:101E20008A10811149CF81E28093EB0048CF813045
:101E300029F440E869E080E291E0F1CF833099F73E
:101E40000E940802DC011296ED90FC908E010F5F5B
:101E50001F4F6801E114F10479F0D701ED91FC9175
:101E60000680F781E02DB801C7010995080F111D03
:101E7000F701E084F184EECFD8011C92F6010190C5
:101E80000020E9F73197BF016C197D0940E0C601D8
:101E9000C6CF6AE071E0FB01449150E080E80E9407
:101EA000D1010ACF973009F4BECF983021F481E0F8
:101EB0008093F10001CF993009F0FECE837009F0D4
:101EC000B2CFEEE0F1E081E031E096E32191222310
:101ED00071F08093E9003093EB00DF0111972C91B2
:101EE0002093EC009093ED008F5F873079F78EE7B9
:101EF0008093EA001092EA008F898093D301DCCEB0
:101F00008B8D9C8D1092E9001092A6011092A50174
:101F10009093A4018093A301898D81118CC08E8937
:101F20009D89913A49F4813209F07DCF47E050E034
:101F300065E071E080E0B3CF913209F074CF833275
:101F400069F48F89988DB0E0A0E0809301019093AF
:101F50000201A0930301B0930401AECE803239F4A4
:101F600067E070E085E091E00E947801A5CE8232C2
:101F700009F0A2CE8F8980930C01EEEFFFE78591E7
:101F800094918B3F9C4D51F1E0E0F8E08091050188
:101F900090910601A0910701B0910801803B944007
:101FA000A105B105F1F480910C0180FD1AC0EE3F4E
:101FB0008AE0F80789F587E797E791838083809126
:101FC00060008093A70188E19BE00FB6F894A89584
:101FD000809360000FBE909360006ECEEEEFFAE04B
:101FE000D5CF808191818737974709F065CEA89535
:101FF000809160008861809360008091A701809348
:102000006000EE3F2AE0F20789F08091FE0A90918D
:10201000FF0A9183808350CE808191818737980712
:1020200051F29093FF0A8093FE0AC5CF1092FF0AE7
:102030001092FE0A41CE0E940802DC0112960D9118
:102040001C910115110509F4EECED801ED91FC911A
:102050000190F081E02D6E2D7D2DC8010995811133
:102060002BCEF80100851185ECCF181619060CF45B
:1020700023CED9CEF1E0FF12C5CE6EE071E00BCFDA
:102080001F920F920FB60F9211242F933F938F93AD
:102090009F93AF93BF9380918F0190919001A091F6
:1020A0009101B091920130918E0123E0230F2D37E1
:1020B00058F50196A11DB11D20938E0180938F01CB
:1020C00090939001A0939101B0939201809193011C
:1020D00090919401A0919501B09196010196A11D56
:1020E000B11D8093930190939401A0939501B093B7
:1020F0009601BF91AF919F918F913F912F910F903A
:102100000FBE0F901F90189526E8230F0296A11D71
:10211000B11DD2CFEF92FF920F931F93CF93DF9316
:10212000F82E192FE62E042F81E0860F880F0E94CB
:10213000A30183E00E94A301CF2DD12FEC0EFD2E31
:10214000F11CCE15DF05B9F007FF13C0FE01849125
:102150000E94A301182F80E00E94A30181232196F1
:102160008111EFCFDF91CF911F910F91FF90EF90F1
:1021700008958881EDCF81E0F5CF1F93CF93DF9352
:10218000CDB7DEB7C956D1090FB6F894DEBF0FBE82
:10219000CDBF1092D7011092D60188EE93E0A0E057
:1021A000B0E08093D8019093D901A093DA01B09365
:1021B000DB0181E391E09093D5018093D4018FEF0F
:1021C0009FEF9093E1018093E00185E090E0909390
:1021D000250280932402109226028FE090E09093D3
:1021E00028028093270211E01093290210923102F5
:1021F000109230021092320261E081E00E94B50339
:1022000080912702909128020E94471890932F02F4
:1022100080932E02E2E8F1E0E491F0E0EE0FFF1F80
:10222000ED58FE4F85919491909331028093300246
:10223000E6E5F1E0E491E093320210925D02109243
:102240005C0283E491E090935B0280935A02809158
:102250005202811112C010924D0210924C028FE96D
:1022600091E090934F0280934E028EE690E090931F
:1022700051028093500210935202809144028111C6
:1022800005C00E941C0281E080934402E0913E025E
:10229000F0913F02309769F58CE492E090933F0211
:1022A00080933E0280914002909141022091500221
:1022B00030915102820F931F90934102809340020C
:1022C000CE0101960E94970989E6FE013196AEE59E
:1022D000B2E001900D928A95E1F7C759DF4F0FB632
:1022E000F894DEBF0FBECDBFDF91CF911F9108954F
:1022F000FC01808191810097D9F78CE492E0918371
:102300008083D0CFCF93DF93CDB7DEB768970FB67A
:10231000F894DEBF0FBECDBF789484B5826084BDD3
:1023200084B5816084BD85B5826085BD85B58160D9
:1023300085BD80916E00816080936E001092810057
:102340008091810082608093810080918100816012
:1023500080938100809180008160809380008091D3
:1023600091008260809391008091910081608093C0
:102370009100809190008160809390008091C100D5
:1023800084608093C1008091C10082608093C1000D
:102390008091C10081608093C1008091C300816001
:1023A0008093C3008091C00082608093C0008091C0
:1023B000C20081608093C20080917A008460809323
:1023C0007A0080917A00826080937A0080917A000E
:1023D000816080937A0080917A00806880937A008F
:1023E0001092D3011092AA011092A9018091D700F6
:1023F00081608093D70080EA8093D80089B580619E
:1024000089BD89B5826089BD09B400FEFDCF61E058
:1024100070E080E090E00E948A048091D8008F7C78
:1024200080618093D8008091E000807F8093E000FD
:102430008091E1008E7E8093E1008DE08093E20048
:102440008FEF9FEF9093E1018093E00182E00E9483
:10245000E20883E00E94E20880E00E94E2088CE04B
:102460000E94E20889E00E94E20885E00E94E208FA
:102470008AE00E94E20888E00E94E20884E00E946C
:10248000E20886E00E94E20861E08DE00E94B50368
:1024900061E08DE00E94870361E082E10E94B50364
:1024A00061E082E10E94870361E083E10E94B5035D
:1024B00061E083E10E9487036EE1C62E61E0D62EC3
:1024C0000AE111E0C016D10661F0F801F1908F0128
:1024D00060E08F2D0E94B50361E08F2D0E9487037D
:1024E000F1CF8CE00E945E0321E0892B09F420E00B
:1024F0002093BC0189E00E945E0321E0892B09F44E
:1025000020E02093BB0182E00E945E0321E0892B42
:1025100009F420E02093BA0183E00E945E0321E0E9
:10252000892B09F420E02093B90161E081E00E9449
:10253000B5035DEAE52E51E0F52E04E610E0C80192
:102540000E947616F70181937F010F5F1F4F0037BE
:102550001105A9F76CEA71E081E090E00E948D0915
:102560006BEA71E090E080E00E948D0910E000E0ED
:1025700042E4E42E41E0F42E8091AC018017110674
:1025800009F00CF49DC061E08BE00E94B5030115D9
:10259000110529F460E08BE00E9487031FC0F7015A
:1025A0008491EFEFE80FEF3008F084C0F0E0E552DF
:1025B000FD4E0C942118EA12F712FC1206131013A8
:1025C0005A135A135A131A1324132E13381345137C
:1025D0005A134D1384B5806884BD07BD64E070E074
:1025E00080E090E00E948A040F5F1F4FC5CF84B542
:1025F000806284BD08BDF2CF8091800080688093A6
:1026000080001093890000938800E8CF80918000BB
:1026100080628093800010938B0000938A00DECF4D
:102620008091800088608093800010938D000093DB
:102630008C00D4CF8091900080688093900010939C
:10264000990000939800CACF809190008062809397
:10265000900010939B0000939A00C0CF809190004F
:1026600088608093900010939D0000939C00B6CFEB
:102670008091C00080688093C0008091C0008F7BF3
:102680008093C0000093CF00A9CF8091C0008062EA
:102690008093C0000093D000A1CF8091C2008860D9
:1026A0008093C2008091C2008B7F8093C200009310
:1026B000D20094CF003811050CF46CCF61E06BCFE1
:1026C0006FEF70E088EC0E94BD0464E670E080E08B
:1026D00090E00E948A0460E070E080E00E94BD0407
:1026E00064E670E080E090E00E948A046FEF7FEF84
:1026F0008FEF0E94E20464E670E080E090E00E94C8
:102700008A0460E070E080E00E94E20464E670E029
:1027100080E090E00E948A046FEF70E088EC0E94F5
:10272000BD0464E670E080E090E00E948A0460E00E
:1027300070E080E00E94BD0464E670E080E090E01C
:102740000E948A048091AB01813009F45CC0823020
:1027500009F46FC021E2622E21E0722E30E0832E58
:1027600030E0932E9AE1A92E91E0B92E10E000E01E
:10277000502E8EE1E82E81E0F82E6E147F0409F4CD
:102780006FC00330110529F4F0E2EF16F1E0FF0607
:10279000A1F1F701408061E0842D0E94B50360E063
:1027A000842D0E948703852D90E09C0123543E4F89
:1027B0006901F9013080F50180810E945E033816BD
:1027C000190699F4852D332009F447C00E941A0B8D
:1027D00081E0F6019081911180E0F60180836AE04A
:1027E00070E080E090E00E948A0461E0842D0E9405
:1027F000B50361E0842D0E948703FFEFEF1AFF0A03
:1028000024E0520EBACF8CE0EDEAF1E0DE011D9635
:1028100001900D928A95E1F7BE01635F7F4FCE0173
:1028200001960E94110669817A818B810E94BD0404
:1028300091CF8CE0EDEAF1E0DE01119601900D926E
:102840008A95E1F7BE016F5F7F4FCE010D960E9422
:1028500011066D857E858F85E9CF0E94C30BB8CFA9
:102860000F5F1F4F3FEFA31AB30A0430110509F0A1
:102870007FCF85E00E945E032091CC0128171906C6
:1028800079F4222309F48CC08091C801882309F4CB
:1028900065C08BE00E941A0B1092C8011092CC0107
:1028A00080E00E945E032091CD012817190641F4B3
:1028B00080E1222309F4ABC00E941A0B1092CD01D3
:1028C0008CE00E945E032091BC0128171906D1F00C
:1028D00089E00E945E032091BB012817190609F4C4
:1028E0009CC081E10E94C30B81E10E941A0B909170
:1028F000BC0121E092279093BC018091BB0182270B
:102900008093BB0182E00E945E032091BA012817E8
:102910001906E9F083E00E945E032091B9012817AF
:10292000190609F47FC08BEF0E94590783E10E94CA
:10293000C30B83E10E941A0B9091B90121E0922709
:102940009093B9018091BA0182278093BA018114D2
:10295000910409F407CF0E94000004CF8091C901BF
:10296000882331F08CE00E941A0B1092C90196CF97
:102970008091CA01882331F08DE00E941A0B1092D9
:10298000CA018CCF8091CB01882331F08EE00E9468
:102990001A0B1092CB0182CF8FE00E941A0B7ECFD0
:1029A0008AE00E945E03892B51F48BE00E94C30BE6
:1029B00081E08093C80181E08093CC0171CF88E0F1
:1029C0000E945E03892B39F48CE00E94C30B81E0E6
:1029D0008093C901F0CF84E00E945E03892B39F413
:1029E0008DE00E94C30B81E08093CA01E4CF86E0B2
:1029F0000E945E03892B39F48EE00E94C30B81E0B4
:102A00008093CB01D8CF8FE00E94C30BD4CF0E941C
:102A1000C30B81E08093CD0153CF82E10E94C30BB1
:102A200082E163CF85E00E94590784E10E94C30BD5
:102A300084E180CFCF93DF93C4E2D2E060E08D8168
:102A40000E94B5038A859B85DF91CF910C94E31892
:102A5000BB27FB015527AA27880F991FAA1FA41778
:102A600010F0A41B83955051B9F7A05DAA3308F06C
:102A7000A95DA193009779F7B111B1931192CB01A0
:102A80000C944215DC01FC01672F71917723E1F76B
:102A9000329704C07C916D9370836291AE17BF072B
:102AA000C8F308950E94941508F481E00895E8940D
:102AB00009C097FB3EF490958095709561957F4F86
:102AC0008F4F9F4F9923A9F0F92F96E9BB27939534
:102AD000F695879577956795B795F111F8CFFAF444
:102AE000BB0F11F460FF1BC06F5F7F4F8F4F9F4F75
:102AF00016C0882311F096E911C0772321F09EE8D3
:102B0000872F762F05C0662371F096E8862F70E038
:102B100060E02AF09A95660F771F881FDAF7880F12
:102B20009695879597F90895990F0008550FAA0B68
:102B3000E0E8FEEF16161706E807F907C0F01216D0
:102B40001306E407F50798F0621B730B840B950BD3
:102B500039F40A2661F0232B242B252B21F4089528
:102B60000A2609F4A140A6958FEF811D811D0895C5
:102B70000E94CB150C943C160E942E1638F00E9431
:102B8000351620F0952311F00C9425160C942B1675
:102B900011240C9470160E944D1670F3959FC1F38A
:102BA000950F50E0551F629FF001729FBB27F00DFB
:102BB000B11D639FAA27F00DB11DAA1F649F662750
:102BC000B00DA11D661F829F2227B00DA11D621F9F
:102BD000739FB00DA11D621F839FA00D611D221F59
:102BE000749F3327A00D611D231F849F600D211D3D
:102BF000822F762F6A2F11249F5750409AF0F1F0C0
:102C000088234AF0EE0FFF1FBB1F661F771F881F28
:102C100091505040A9F79E3F510580F00C94251625
:102C20000C9470165F3FE4F3983ED4F38695779545
:102C30006795B795F795E7959F5FC1F7FE2B880FCE
:102C4000911D9695879597F9089597F99F6780E864
:102C500070E060E008959FEF80EC089500240A94EE
:102C60001616170618060906089500240A94121667
:102C70001306140605060895092E0394000C11F49A
:102C8000882352F0BB0F40F4BF2B11F460FF04C047
:102C90006F5F7F4F8F4F9F4F089557FD9058440FA0
:102CA000551F59F05F3F71F04795880F97FB991FAB
:102CB00061F09F3F79F08795089512161306140668
:102CC000551FF2CF4695F1DF08C0161617061806F5
:102CD000991FF1CF86957105610508940895E894D0
:102CE000BB2766277727CB0197F90895F999FECF7F
:102CF00092BD81BDF89A992780B50895262FF9993C
:102D0000FECF1FBA92BD81BD20BD0FB6F894FA9ACE
:102D1000F99A0FBE019608952F923F924F925F92BB
:102D20006F927F928F929F92AF92BF92CF92DF92DB
:102D3000EF92FF920F931F93CF93DF93CDB7DEB740
:102D4000CA1BDB0B0FB6F894DEBF0FBECDBF0994D4
:102D50002A88398848885F846E847D848C849B842B
:102D6000AA84B984C884DF80EE80FD800C811B8139
:102D7000AA81B981CE0FD11D0FB6F894DEBF0FBE68
:102D8000CDBFED0108955058BB27AA270E94DB163E
:102D90000C943C160E942E1638F00E94351620F036
:102DA00039F49F3F19F426F40C942B160EF4E09599
:102DB000E7FB0C942516E92F0E944D1658F3BA171D
:102DC000620773078407950720F079F4A6F50C9441
:102DD0006F160EF4E0950B2EBA2FA02D0B01B90142
:102DE00090010C01CA01A0011124FF27591B99F081
:102DF000593F50F4503E68F11A16F040A22F232F8D
:102E0000342F4427585FF3CF469537952795A795DC
:102E1000F0405395C9F77EF41F16BA0B620B730B83
:102E2000840BBAF09150A1F0FF0FBB1F661F771FF4
:102E3000881FC2F70EC0BA0F621F731F841F48F4A9
:102E4000879577956795B795F7959E3F08F0B0CF32
:102E50009395880F08F09927EE0F97958795089519
:102E60000E9444170C943C160E94351658F00E949C
:102E70002E1640F029F45F3F29F00C9425165111CD
:102E80000C9470160C942B160E944D1668F399231F
:102E9000B1F3552391F3951B550BBB27AA27621756
:102EA0007307840738F09F5F5F4F220F331F441F63
:102EB000AA1FA9F335D00E2E3AF0E0E832D0915097
:102EC0005040E695001CCAF72BD0FE2F29D0660F84
:102ED000771F881FBB1F261737074807AB07B0E8C7
:102EE00009F0BB0B802DBF01FF2793585F4F3AF0CD
:102EF0009E3F510578F00C9425160C9470165F3F98
:102F0000E4F3983ED4F3869577956795B795F79552
:102F10009F5FC9F7880F911D9695879597F908953A
:102F2000E1E0660F771F881FBB1F621773078407D6
:102F3000BA0720F0621B730B840BBA0BEE1F88F7E5
:102F4000E09508950E94A9176894B1110C94701629
:102F500008950E94551688F09F5798F0B92F992729
:102F6000B751B0F0E1F0660F771F881F991F1AF074
:102F7000BA95C9F714C0B13091F00E946F16B1E054
:102F800008950C946F16672F782F8827B85F39F053
:102F9000B93FCCF3869577956795B395D9F73EF40D
:102FA00090958095709561957F4F8F4F9F4F0895B5
:102FB0000E94941508F48FEF089587FB082E0626CB
:102FC00087FD819567FD61950E9427180EF4919504
:102FD00007FC8195089597FB072E16F4009407D0FF
:102FE00077FD09D00E94331807FC05D03EF4909578
:102FF00081959F4F0895709561957F4F0895A1E247
:103000001A2EAA1BBB1BFD010DC0AA1FBB1FEE1F62
:10301000FF1FA217B307E407F50720F0A21BB30BAD
:10302000E40BF50B661F771F881F991F1A9469F729
:1030300060957095809590959B01AC01BD01CF0185
:103040000895EE0FFF1F0590F491E02D0994991B50
:1030500079E004C0991F961708F0961B881F7A958F
:10306000C9F780950895AA1BBB1B51E107C0AA1F91
:10307000BB1FA617B70710F0A61BB70B881F991F19
:103080005A95A9F780959095BC01CD0108950F93AD
:103090001F93CF93DF938230910510F482E090E08C
:1030A000E091D902F091DA0230E020E0B0E0A0E057
:1030B000309799F42115310509F44AC0281B390BC2
:1030C00024303105D8F58A819B816115710589F11C
:1030D000FB0193838283FE0111C0408151810281F3
:1030E000138148175907E0F04817590799F41097CA
:1030F00061F012960C93129713961C933296CF019F
:10310000DF91CF911F910F9108950093D9021093F1
:10311000DA02F4CF2115310551F04217530738F088
:10312000A901DB019A01BD01DF01F801C1CFEF0167
:10313000F9CF9093DA028093D902CDCFFE01E20F4E
:10314000F31F819391932250310939832883D7CF7C
:103150002091D7023091D802232B41F420911601FF
:10316000309117013093D8022093D7022091140197
:10317000309115012115310541F42DB73EB740912D
:10318000180150911901241B350BE091D702F091E1
:10319000D802E217F307A0F42E1B3F0B28173907BC
:1031A00078F0AC014E5F5F4F2417350748F04E0FA3
:1031B0005F1F5093D8024093D702819391939FCF82
:1031C000F0E0E0E09CCFCF93DF930097E9F0FC01C3
:1031D000329713821282A091D902B091DA02ED01E6
:1031E00030E020E01097A1F420813181820F931FFD
:1031F0002091D7023091D8022817390709F061C011
:10320000F093D802E093D702DF91CF910895EA01BD
:10321000CE17DF07E8F54A815B819E014115510514
:10322000B1F7E901FB83EA8349915991C40FD51F96
:10323000EC17FD0761F4808191810296840F951F40
:10324000E90199838883828193819B838A83F0E05B
:10325000E0E012968D919C9113970097B9F52D910E
:103260003C911197CD010296820F931F2091D702B6
:103270003091D8022817390739F6309751F5109256
:10328000DA021092D902B093D802A093D702BCCF31
:10329000D383C28340815181840F951FC817D907FA
:1032A00061F44E5F5F4F88819981480F591F5183A8
:1032B00040838A819B81938382832115310509F0A4
:1032C000B0CFF093DA02E093D9029ECFFD01DC018A
:1032D000C0CF13821282D7CFB0E0A0E0E2E7F9E1DD
:1032E0000C948E168C01009751F4CB010E94471864
:1032F0008C01C801CDB7DEB7E0E10C94AA16FC0141
:10330000E60FF71F9C0122503109E217F30708F47A
:103310009DC0D901CD91DC911197C617D70798F0C0
:10332000C530D10530F3CE0104978617970708F30F
:10333000C61BD70B2297C193D1936D937C93CF017A
:103340000E94E318D6CF5B01AC1ABD0A4C018C0E6B
:103350009D1EA091D902B091DA02512C412CF12C82
:10336000E12C109731F58091D7029091D802881501
:10337000990509F05CC04616570608F058C08091C0
:10338000140190911501009741F48DB79EB74091BB
:10339000180150911901841B950BE817F90708F0E3
:1033A00055C0F093D802E093D702F901718360838E
:1033B000A0CF8D919C91119712966C9012971396B5
:1033C0007C901397A815B90559F56C0142E0C40E1D
:1033D000D11CCA14DB0420F1AC014A195B09DA01E3
:1033E0001296159780F06282738251834083D901CF
:1033F0006D937C93E114F10471F0D7011396FC9363
:10340000EE93129776CF22968C0F9D1FF901918330
:103410008083F301EFCFF093DA02E093D90269CF12
:103420004816590608F42C017D01D3019ACFCB012F
:103430000E9447187C01009749F0AE01B8010E9434
:10344000291AC8010E94E318870153CF10E000E059
:1034500050CFFB01DC0102C001900D924150504061
:10346000D8F70895FB01DC0101900D920020E1F7EF
:10347000089511E0C8E0D1E004C0FE010E942118C7
:0C3480002196C930D107C9F7F894FFCF9E
:10348C0064FFFFFFFF00E100000000000000C180AE
:10349C00810000000000DB028000171615140D12CD
:1034AC001300000000B30C42090709EC08000000EF
:1034BC0000B602F205D702CC02F802DC02E80200E8
:1034CC00000000C8082508DF08DE08293A203078FB
:1034DC000072656C656173654B65793A20000D0A65
:1034EC000072656C65617365436F6E73756D6572A3
:1034FC0020280070726573734B65792028007072F8
:0E350C00657373436F6E73756D6572202800D2
:00000001FF
