:100000000C9409010C9431010C9431010C943101D0
:100010000C9431010C9431010C9431010C94310198
:100020000C9431010C9431010C949C0F0C9405102C
:100030000C9431010C9431010C9431010C94310178
:100040000C9431010C9431010C9431010C94310168
:100050000C9431010C9431010C9431010C9439123F
:100060000C9431010C9431010C9431010C94310148
:100070000C9431010C9431010C9431010C94310138
:100080000C9431010C9431010C9431010C94310128
:100090000C9431010C9431010C9431010C94310118
:1000A0000C9431010C9431010C94310100000000DA
:1000B000240027002A002D0030000000000023004B
:1000C000260029002C002F000000000200090F006C
:1000D00000030401000C000000000000000000000C
:1000E000000000000000080B0002020200000904EA
:1000F0000000010202000005240010010524010196
:1001000001042402060524060001070581031000EE
:100110004009040100020A00000007050202400035
:1001200000070583024000000403090412010002D5
:10013000EF020140D804E3E6000101020301515639
:10014000455820546563680051564558204C796ED7
:100150006570616400040802011040804010204076
:1001600080408008020401804020100201108010AD
:1001700020404000000000250028002B002E003108
:10018000000404040404030405020202020403023E
:10019000020202060606060606040402020204051E
:1001A000010906A1018502050719E029E7150025C7
:1001B0000175019508810295017508810395067501
:1001C00008150025730507190029E78100C0050CF3
:1001D0000901A1018505150026FF0319002AFF0367
:1001E000950475108100C00600FF0901A101850377
:1001F0000901150026FF0075089504B10185040961
:100200000195697508150026FF00B100C000B612FF
:100210008C1611241FBECFEFDAE0DEBFCDBF22E087
:10022000AEE8B1E001C01D92AC3DB207E1F711E0CC
:10023000A0E0B1E0E0E7F7E302C005900D92AE3830
:10024000B107D9F711E0C8E0D1E004C02197FE0161
:100250000E949319C730D107C9F70E947B130C94F1
:10026000AB1B0C940000E0912F02F0913002409102
:100270002502509126029A01220F331F240F351FA9
:100280002E0F3F1FE217F30728F4708361838283E8
:100290003396F8CF809127028068809327020895D3
:1002A00020912502309126028217930798F4FC01D1
:1002B000EE0FFF1F8E0F9F1FE0912F02F091300273
:1002C000E80FF91F50834183628380912702806881
:1002D0008093270208959091D401911103C08FEF6C
:1002E0009FEF08954FB7F89492E09093E9009091B2
:1002F000F200292F30E01216130614F421E030E04A
:10030000232B29F084E68093D3018091F100992377
:1003100039F02091F200211103C02BE62093E80070
:100320004FBF9923E1F290E00895CF93DF93EC0162
:100330009B01B4E6ABEF21153105F1F0A9012134A1
:10034000310514F040E450E08091E80082FFFCCFDA
:10035000942FFB01E21BF30BEC0FFD1F915028F0D3
:100360008091F10080833196F9CFB093D301A093AF
:10037000E800241B350BDFCFCB01DF91CF9108952F
:100380004091A6015091A7012091A4013091A501AF
:1003900042175307B4F49091E8009570E1F39091FF
:1003A000E80092FD19C08093F1008091A601909120
:1003B000A70101968F739927892B19F48EEF8093EB
:1003C000E8008091A6019091A70101969093A70162
:1003D0008093A60181E0089580E00895DF92EF9276
:1003E000FF920F931F93CF93DF93D82E8A01EB01D7
:1003F0007B01E40EF51ECE15DF0559F0D7FE12C0C5
:10040000FE0184910E94C00121968111F4CF0FEF6B
:100410001FEFC801DF91CF911F910F91FF90EF90D7
:10042000DF9008958881EECF2FB7F894877080937E
:10043000E9009091E800892F807295FF04C09091A7
:10044000F20080E4891B2FBF089580919C018111E7
:100450000DC082E08093980184E08093990110920E
:100460009B0110929A0181E080939C0188E991E0C0
:100470000895CF93DF9381E080933802809339020F
:100480002EE332E030933B0220933A0210923D0279
:1004900010923C0225E231E0309335022093340281
:1004A0001092400210923F021092420210924102BA
:1004B000809343028093440281EC80933E020E9429
:1004C0002502FC01818190913802482F490F552760
:1004D000551F483051059CF5A281B381109709F54D
:1004E00024E332E0338322832081209336028093F9
:1004F000370280913902820F808320913A02A22F25
:10050000B0913B028A2F821B8917C8F481813D91EB
:10051000C82FD0E0C35FDE4F38838F5F8183F2CF77
:10052000D90118962D913C91199721153105C1F7E4
:1005300024E332E019963C932E931897D5CFDF91A0
:10054000CF9108950F931F93CF93DF931F92CDB751
:10055000DEB782E0898342E450E066EE70E080E836
:100560000E94EE010E942502DC0112960D911C9161
:100570000115110589F0D801ED91FC910280F381FC
:10058000E02DBE016F5F7F4FC801099597FD04C044
:10059000F80100851185ECCF89810F90DF91CF9113
:1005A0001F910F910895CF93DF931F92CDB7DEB7C0
:1005B0006983DC01ED91FC910280F381E02D41E043
:1005C00050E0BE016F5F7F4F09950F90DF91CF9193
:1005D000089583E08093E9008091F200882319F068
:1005E0008AE38093E800089583E00E94140290E07B
:1005F0000895FC018485958597FD05C02FEF3FEF99
:100600003587248708950C946B01CF93DF93EC0119
:100610008C859D8597FF04C00E946B019D878C8708
:100620008C859D85DF91CF910895FC01848595850A
:1006300097FD0BC09FB7F89482E08093E90080910A
:10064000F2009FBF90E0019608959FB7F89482E072
:100650008093E9008091F2009FBF90E0089581505F
:100660008F3008F047C0E82FF0E0E75CFC4F0C94B7
:10067000931956035A0348034E0352037A037A032D
:100680007A035D03630367036B0371037A037503E6
:10069000809180008F778093800008958091800002
:1006A0008F7DF9CF80918000877FF5CF84B58F77DC
:1006B00084BD089584B58F7DFBCF809190008F77A6
:1006C000809390000895809190008F7DF9CF809164
:1006D0009000877FF5CF8091C0008F778093C00016
:1006E00008958091C0008F7DF9CF8091C200877FEF
:1006F0008093C2000895CF93DF93282F30E0F90153
:10070000E853FF4F8491F901EB5AFE4FD491F90160
:10071000EF57FE4FC491CC23A1F081110E942F030B
:10072000EC2FF0E0EE0FFF1FE654FF4FA591B491C0
:10073000EC91ED2381E090E009F480E0DF91CF912E
:10074000089580E090E0FACF1F93CF93DF93282F96
:1007500030E0F901E853FF4F8491F901EB5AFE4F65
:10076000D491F901EF57FE4FC491CC23A9F0162F75
:1007700081110E942F03EC2FF0E0EE0FFF1FED58C8
:10078000FE4FA591B4918FB7F894EC91111108C068
:10079000D095DE23DC938FBFDF91CF911F91089519
:1007A000DE2BF8CFCF93DF9390E0FC01EB5AFE4FA6
:1007B00024918F579E4FFC0184918823D1F090E0C3
:1007C000880F991FFC01E455FF4FA591B491FC01DE
:1007D000ED58FE4FC591D49161110EC09FB7F894AA
:1007E0008C91E22FE0958E238C932881E223E8837D
:1007F0009FBFDF91CF9108958FB7F894EC91E22BD2
:10080000EC938FBFF6CF3FB7F8948091940190910D
:100810009501A0919601B091970126B5A89B05C0BE
:100820002F3F19F00196A11DB11D3FBFBA2FA92F6F
:10083000982F8827BC01CD01620F711D811D911D6C
:1008400042E0660F771F881F991F4A95D1F70895D8
:100850000F931F93CF93DF9300D000D000D01F924F
:10086000CDB7DEB78091270287FF66C00E940304E0
:1008700000912B0210912C0220912D0230912E021A
:10088000601B710B820B930B6C32714081059105DB
:1008900068F3F89480913302E0913102F0913202D2
:1008A000409128025091290220912F02309130026C
:1008B0005A83498389010F5F1F4FD9019C919F8300
:1008C0009081982B9E839081809589238D838D8143
:1008D0008C8388E08B835E816D814F813B812C818D
:1008E00089819A81D801508347FD252F3A9520832D
:1008F000262F39F0441F00C000006083000000C0B4
:10090000F2CF38E04D9160830000019761F74F838B
:100910003B832C839A83898378940E940304609399
:100920002B0270932C0280932D0290932E028091C3
:1009300027028F778093270227960FB6F894DEBFA1
:100940000FBECDBFDF91CF911F910F9108958F9270
:100950009F92AF92BF92CF92DF92EF92FF926B0184
:100960007C010E9403044B015C01C114D104E10429
:10097000F104B9F00E940304681979098A099B09F6
:10098000683E73408105910580F321E0C21AD108C9
:10099000E108F10888EE880E83E0981EA11CB11CC6
:1009A000E4CFFF90EF90DF90CF90BF90AF909F90FB
:1009B0008F900895CF92DF92EF92CF93DF936B01E8
:1009C000E82ED0E0C0E08091250290912602C81761
:1009D000D90778F46E2DA601CE010E9450010E9425
:1009E000280462E370E080E090E00E94A704219672
:1009F000EACFDF91CF91EF90DF90CF900895CF9223
:100A0000DF92EF92CF93DF936B01E82EC091250226
:100A1000D0912602D7FD0FC06E2DA601CE010E94F7
:100A200050010E94280462E370E080E090E00E94A0
:100A3000A7042197EFCFDF91CF91EF90DF90CF9078
:100A400008957F928F929F92AF92BF92CF92DF9242
:100A5000EF92FF920F931F93CF93DF93C82E8B01DA
:100A60007A018091D401811110C08FEF9FEFDF9147
:100A7000CF911F910F91FF90EF90DF90CF90BF909B
:100A8000AF909F908F907F9008958091AA0180FFF2
:100A900005C08091E00082608093E000CE2DDF2DC4
:100AA000D12C8AEFB82E8C2D8770982E8C2D8072C9
:100AB000882E8C2D8074782E9AE3A92E209719F415
:100AC000DD2009F452C08C2D0E94140281110AC04D
:100AD000BA94BB2051F261E070E080E090E00E94A7
:100AE000A704ECCF8C171D0611F00CF08C2F9FB7CC
:100AF000F8949092E9002091E80025FD02C09FBF84
:100B0000DDCF282F30E0C21BD30B882029F0815085
:100B1000A0F01092F100FBCFF801C7FC0AC0815091
:100B200050F041914093F100FACF44914093F1008D
:100B300031968150D0F7020F131FDD2021F0A092D3
:100B4000E800D12CDCCF8091E80085FD07C0A092A1
:100B5000E800DD24D394209791F2F3CF209779F623
:100B6000772069F2A092E800CACF84E68093A901B9
:100B7000C7017DCFCF92DF92EF92FF920F931F9329
:100B8000CF93DF931F92CDB7DEB77C0169836A01F3
:100B900041E050E0BE016F5F7F4FFC0183810E9406
:100BA00021058C0197FD0CC0F701838148E050E0DE
:100BB000B60180640E942105080F191F97FD8C0162
:100BC000C8010F90DF91CF911F910F91FF90EF908F
:100BD000DF90CF900895CF93DF93EC018091450291
:100BE000811105C00E94390281E080934502AE0167
:100BF00062E084E392E0DF91CF910C94BA0580919A
:100C00004502811105C00E94390281E080934502AE
:100C100040ED52E065E084E392E00C94BA05CF9396
:100C2000DF93EC0180910C01882331F083E00E9476
:100C300021051816190634F081E090E09B838A8321
:100C400080E090E0DF91CF910895FC0144815581CF
:100C50006081718185ED91E00C940F062F923F9297
:100C60004F925F926F927F928F929F92AF92BF92BC
:100C7000CF92DF92EF92FF920F931F93CF93DF9368
:100C8000CDB7DEB72C970FB6F894DEBF0FBECDBF41
:100C90009A838983FB01C080D180E280F3808480C5
:100CA0009580A680B7800085118582858C87838595
:100CB0008B8720E030E0A901C501B4010E94C41671
:100CC000882309F40DC120E030E0A901C701B60175
:100CD0000E94C41620E030E040E85FE387FF79C05F
:100CE000C701B6010E9436186B017C0120E030E09C
:100CF00040EC50E4C701B6010E942A176B017C0149
:100D00000E9414191B01072E000C880B990B0E94DE
:100D1000CB169B01AC01C701B6010E9435182B010F
:100D20003C01AC019B01C501B4010E942A179B0143
:100D3000AC0160E070E080E89FE30E943518980104
:100D40004C855B850E942A176B837C838D839E83F1
:100D5000A501940160E070E080E89FE30E943518EF
:100D600098014C855B850E942A176B017C016F837B
:100D7000D8868987FA86A301920160E070E080E856
:100D80009FE30E943518A50194010E942A179B0138
:100D9000AC0160E070E080E89FE30E9435189801A4
:100DA0004C855B850E942A174B015C01E2E02E1600
:100DB000310409F47BC0E4F421143104B1F12A9424
:100DC000232851F146015701CB80DC80ED80FE8065
:100DD0002CC0C701B6010E944A1987FD87CF20E0C9
:100DE00030E040E85FE3C701B6010E9435187CCFD0
:100DF000E3E02E16310409F465C0F4E02F16310447
:100E000009F76801EC84FB848B018C87BB868F809B
:100E10009884A984BA8409C04801AC84BB840B813E
:100E20001C818D818C87EE81EB8720E030E04FE7DD
:100E300053E4B8018C859B850E942A170E941B19D8
:100E4000E981FA81608320E030E04FE753E4B401A8
:100E5000C5010E942A170E941B19E981FA8161834A
:100E600020E030E04FE753E4B601C7010E942A17A3
:100E70000E941B19E981FA8162832C960FB6F894BF
:100E8000DEBF0FBECDBFDF91CF911F910F91FF90BD
:100E9000EF90DF90CF90BF90AF909F908F907F901A
:100EA0006F905F904F903F902F9008956B017C0161
:100EB0004801AC84BB840F811885F985FC878A853D
:100EC0008B87B3CF8B809C80AD80BE806801EC8423
:100ED000FB840F811885E985EC87FA85FB87A5CF10
:100EE0004801AC84BB84680175019FCF60E070E06D
:100EF00080E00C94DA044F925F926F927F928F920F
:100F00009F92AF92BF92CF92DF92EF92FF920F9398
:100F10001F93CF93DF9300D01F92CDB7DEB7290187
:100F20003A01470158012091AC013091AD01409147
:100F3000AE015091AF010E9436186B017C0120E098
:100F400030E0A9010E94C41687FD84C020E030E093
:100F500040E85FE3C701B6010E944A1918160CF475
:100F60007DC0C092AC01D092AD01E092AE01F09292
:100F7000AF012091B0013091B1014091B201509187
:100F8000B301C301B2010E9436186B017C0120E05D
:100F900030E0A9010E94C41687FD67C020E030E060
:100FA00040E85FE3C701B6010E944A1918160CF425
:100FB00060C0C092B001D092B101E092B201F09253
:100FC000B3012091B4013091B5014091B601509127
:100FD000B701C501B4010E9436186B017C0120E005
:100FE00030E0A9010E94C41687FD4AC020E030E02D
:100FF00040E85FE3C701B6010E944A1918160CF4D5
:1010000043C0C092B401D092B501E092B601F09213
:10101000B7016CEA71E0CE0101960E942E0669814B
:101020007A818B810E9433010E9428040F900F90D7
:101030000F90DF91CF911F910F91FF90EF90DF9074
:10104000CF90BF90AF909F908F907F906F905F9068
:101050004F900895C12CD12C760183CFC12CD12C77
:1010600020E8E22E2FE3F22E7CCFC12CD12C76018A
:10107000A0CFC12CD12C90E8E92E9FE3F92E99CF77
:10108000C12CD12C7601BDCFC12CD12C80E8E82E0B
:101090008FE3F82EB6CFCF93DF93CDB7DEB72F9780
:1010A0000FB6F894DEBF0FBECDBF8093B80181307C
:1010B00091F058F0823061F02F960FB6F894DEBFB1
:1010C0000FBECDBFDF91CF9108950E947607F4CF78
:1010D00084E6809300018CE0ECEAF1E0DE011196F9
:1010E00001900D928A95E1F7BE016F5F7F4FCE01AF
:1010F0000D960E942E066D857E858F850E94DA04EE
:10110000DBCF8F929F92AF92BF92CF92DF92EF92FE
:10111000FF920F931F93CF93DF93CDB7DEB72F9737
:101120000FB6F894DEBF0FBECDBF9091B8019230DC
:1011300049F410910001180F1093000117FF15C01A
:10114000109200012F960FB6F894DEBF0FBECDBFF0
:10115000DF91CF911F910F91FF90EF90DF90CF9093
:10116000BF90AF909F908F900895153624F084E63D
:1011700080930001E7CF60E070E080E00E943301DF
:10118000812F64E10E944F19092F812F110F990BB4
:10119000801B910907FD939564E170E00E945D1941
:1011A0006B01162FF12CE12CCE14DF0481F06CEAD8
:1011B00071E0CE0101960E942E0649815A816B8111
:1011C000C7010E9450018FEFE81AF80AEDCF1530E1
:1011D00009F449C0002309F446C0602F000F770BC3
:1011E000880B990B0E94CB162091B4013091B50168
:1011F0004091B6015091B7010E942A1723E333E3CF
:1012000043E251E40E942A1720E030E04FE753E424
:101210000E94A2180091B0011091B1012091B20179
:101220003091B3018090AC019090AD01A090AE01DF
:10123000B090AF0189829A82AB82BC820D831E83FB
:101240002F83388769877A878B879C87BE016F5F7A
:101250007F4FCE010D960E942E064D855E856F85CF
:10126000C6010E9450010E9428046CCFCF92DF92E9
:10127000EF92FF920F931F93CF93DF936C01EB01DB
:101280007B01E40EF51E10E000E0CE15DF0581F0D5
:1012900069916D30D1F3D601ED91FC910190F0810F
:1012A000E02DC6010995892B19F00F5F1F4FEDCF77
:1012B000C801DF91CF911F910F91FF90EF90DF90C8
:1012C000CF90089520E2260F283080F4FC01E359E6
:1012D000FF4F605E770B21E030E001C0220F6A957E
:1012E000EAF7209530812323208360E0FC01E15957
:1012F000FF4F26E0662321F03081361301C01082B3
:10130000215031962111F6CF83599F4F0E94EB0552
:1013100081E090E0089520E2260F283078F4FC0167
:10132000E359FF4F605E770B41E050E001C0440F8E
:101330006A95EAF72081242B208360E0FC01E159C3
:10134000FF4F2081261709F1DC01A059BF4F2C91D6
:101350002617D9F011962C912617B9F011962C91D9
:10136000261799F011962C91261779F011962C9149
:10137000261759F030E020E0419141110DC0280FAF
:10138000391FF901E159FF4F608383599F4F0E9434
:10139000EB0581E090E008952F5F3F4F2630310547
:1013A00059F721E030E0FC013383228390E080E0B4
:1013B0000895EF92FF921F93CF93DF93EC01162FC6
:1013C0000E948B097C01612FCE010E946209C70136
:1013D0009927DF91CF911F91FF90EF900895089585
:1013E00090E080E00895CF93C82F60E00E94D20380
:1013F00060E08C2FCF910C94A403DC01FB0188E406
:10140000808389E4818384E482831D969C911D9767
:101410009F709F5B93831D968D919C9124E0969580
:1014200087952A95E1F78F708F5B848385E0089517
:10143000EF92FF920F931F93CF93DF93FB012081D5
:10144000213871F52381223259F5DC0112964C9135
:10145000248135814217130619F5EC010B851C8593
:10146000F12CE12C0115110589F0F8014481558119
:101470006281738180E80E94EE018F3F980749F0F6
:10148000E80EF91ED8010D911C91ECCF81E08F87F9
:10149000C701DF91CF911F910F91FF90EF900895B9
:1014A00090E080E0F6CFCF93DF93CDB7DEB76997BA
:1014B0000FB6F894DEBF0FBECDBFFC01DB018C91EF
:1014C0008F5F8C939E012D5F3F4F8DE0D9011D9260
:1014D0008A95E9F729E0298384E08A8391E09D8356
:1014E00083E08E832A8721E22B879C879D879F87B5
:1014F00022E2288B27E02B8B25E02C8B8E8B20E49F
:1015000030E0388F2F8B998F82818B8395858685EC
:10151000998B8A8B838180688D8B49E150E0BE0175
:101520006F5F7F4F80E00E94EE0169960FB6F894DE
:10153000DEBF0FBECDBFDF91CF910895EF92FF9236
:101540000F931F93CF93DF937C018C01C8ECD0E005
:10155000CE010E94E817F80181938F012196C133D3
:10156000F1E0DF07A9F7C701DF91CF911F910F913C
:10157000FF90EF900895FC0101900020E9F731976A
:10158000AF01481B590BBC0185ED91E00C940F068F
:101590008F929F92AF92BF920F931F93CF93DF933F
:1015A000CDB7DEB7A1970FB6F894DEBF0FBECDBFA3
:1015B00019A2423008F44AE08E010F5D1F4F842EBD
:1015C000912CB12CA12CA50194010E947119E62F38
:1015D000B901CA01EA30F4F4E05DD801EE938D015F
:1015E000232B242B252B79F790E080E0109719F01E
:1015F000CD010E94BB0AA1960FB6F894DEBF0FBEC4
:10160000CDBFDF91CF911F910F91BF90AF909F9071
:101610008F900895E95CE1CF0F931F93CF93DF93F1
:10162000EC0188819981009759F02A813B81261726
:10163000370730F081E0DF91CF911F910F9108952E
:101640008B016F5F7F4F0E94DE1A009759F09983DC
:1016500088831B830A832C813D81232B59F7FC014E
:101660001082E8CF80E0E7CFCF93DF93EC01888151
:101670009981009711F00E94551A198218821D82D3
:101680001C821B821A82DF91CF9108950F931F93C2
:10169000CF93DF93EC010C811D810B5F1F4FB801CD
:1016A0000E940C0B882391F0288139818C819D81C7
:1016B0006BE471E0820F931F0E94A41B1D830C83B7
:1016C000CE01DF91CF911F910F910895CE010E941D
:1016D000340BF6CFEF92FF920F931F93CF93DF93CC
:1016E000EC017B01198218821B821A821D821C82E6
:1016F000FB0101900020E9F731978F01061B170BC2
:10170000B8010E940C0B811109C0CE01DF91CF916D
:101710001F910F91FF90EF900C94340B1D830C835D
:10172000B70188819981DF91CF911F910F91FF902F
:10173000EF900C94A41BCF92DF92EF92FF920F9345
:101740001F93CF93DF93CDB7DEB729970FB6F894E9
:10175000DEBF0FBECDBF8C01862FF8011182108233
:1017600013821282158214824AE09E012F5F3F4F3E
:101770006901B90190E00E949A16F60101900020DB
:10178000E9F731977F01EC18FD08B701C8010E9405
:101790000C0B811112C0C8010E94340B29960FB6A0
:1017A000F894DEBF0FBECDBFDF91CF911F910F9197
:1017B000FF90EF90DF90CF900895F801F582E482DA
:1017C000B601808191810E94A41BE8CFEF92FF9225
:1017D0000F931F93CF93DF93EC01FB01E080F18027
:1017E000E114F10411F10481158101151105A9F02D
:1017F0008C819D81080F191FB801CE010E940C0B2E
:10180000882399F0288139818C819D81B701820FCD
:10181000931F0E94A41B1D830C83CE01DF91CF91E7
:101820001F910F91FF90EF900895CE010E94340B0D
:10183000F4CFFC0180819181009711F00C94551A2E
:101840000895BF92CF92DF92EF92FF920F931F9372
:10185000CF93DF93CDB7DEB761970FB6F894DEBFB5
:101860000FBECDBFB82E25E0289FC0011124815A9C
:101870009D4FFC01DE011D9601900D922A95E1F726
:10188000FC018081811133C08E01025F1F4F6E0108
:10189000F2E1CF0ED11CF801F1908F01FF20B9F0D9
:1018A00081E591E00E94BB0A6F2D70E090E080E03E
:1018B00040E10E94C80A8EE591E00E94BB0A6F2DAC
:1018C0008BE592E00E946209C016D10621F761966D
:1018D0000FB6F894DEBF0FBECDBFDF91CF911F9141
:1018E0000F91FF90EF90DF90CF90BF9008958130DF
:1018F00071F76E01FDE0CF0ED11C7E0181E1E80E93
:10190000F11CF60101816281102F062F01151105CE
:10191000F1F2E0EDF2E0819191910817190721F4BD
:10192000DF0112971D921C9282E0E83DF80799F7BB
:101930000E94FF056B2DCE0107960E949B0B61E66E
:1019400071E0CE0101960E946A0BBE01695F7F4F74
:10195000CE0101960E94E60B0E94460B0E942506CE
:10196000CE0101960E94190CCE0107960E94190C17
:10197000B80190E080E040E10E94C80A8EE591E065
:101980000E94BB0AE2E0CE0ED11CEC14FD0409F467
:101990009ECFB7CFFF920F931F93CF93DF93EC01AE
:1019A000F62E08811981C8010E94E817F81621F067
:1019B0006F2DC8010E94F017CE01DF91CF911F91CA
:1019C0000F91FF9008959F92AF92BF92CF92DF92B6
:1019D000EF92FF920F931F93CF93DF93CDB7DEB7B4
:1019E00067970FB6F894DEBF0FBECDBF982E8091DB
:1019F000B901492D50E0882309F4E3C082E189153B
:101A000008F4DFC0FA01E95FF24F0C9493191A0D44
:101A1000E10D800D840DE10DE10D860D880D8A0D1F
:101A20008F0D930DE10DE10DE10DE10DE10DE10DE6
:101A3000950DBF0D6CEAE62E61E0F62E04E610E08F
:101A40001A830983F70161917F01CE0101960E94FB
:101A5000CA0C0F5F1F4F0037110591F71A821982C8
:101A60006091B801CE0101960E94CA0C60E070E05E
:101A700080E00E94DA0464E670E080E090E00E947A
:101A8000A70460E07FEF80E00E94DA0464E670E083
:101A900080E090E00E94A70460E070E080E00E9497
:101AA000DA0464E670E080E090E00E94A7048CE035
:101AB000ECEAF1E0DE01119601900D928A95E1F7D2
:101AC000BE016F5F7F4FCE010D960E942E066D8581
:101AD0007E858F850E94DA041092B90167960FB651
:101AE000F894DEBF0FBECDBFDF91CF911F910F9154
:101AF000FF90EF90DF90CF90BF90AF909F900895B0
:101B000081E080938E01EACF82E0FBCF83E0F9CFC2
:101B100084E0F7CF1092B8010E947607DFCF81E012
:101B20000E944B08DBCF82E0FBCF80918E01833097
:101B300081F08430C1F0823089F6E12CF12C8701EC
:101B4000A80197016AE077ED83EA9CEB0E947B078E
:101B5000C5CFE12CF12C87012DEC3CEC4CE45DEB86
:101B6000C801B701F3CF1DECE12E1CECF12E0CE403
:101B70001DEB20E030E0A901CA01B901E7CF809157
:101B80008E01833079F08430A9F0823009F0A6CF3D
:101B9000E12CF12C8701A80197016AE077ED83EA37
:101BA0009CE3D4CFE12CF12C87012DEC3CEC4CE4F0
:101BB0005DE3D6CF1DECE12E1CECF12E0CE41DE311
:101BC000D8CF25E0249FC001259F900D1124815A74
:101BD0009D4FFC01DE01539601900D922A95E1F78D
:101BE000FC01808181113FC08E010C5E1F4F6E0190
:101BF000F8E1CF0ED11CF801F1908F01FF2009F41C
:101C00006DCF692DCE010D960E949B0B63E771E0AD
:101C1000CE0101960E946A0BBE01635F7F4FCE0129
:101C200001960E94E60B0E94460B0E942506CE01FB
:101C300001960E94190CCE010D960E94190C6F2D71
:101C400070E090E080E040E10E94C80A8EE591E0FB
:101C50000E94BB0A6F2D8BE592E00E948B090C1548
:101C60001D0549F63BCF813009F038CF7E01F3E105
:101C7000EF0EF11C5E0187E1A80EB11CCC24C394C9
:101C8000D12CF70101816281102F062F011511055A
:101C900009F424CF8091D0029091D102081719073E
:101CA00021F18091D2029091D30208171907E9F02F
:101CB0008091D4029091D50208171907B1F0809154
:101CC000D6029091D7020817190779F0E0EDF2E0FB
:101CD00090E080E021913191232BC9F5880F991F65
:101CE000FC01E053FD4F118300830E94FF05692D25
:101CF000CE010D960E949B0B6EE771E0CE0101961E
:101D00000E946A0BBE01635F7F4FCE0101960E9465
:101D1000E60B0E94460B0E942506CE0101960E940A
:101D2000190CCE010D960E94190CB80190E080E0CC
:101D300040E10E94C80A8EE591E00E94BB0AF2E0F1
:101D4000EF0EF11CAE14BF0409F4C8CE9ACF019671
:101D50008430910509F0BECFD0925E02C0925D0240
:101D6000C6CFAF92BF92CF92DF92EF92FF920F93C6
:101D70001F93CF93DF93CDB7DEB7CC53D1400FB6CF
:101D8000F894DEBF0FBECDBFDC01FB01EDB6FEB6A1
:101D900012962C911297848195812817190609F0C3
:101DA00062C0218180819281C45CDE4F9883CC53D4
:101DB000D140813A09F059C0213009F050C08381E7
:101DC000833021F49330D1F0943079F181E00FB673
:101DD000F894FEBE0FBEEDBEC45CDE4F0FB6F894A5
:101DE000DEBF0FBECDBFDF91CF911F910F91FF904E
:101DF000EF90DF90CF90BF90AF900895198288E761
:101E00008A831B8288E68C8341E050E0BE01645CDB
:101E10007E4F80E00E94EE0144E050E0BE016F5F23
:101E20007F4F80E00E94EE01D1CFCE0186599F4FB7
:101E30000E949E0A89E6FE01E659FF4FDE011196D7
:101E400001900D928A95E1F741E050E0BE01645C9B
:101E50007E4F80E00E94EE0149E650E0DFCF81E056
:101E6000233009F4B4CF80E0B2CF8132E1F72B30D8
:101E700019F41F969C93AACF2A3019F450969C937C
:101E8000A5CF293081F7943071F766817781CDB67F
:101E9000DEB68DB79EB7861B970B0FB6F8949EBF24
:101EA0000FBE8DBF0DB71EB70F5F1F4FC8010E9439
:101EB000950189E6F8013196DE01AD52BF4F0190E0
:101EC0000D928A95E1F7FE01ED52FF4F5F0108EC9C
:101ED00010E01A830983F50161915F01CE0101963B
:101EE0000E94CA0C0F5F1F4F0133F1E01F0789F7F3
:101EF00089E6FE01ED52FF4FDE01A659BF4F01906A
:101F00000D928A95E1F789E6FE01E659FF4FDE0161
:101F1000119601900D928A95E1F789E6FE013196BE
:101F2000AFE5B2E001900D928A95E1F70FB6F89413
:101F3000DEBE0FBECDBE97CF1F920F920FB60F928F
:101F400011248F939F938091E1009091E100937F02
:101F50009093E10083FF0FC01092E90091E090930D
:101F6000EB001092EC0092E39093ED001092D401FC
:101F700098E09093F00082FF1CC093E09093E900FA
:101F80009091F200992319F09AE39093E8009091D0
:101F9000A901992329F09091A90191509093A90149
:101FA0009091D301992329F09091D301915090936E
:101FB000D30184FF18C08091E2008E7E81608093FF
:101FC000E2008091E1008F7E8093E1008091AA0180
:101FD0008E7E80618093AA019F918F910F900FBE9A
:101FE0000F901F90189580FFF7CF8091E2008E7EB2
:101FF00080618093E2008091E1008E7E8093E10019
:102000008091AA018E7E8160E5CF1F920F920FB65C
:102010000F921124CF92DF92EF92FF920F931F93B2
:102020002F933F934F935F936F937F938F939F93E0
:10203000AF93BF93EF93FF93CF93DF93CDB7DEB70B
:102040006C97DEBFCDBF1092E9008091E80083FF5E
:102050002FC089E0FE017596EE2EDF2E815029F00B
:102060009091F10090833196F9CF84E68093D3016B
:1020700082EF8093E8008D8987FF39C09091E80056
:1020800090FFFCCF982F907609F033C19E894F893D
:10209000588D2F89F88C911131C0803861F580916D
:1020A000AB018093F1001092F1008EEF8093E80075
:1020B0006C960FB6F894DEBF0FBECDBFDF91CF9107
:1020C000FF91EF91BF91AF919F918F917F916F9110
:1020D0005F914F913F912F911F910F91FF90EF9042
:1020E000DF90CF900F900FBE0F901F9018959EEF2E
:1020F0009093E800C7CF1092F100D5CF913059F4FA
:102100008111D3CF4130510581F68091AB018D7F94
:102110008093AB01CACF933049F48111C6CF4130CF
:10212000510519F68091AB018260F2CF953041F4F0
:102130008091E80080FFFCCF20682093E300B5CFBA
:10214000963009F0A8C00B8D1C8D22E01092E9009A
:102150001092A7011092A601F2122EC01092A501B2
:102160001092A4010E94A2021F8299E09983FA8230
:1021700091E09E8390EA98879AEF99872091A60133
:102180003091A701275F3F4F3C832B838D831092B3
:10219000E9001092A7011092A6011093A5010093E7
:1021A000A40149E050E0BE016F5F7F4F80E00E94D4
:1021B000EE010E94A20279CF1093A5010093A40121
:1021C0000E942502DC0112960D911C91011511054A
:1021D00009F449C1D801ED91FC910480F581E02D0D
:1021E0006E2D7D2DC8010995009709F037C1F801C2
:1021F00000851185EBCFF3E0FF120EC08F89882395
:1022000009F440C0823061F440E86CE088E491E079
:102210000E948312811149CF81E28093EB0048CF65
:10222000813029F440E869E08EE391E0F1CF83301A
:1022300099F70E942502DC011296ED90FC908E0128
:102240000F5F1F4F6801E114F10479F0D701ED91A0
:10225000FC910680F781E02DB801C7010995080FB0
:10226000111DF701E084F184EECFD8011C92F60134
:1022700001900020E9F73197BF016C197D0940E01A
:10228000C601C6CF68E271E0FB01449150E080E8EE
:102290000E94EE010ACF973009F4BECF983021F4A6
:1022A00081E08093F10001CF993009F0FECE837078
:1022B00009F0B2CFEEE0F1E081E031E096E3219168
:1022C000222371F08093E9003093EB00DF01119736
:1022D0002C912093EC009093ED008F5F873079F77D
:1022E0008EE78093EA001092EA008F898093D401F0
:1022F000DCCE8B8D9C8D1092E9001092A70110927C
:10230000A6019093A5018093A401898D81118CC0B1
:102310008E899D89913A49F4813209F07DCF47E059
:1023200050E065E071E080E0B3CF913209F074CF06
:10233000833269F48F89988DB0E0A0E08093010129
:1023400090930201A0930301B0930401AECE8032BA
:1023500039F467E070E085E091E00E949501A5CE38
:10236000823209F0A2CE8F8980930C01EEEFFFE755
:10237000859194918B3F9C4D51F1E0E0F8E0809184
:10238000050190910601A0910701B0910801803BE1
:102390009440A105B105F1F480910C0180FD1AC0B3
:1023A000EE3F8AE0F80789F587E797E79183808316
:1023B000809160008093A80188E19BE00FB6F894BB
:1023C000A895809360000FBE909360006ECEEEEFF4
:1023D000FAE0D5CF808191818737974709F065CEA4
:1023E000A895809160008861809360008091A80129
:1023F00080936000EE3F2AE0F20789F08091FE0AA8
:102400009091FF0A9183808350CE8081918187379C
:10241000980751F29093FF0A8093FE0AC5CF10925D
:10242000FF0A1092FE0A41CE0E942502DC0112969C
:102430000D911C910115110509F4EECED801ED9115
:10244000FC910190F081E02D6E2D7D2DC801099544
:1024500081112BCEF80100851185ECCF18161906D5
:102460000CF423CED9CEF1E0FF12C5CE6CE271E0C0
:102470000BCF1F920F920FB60F9211242F933F9301
:102480008F939F93AF93BF9380919001909191010F
:10249000A0919201B091930130918F0123E0230F1D
:1024A0002D3758F50196A11DB11D20938F01809302
:1024B000900190939101A0939201B0939301809128
:1024C000940190919501A0919601B0919701019688
:1024D000A11DB11D8093940190939501A093960145
:1024E000B0939701BF91AF919F918F913F912F91A1
:1024F0000F900FBE0F901F90189526E8230F02969D
:10250000A11DB11DD2CFEF92FF920F931F93CF93D6
:10251000DF93F82E192FE62E042F81E0860F880F07
:102520000E94C00183E00E94C001CF2DD12FEC0E8C
:10253000FD2EF11CCE15DF05B9F007FF13C0FE011B
:1025400084910E94C001182F80E00E94C001812365
:1025500021968111EFCFDF91CF911F910F91FF90C5
:10256000EF9008958881EDCF81E0F5CF1F93CF9351
:10257000DF93CDB7DEB7C956D1090FB6F894DEBFE9
:102580000FBECDBF1092D8011092D70188EE93E014
:10259000A0E0B0E08093D9019093DA01A093DB0131
:1025A000B093DC0181E391E09093D6018093D50153
:1025B0008FEF9FEF9093E2018093E10184E090E040
:1025C0009093260280932502109227028CE090E0DF
:1025D000909329028093280211E010932A0210920E
:1025E0003202109231021092330261E081E00E94C7
:1025F000D20380912802909129020E94B9199093E8
:10260000300280932F02E2E8F1E0E491F0E0EE0F77
:10261000FF1FED58FE4F8591949190933202809365
:102620003102E6E5F1E0E491E093330210925E02BC
:1026300010925D0283E491E090935C0280935B02D0
:1026400080915302811112C010924E0210924D02DD
:102650008FE991E09093500280934F028EE690E0D4
:10266000909352028093510210935302809145023D
:10267000811105C00E94390281E080934502E091FA
:102680003F02F0914002309769F58DE492E090931B
:10269000400280933F02809141029091420220913A
:1026A000510230915202820F931F90934202809305
:1026B0004102CE0101960E949E0A89E6FE013196F2
:1026C000AFE5B2E001900D928A95E1F7C759DF4F6F
:1026D0000FB6F894DEBF0FBECDBFDF91CF911F9133
:1026E0000895FC01808191810097D9F78DE492E0F3
:1026F00091838083D0CFCF93DF93CDB7DEB72F9771
:102700000FB6F894DEBF0FBECDBF789484B582605B
:1027100084BD84B5816084BD85B5826085BD85B585
:10272000816085BD80916E00816080936E00109203
:10273000810080918100826080938100809181007E
:10274000816080938100809180008160809380000F
:1027500080919100826080939100809191008160CE
:10276000809391008091900081608093900080918F
:10277000C10084608093C1008091C1008260809319
:10278000C1008091C10081608093C1008091C3002D
:1027900081608093C3008091C00082608093C000FC
:1027A0008091C20081608093C20080917A00846031
:1027B00080937A0080917A00826080937A00809181
:1027C0007A00816080937A0080917A00806880939B
:1027D0007A001092D4011092AB011092AA0180915C
:1027E000D70081608093D70080EA8093D80089B5B4
:1027F000806189BD89B5826089BD09B400FEFDCFC5
:1028000061E070E080E090E00E94A7048091D80031
:102810008F7C80618093D8008091E000807F8093DE
:10282000E0008091E1008E7E8093E1008DE0809356
:10283000E2008FEF9FEF9093E2018093E10182E04D
:102840000E94F30983E00E94F30980E00E94F309EB
:102850008CE00E94F30989E00E94F30985E00E9460
:10286000F3098AE00E94F30988E00E94F30984E0FA
:102870000E94F30986E00E94F30961E08DE00E9466
:10288000D20361E08DE00E94A40361E082E10E9436
:10289000D20361E082E10E94A40361E083E10E942F
:1028A000D20361E083E10E94A4035EE1C52E51E002
:1028B000D52E0AE111E0C016D10661F0F801F190C1
:1028C0008F0160E08F2D0E94D20361E08F2D0E9466
:1028D000A403F1CF8CE00E947B0321E0892B09F453
:1028E00020E02093BD0189E00E947B0321E0892B39
:1028F00009F420E02093BC0182E00E947B0321E0E8
:10290000892B09F420E02093BB0183E00E947B0324
:1029100021E0892B09F420E02093BA0161E081E0F5
:102920000E94D2034CEAE42E41E0F42E04E610E0CB
:10293000C8010E94E817F70181937F010F5F1F4FC5
:1029400000371105A9F790E080E00E94E817809316
:10295000B80160E070E080E00E94DA0464E670E0B4
:1029600080E090E00E94A7046FEF70E088EC0E9486
:10297000DA0464E670E080E090E00E94A70460E082
:1029800070E080E00E94DA0464E670E080E090E0AD
:102990000E94A7046FEF7FEF8FEF0E94FF0464E6B1
:1029A00070E080E090E00E94A70460E070E080E0CA
:1029B0000E94FF0464E670E080E090E00E94A704BB
:1029C0006FEF70E088EC0E94DA0464E670E080E06B
:1029D00090E00E94A70460E070E080E00E94DA04CA
:1029E00064E670E080E090E00E94A7048091B80166
:1029F0000E944B081092B90121E2622E21E0722E52
:102A000030E0832E30E0932E9AE1A92E91E0B92E8A
:102A100010E000E0502E8EE1E82E81E0F82E6E14DA
:102A20007F0409F444C00330110529F4F0E2EF16E5
:102A3000F1E0FF0699F1F701408061E0842D0E94EA
:102A4000D20360E0842D0E94A403852D90E09C01B8
:102A500022543E4F6901F9013080F50180810E94C6
:102A60007B033816190691F4852D3320E9F00E9476
:102A7000210C81E0F6019081911180E0F6018083C4
:102A80006AE070E080E090E00E94A70461E0842D9D
:102A90000E94D20361E0842D0E94A403FFEFEF1A8D
:102AA000FF0A24E0520EBBCF0E94E30CE2CF0F5F7F
:102AB0001F4F3FEFA31AB30A0430110509F0AACF44
:102AC00085E00E947B032091CD012817190679F437
:102AD000222309F487C08091C901882309F460C0CA
:102AE0008BE00E94210C1092C9011092CD0180E070
:102AF0000E947B032091CE012817190641F422235E
:102B000009F4A7C080E10E94210C1092CE018CE054
:102B10000E947B032091BD0128171906D1F089E09E
:102B20000E947B032091BC012817190609F4E7C015
:102B300081E10E94E30C81E10E94210C9091BD0192
:102B400021E092279093BD018091BC018227809360
:102B5000BC0182E00E947B032091BB01281719066B
:102B600009F4BFC083E00E947B032091BA012817BB
:102B7000190609F4C9C08BEF0E94810883E10E9405
:102B8000E30C83E10E94210C9091BA0121E092278D
:102B90009093BA018091BB0182278093BB01A1C0B1
:102BA0008091CA01882331F08CE00E94210C1092A0
:102BB000CA019BCF8091CB01882331F08DE00E9428
:102BC000210C1092CB0191CF8091CC01882331F060
:102BD0008EE00E94210C1092CC0187CF8FE00E94E2
:102BE000210C83CF8AE00E947B03892B51F48BE078
:102BF0000E94E30C81E08093C90181E08093CD01C4
:102C000076CF88E00E947B03892B39F48CE00E9408
:102C1000E30C81E08093CA01F0CF84E00E947B0343
:102C2000892B39F48DE00E94E30C81E08093CB0185
:102C3000E4CF86E00E947B03892B39F48EE00E946A
:102C4000E30C81E08093CC01D8CF8FE00E94E30CAD
:102C5000D4CF8091C101882309F44AC08091C50175
:102C6000882309F445C060E070E080E00E94DA0447
:102C700064E670E080E090E00E94A7046FEF7FEFD1
:102C80008FEF0E94DA0464E670E080E090E00E943A
:102C9000A70460E070E080E00E94DA048091B8014F
:102CA00081508230D8F464E670E080E090E00E94C9
:102CB000A7048CE0ECEAF1E0DE01119601900D92A0
:102CC0008A95E1F7BE016F5F7F4FCE010D960E949E
:102CD0002E066D857E858F850E94DA0481E08093C3
:102CE000B9018114910409F48FCE0E9400008CCEAA
:102CF00080E10E94E30C81E08093CE0108CF82E165
:102D00000E94E30C82E118CF85E00E94810884E1F3
:102D10000E94E30C84E136CFCF93DF93C5E2D2E08B
:102D200060E08D810E94D2038A859B85DF91CF91DF
:102D30000C94551ABB27FB015527AA27880F991F0A
:102D4000AA1FA41710F0A41B83955051B9F7A05DDA
:102D5000AA3308F0A95DA193009779F7B111B19357
:102D60001192CB010C94B416DC01FC01672F719118
:102D70007723E1F7329704C07C916D937083629161
:102D8000AE17BF07C8F308950E94061708F481E044
:102D90000895E89409C097FB3EF49095809570954E
:102DA00061957F4F8F4F9F4F9923A9F0F92F96E997
:102DB000BB279395F695879577956795B795F1110C
:102DC000F8CFFAF4BB0F11F460FF1BC06F5F7F4FA9
:102DD0008F4F9F4F16C0882311F096E911C07723BB
:102DE00021F09EE8872F762F05C0662371F096E8C4
:102DF000862F70E060E02AF09A95660F771F881F93
:102E0000DAF7880F9695879597F90895990F000836
:102E1000550FAA0BE0E8FEEF16161706E807F907AC
:102E2000C0F012161306E407F50798F0621B730B47
:102E3000840B950B39F40A2661F0232B242B252BC8
:102E400021F408950A2609F4A140A6958FEF811D6B
:102E5000811D08950E943D170C94AE170E94A01783
:102E600038F00E94A71720F0952311F00C949717C3
:102E70000C949D1711240C94E2170E94BF1770F355
:102E8000959FC1F3950F50E0551F629FF001729F0F
:102E9000BB27F00DB11D639FAA27F00DB11DAA1F1E
:102EA000649F6627B00DA11D661F829F2227B00D6B
:102EB000A11D621F739FB00DA11D621F839FA00DF6
:102EC000611D221F749F3327A00D611D231F849F46
:102ED000600D211D822F762F6A2F11249F5750409D
:102EE0009AF0F1F088234AF0EE0FFF1FBB1F661F18
:102EF000771F881F91505040A9F79E3F510580F0E1
:102F00000C9497170C94E2175F3FE4F3983ED4F3C8
:102F1000869577956795B795F795E7959F5FC1F784
:102F2000FE2B880F911D9695879597F9089597F92F
:102F30009F6780E870E060E008959FEF80EC08955F
:102F400000240A9416161706180609060895002488
:102F50000A9412161306140605060895092E039402
:102F6000000C11F4882352F0BB0F40F4BF2B11F476
:102F700060FF04C06F5F7F4F8F4F9F4F089557FDD5
:102F80009058440F551F59F05F3F71F04795880FD7
:102F900097FB991F61F09F3F79F08795089512166E
:102FA00013061406551FF2CF4695F1DF08C016161A
:102FB00017061806991FF1CF8695710561050894CB
:102FC0000895E894BB2766277727CB0197F90895E2
:102FD000F999FECF92BD81BDF89A992780B50895E1
:102FE000262FF999FECF1FBA92BD81BD20BD0FB625
:102FF000F894FA9AF99A0FBE019608952F923F928B
:103000004F925F926F927F928F929F92AF92BF92F8
:10301000CF92DF92EF92FF920F931F93CF93DF93A4
:10302000CDB7DEB7CA1BDB0B0FB6F894DEBF0FBE01
:10303000CDBF09942A88398848885F846E847D844E
:103040008C849B84AA84B984C884DF80EE80FD8050
:103050000C811B81AA81B981CE0FD11D0FB6F894C6
:10306000DEBF0FBECDBFED0108955058BB27AA2784
:103070000E944D180C94AE170E94A01738F00E94C1
:10308000A71720F039F49F3F19F426F40C949D17EC
:103090000EF4E095E7FB0C949717E92F0E94BF17F9
:1030A00058F3BA17620773078407950720F079F47D
:1030B000A6F50C94E1170EF4E0950B2EBA2FA02D77
:1030C0000B01B90190010C01CA01A0011124FF27D5
:1030D000591B99F0593F50F4503E68F11A16F040D0
:1030E000A22F232F342F4427585FF3CF46953795CF
:1030F0002795A795F0405395C9F77EF41F16BA0B94
:10310000620B730B840BBAF09150A1F0FF0FBB1F41
:10311000661F771F881FC2F70EC0BA0F621F731F8A
:10312000841F48F4879577956795B795F7959E3FE7
:1031300008F0B0CF9395880F08F09927EE0F979578
:10314000879508950E94B6180C94AE170E94A71791
:1031500058F00E94A01740F029F45F3F29F00C942A
:10316000971751110C94E2170C949D170E94BF17EA
:1031700068F39923B1F3552391F3951B550BBB27A6
:10318000AA2762177307840738F09F5F5F4F220FEB
:10319000331F441FAA1FA9F335D00E2E3AF0E0E8E2
:1031A00032D091505040E695001CCAF72BD0FE2F2C
:1031B00029D0660F771F881FBB1F261737074807C0
:1031C000AB07B0E809F0BB0B802DBF01FF27935878
:1031D0005F4F3AF09E3F510578F00C9497170C948E
:1031E000E2175F3FE4F3983ED4F3869577956795B1
:1031F000B795F7959F5FC9F7880F911D96958795AD
:1032000097F90895E1E0660F771F881FBB1F6217CB
:1032100073078407BA0720F0621B730B840BBA0B89
:10322000EE1F88F7E09508950E941B196894B1116C
:103230000C94E21708950E94C71788F09F5798F0E2
:10324000B92F9927B751B0F0E1F0660F771F881FAB
:10325000991F1AF0BA95C9F714C0B13091F00E94C5
:10326000E117B1E008950C94E117672F782F8827B4
:10327000B85F39F0B93FCCF3869577956795B395EC
:10328000D9F73EF490958095709561957F4F8F4F5B
:103290009F4F08950E94061708F48FEF089587FB4B
:1032A000082E062687FD819567FD61950E94991974
:1032B0000EF4919507FC8195089597FB072E16F45F
:1032C000009407D077FD09D00E94A51907FC05D00E
:1032D0003EF4909581959F4F0895709561957F4F2D
:1032E0000895A1E21A2EAA1BBB1BFD010DC0AA1F47
:1032F000BB1FEE1FFF1FA217B307E407F50720F05F
:10330000A21BB30BE40BF50B661F771F881F991FD9
:103310001A9469F760957095809590959B01AC0122
:10332000BD01CF010895EE0FFF1F0590F491E02D30
:103330000994991B79E004C0991F961708F0961B11
:10334000881F7A95C9F780950895AA1BBB1B51E188
:1033500007C0AA1FBB1FA617B70710F0A61BB70B05
:10336000881F991F5A95A9F780959095BC01CD01AA
:1033700008950F931F93CF93DF938230910510F43C
:1033800082E090E0E091DA02F091DB0230E020E0B0
:10339000B0E0A0E0309799F42115310509F44AC056
:1033A000281B390B24303105D8F58A819B816115A2
:1033B000710589F1FB0193838283FE0111C0408175
:1033C00051810281138148175907E0F048175907C6
:1033D00099F4109761F012960C93129713961C9320
:1033E0003296CF01DF91CF911F910F9108950093F5
:1033F000DA021093DB02F4CF2115310551F04217A8
:10340000530738F0A901DB019A01BD01DF01F80182
:10341000C1CFEF01F9CF9093DB028093DA02CDCFD9
:10342000FE01E20FF31F81939193225031093983FA
:103430002883D7CF2091D8023091D902232B41F491
:1034400020911601309117013093D9022093D802B0
:1034500020911401309115012115310541F42DB74A
:103460003EB74091180150911901241B350BE09192
:10347000D802F091D902E217F307A0F42E1B3F0BFC
:103480002817390778F0AC014E5F5F4F24173507D6
:1034900048F04E0F5F1F5093D9024093D80281939A
:1034A00091939FCFF0E0E0E09CCFCF93DF93009724
:1034B000E9F0FC01329713821282A091DA02B091F6
:1034C000DB02ED0130E020E01097A1F42081318192
:1034D000820F931F2091D8023091D9022817390703
:1034E00009F061C0F093D902E093D802DF91CF9147
:1034F0000895EA01CE17DF07E8F54A815B819E0156
:1035000041155105B1F7E901FB83EA8349915991CE
:10351000C40FD51FEC17FD0761F4808191810296DD
:10352000840F951FE90199838883828193819B830E
:103530008A83F0E0E0E012968D919C9113970097BA
:10354000B9F52D913C911197CD010296820F931FF1
:103550002091D8023091D9022817390739F63097CF
:1035600051F51092DB021092DA02B093D902A093C7
:10357000D802BCCFD383C28340815181840F951F71
:10358000C817D90761F44E5F5F4F88819981480F52
:10359000591F518340838A819B81938382832115A4
:1035A000310509F0B0CFF093DB02E093DA029ECF51
:1035B000FD01DC01C0CF13821282D7CFB0E0A0E0C2
:1035C000E4EEFAE10C9400188C01009751F4CB0161
:1035D0000E94B9198C01C801CDB7DEB7E0E10C94A7
:1035E0001C18FC01E60FF71F9C0122503109E2175D
:1035F000F30708F49DC0D901CD91DC911197C6174E
:10360000D70798F0C530D10530F3CE01049786175F
:10361000970708F3C61BD70B2297C193D1936D93DD
:103620007C93CF010E94551AD6CF5B01AC1ABD0A1C
:103630004C018C0E9D1EA091DA02B091DB02512C40
:10364000412CF12CE12C109731F58091D80290910A
:10365000D9028815990509F05CC04616570608F08E
:1036600058C08091140190911501009741F48DB7D5
:103670009EB74091180150911901841B950BE817D2
:10368000F90708F055C0F093D902E093D802F90188
:1036900071836083A0CF8D919C91119712966C904D
:1036A000129713967C901397A815B90559F56C01DC
:1036B00042E0C40ED11CCA14DB0420F1AC014A194B
:1036C0005B09DA011296159780F06282738251834A
:1036D0004083D9016D937C93E114F10471F0D7011B
:1036E0001396FC93EE93129776CF22968C0F9D1F24
:1036F000F90191838083F301EFCFF093DB02E09334
:10370000DA0269CF4816590608F42C017D01D3016D
:103710009ACFCB010E94B9197C01009749F0AE0104
:10372000B8010E949B1BC8010E94551A870153CF04
:1037300010E000E050CFFB01DC0102C001900D92CF
:1037400041505040D8F70895FB01DC0101900D92E3
:103750000020E1F7089511E0C8E0D1E004C0FE01C7
:103760000E9493192196C930D107C9F7F894FFCF69
:1037700064FFFFFFFF00E100000000000000C180C7
:10378000810000000000DC028000171615140D12E5
:103790001300000000B10E530A180AFD09000000D2
:1037A00000D3020F06F402E9021503F90205030033
:1037B000000000D9093609F009EF09293A203078CC
:1037C0000072656C656173654B65793A20000D0A7E
:1037D0000072656C65617365436F6E73756D6572BC
:1037E00020280070726573734B6579202800707211
:0E37F000657373436F6E73756D6572202800EC
:00000001FF
