:100000000C9409010C9431010C9431010C943101D0
:100010000C9431010C9431010C9431010C94310198
:100020000C9431010C9431010C9465100C94CE1099
:100030000C9431010C9431010C9431010C94310178
:100040000C9431010C9431010C9431010C94310168
:100050000C9431010C9431010C9431010C94021375
:100060000C9431010C9431010C9431010C94310148
:100070000C9431010C9431010C9431010C94310138
:100080000C9431010C9431010C9431010C94310128
:100090000C9431010C9431010C9431010C94310118
:1000A0000C9431010C9431010C94310100000000DA
:1000B000240027002A002D0030000000000023004B
:1000C000260029002C002F000000000200090F006C
:1000D00000030401000C000000000000000000000C
:1000E000000000000000080B0002020200000904EA
:1000F0000000010202000005240010010524010196
:1001000001042402060524060001070581031000EE
:100110004009040100020A00000007050202400035
:1001200000070583024000000403090412010002D5
:10013000EF020140D804E3E6000101020301515639
:10014000455820546563680051564558204C796ED7
:100150006570616400040802011040804010204076
:1001600080408008020401804020100201108010AD
:1001700020404000000000250028002B002E003108
:10018000000404040404030405020202020403023E
:10019000020202060606060606040402020204051E
:1001A000010906A1018502050719E029E7150025C7
:1001B0000175019508810295017508810395067501
:1001C00008150025730507190029E78100C0050CF3
:1001D0000901A1018505150026FF0319002AFF0367
:1001E000950475108100C00600FF0901A101850377
:1001F0000901150026FF0075089504B10185040961
:100200000195697508150026FF00B100C0007F1335
:10021000A91711241FBECFEFDAE0DEBFCDBF23E068
:10022000A8EFB1E001C01D92A634B207E1F711E0DA
:10023000A0E0B1E0EAEAF9E302C005900D92A83F20
:10024000B107D9F711E0C8E0D1E004C02197FE0161
:100250000E94B01AC730D107C9F70E9444140C9409
:10026000C81C0C940000E0919902F0919A02409110
:100270008F02509190029A01220F331F240F351FD5
:100280002E0F3F1FE217F30728F4708361838283E8
:100290003396F8CF809191028068809391020895FF
:1002A00020918F02309190028217930798F4FC01FD
:1002B000EE0FFF1F8E0F9F1FE0919902F0919A029F
:1002C000E80FF91F50834183628380919102806817
:1002D00080939102089590913E02911103C08FEF97
:1002E0009FEF08954FB7F89492E09093E9009091B2
:1002F000F200292F30E01216130614F421E030E04A
:10030000232B29F084E680933D028091F10099230C
:1003100039F02091F200211103C02BE62093E80070
:100320004FBF9923E1F290E00895CF93DF93EC0162
:100330009B01B4E6ABEF21153105F1F0A9012134A1
:10034000310514F040E450E08091E80082FFFCCFDA
:10035000942FFB01E21BF30BEC0FFD1F915028F0D3
:100360008091F10080833196F9CFB0933D02A09344
:10037000E800241B350BDFCFCB01DF91CF9108952F
:10038000409110025091110220910E0230910F0203
:1003900042175307B4F49091E8009570E1F39091FF
:1003A000E80092FD19C08093F100809110029091B5
:1003B000110201968F739927892B19F48EEF809380
:1003C000E800809110029091110201969093110221
:1003D0008093100281E0089580E00895DF92EF920B
:1003E000FF920F931F93CF93DF93D82E8A01EB01D7
:1003F0007B01E40EF51ECE15DF0559F0D7FE12C0C5
:10040000FE0184910E94C00121968111F4CF0FEF6B
:100410001FEFC801DF91CF911F910F91FF90EF90D7
:10042000DF9008958881EECF2FB7F894877080937E
:10043000E9009091E800892F807295FF04C09091A7
:10044000F20080E4891B2FBF08958091060281117C
:100450000DC082E08093020284E080930302109238
:1004600005021092040281E08093060282E092E08D
:100470000895CF93DF9381E08093A2028093A3023B
:1004800028EA32E03093A5022093A4021092A7023A
:100490001092A6022EE831E030939F0220939E0234
:1004A0001092AA021092A9021092AC021092AB0212
:1004B0008093AD028093AE0281EC8093A8020E94EB
:1004C0002502FC0181819091A202482F490F5527F6
:1004D000551F483051059CF5A281B381109709F54D
:1004E0002EE932E03383228320812093A00280937F
:1004F000A1028091A302820F80832091A402A22FE7
:10050000B091A5028A2F821B8917C8F481813D9181
:10051000C82FD0E0C35FDE4F38838F5F8183F2CF77
:10052000D90118962D913C91199721153105C1F7E4
:100530002EE932E019963C932E931897D5CFDF9190
:10054000CF9108950F931F93CF93DF931F92CDB751
:10055000DEB782E0898342E450E066EE70E080E836
:100560000E94EE010E942502DC0112960D911C9161
:100570000115110589F0D801ED91FC910280F381FC
:10058000E02DBE016F5F7F4FC801099597FD04C044
:10059000F80100851185ECCF89810F90DF91CF9113
:1005A0001F910F910895CF93DF931F92CDB7DEB7C0
:1005B0006983DC01ED91FC910280F381E02D41E043
:1005C00050E0BE016F5F7F4F09950F90DF91CF9193
:1005D000089583E08093E9008091F200882319F068
:1005E0008AE38093E800089583E00E94140290E07B
:1005F0000895FC018485958597FD05C02FEF3FEF99
:100600003587248708950C946B01CF93DF93EC0119
:100610008C859D8597FF04C00E946B019D878C8708
:100620008C859D85DF91CF910895FC01848595850A
:1006300097FD0BC09FB7F89482E08093E90080910A
:10064000F2009FBF90E0019608959FB7F89482E072
:100650008093E9008091F2009FBF90E0089581505F
:100660008F3008F047C0E82FF0E0E75CFC4F0C94B7
:10067000B01A56035A0348034E0352037A037A030F
:100680007A035D03630367036B0371037A037503E6
:10069000809180008F778093800008958091800002
:1006A0008F7DF9CF80918000877FF5CF84B58F77DC
:1006B00084BD089584B58F7DFBCF809190008F77A6
:1006C000809390000895809190008F7DF9CF809164
:1006D0009000877FF5CF8091C0008F778093C00016
:1006E00008958091C0008F7DF9CF8091C200877FEF
:1006F0008093C2000895CF93DF93282F30E0F90153
:10070000E853FF4F8491F901EB5AFE4FD491F90160
:10071000EF57FE4FC491CC23A1F081110E942F030B
:10072000EC2FF0E0EE0FFF1FE654FF4FA591B491C0
:10073000EC91ED2381E090E009F480E0DF91CF912E
:10074000089580E090E0FACF1F93CF93DF93282F96
:1007500030E0F901E853FF4F8491F901EB5AFE4F65
:10076000D491F901EF57FE4FC491CC23A9F0162F75
:1007700081110E942F03EC2FF0E0EE0FFF1FED58C8
:10078000FE4FA591B4918FB7F894EC91111108C068
:10079000D095DE23DC938FBFDF91CF911F91089519
:1007A000DE2BF8CFCF93DF9390E0FC01EB5AFE4FA6
:1007B00024918F579E4FFC0184918823D1F090E0C3
:1007C000880F991FFC01E455FF4FA591B491FC01DE
:1007D000ED58FE4FC591D49161110EC09FB7F894AA
:1007E0008C91E22FE0958E238C932881E223E8837D
:1007F0009FBFDF91CF9108958FB7F894EC91E22BD2
:10080000EC938FBFF6CF3FB7F8948091FE019091A3
:10081000FF01A0910002B091010226B5A89B05C07E
:100820002F3F19F00196A11DB11D3FBFBA2FA92F6F
:10083000982F8827BC01CD01620F711D811D911D6C
:1008400042E0660F771F881F991F4A95D1F70895D8
:100850000F931F93CF93DF9300D000D000D01F924F
:10086000CDB7DEB78091910287FF66C00E94030476
:100870000091950210919602209197023091980272
:10088000601B710B820B930B6C32714081059105DB
:1008900068F3F89480919D02E0919B02F0919C0294
:1008A00040919202509193022091990230919A02C4
:1008B0005A83498389010F5F1F4FD9019C919F8300
:1008C0009081982B9E839081809589238D838D8143
:1008D0008C8388E08B835E816D814F813B812C818D
:1008E00089819A81D801508347FD252F3A9520832D
:1008F000262F39F0441F00C000006083000000C0B4
:10090000F2CF38E04D9160830000019761F74F838B
:100910003B832C839A83898378940E940304609399
:10092000950270939602809397029093980280911B
:1009300091028F778093910227960FB6F894DEBFCD
:100940000FBECDBFDF91CF911F910F9108958F9270
:100950009F92AF92BF92CF92DF92EF92FF926B0184
:100960007C010E9403044B015C01C114D104E10429
:10097000F104B9F00E940304681979098A099B09F6
:10098000683E73408105910580F321E0C21AD108C9
:10099000E108F10888EE880E83E0981EA11CB11CC6
:1009A000E4CFFF90EF90DF90CF90BF90AF909F90FB
:1009B0008F900895CF92DF92EF92CF93DF936B01E8
:1009C000E82EC0918F02D0919002D7FD0FC06E2DFE
:1009D000A601CE010E9450010E94280462E370E04B
:1009E00080E090E00E94A7042197EFCFDF91CF91A4
:1009F000EF90DF90CF9008957F928F929F92AF9269
:100A0000BF92CF92DF92EF92FF920F931F93CF93FB
:100A1000DF93C82E8B017A0180913E02811110C0B4
:100A20008FEF9FEFDF91CF911F910F91FF90EF908C
:100A3000DF90CF90BF90AF909F908F907F90089560
:100A40008091140280FF05C08091E0008260809355
:100A5000E000CE2DDF2DD12C8AEFB82E8C2D8770A3
:100A6000982E8C2D8072882E8C2D8074782E9AE38F
:100A7000A92E209719F4DD2009F452C08C2D0E9474
:100A8000140281110AC0BA94BB2051F261E070E0F7
:100A900080E090E00E94A704ECCF8C171D0611F0B7
:100AA0000CF08C2F9FB7F8949092E9002091E80009
:100AB00025FD02C09FBFDDCF282F30E0C21BD30B26
:100AC000882029F08150A0F01092F100FBCFF801AE
:100AD000C7FC0AC0815050F041914093F100FACF19
:100AE00044914093F10031968150D0F7020F131FCB
:100AF000DD2021F0A092E800D12CDCCF8091E8002D
:100B000085FD07C0A092E800DD24D394209791F2E0
:100B1000F3CF209779F6772069F2A092E800CACF48
:100B200084E680931302C7017DCFCF92DF92EF92CC
:100B3000FF920F931F93CF93DF931F92CDB7DEB732
:100B40007C0169836A0141E050E0BE016F5F7F4F25
:100B5000FC0183810E94FC048C0197FD0CC0F7010D
:100B6000838148E050E0B60180640E94FC04080FD5
:100B7000191F97FD8C01C8010F90DF91CF911F9134
:100B80000F91FF90EF90DF90CF900895CF93DF9378
:100B9000EC018091AF02811105C00E94390281E011
:100BA0008093AF02AE0162E08EE992E0DF91CF91D7
:100BB0000C9495058091AF02811105C00E94390205
:100BC00081E08093AF024AE353E065E08EE992E072
:100BD0000C949505CF93DF93EC0180910C01882351
:100BE00031F083E00E94FC041816190634F081E00D
:100BF00090E09B838A8380E090E0DF91CF9108951D
:100C0000FC0144815581608171818FE392E00C94F5
:100C1000EA052F923F924F925F926F927F928F924E
:100C20009F92AF92BF92CF92DF92EF92FF920F937B
:100C30001F93CF93DF93CDB7DEB72C970FB6F89401
:100C4000DEBF0FBECDBF9A838983FB01C080D180F8
:100C5000E280F38084809580A680B780008511852E
:100C600082858C8783858B8720E030E0A901C501D0
:100C7000B4010E94E117882309F40DC120E030E09F
:100C8000A901C701B6010E94E11720E030E040E869
:100C90005FE387FF79C0C701B6010E9453196B015A
:100CA0007C0120E030E040EC50E4C701B6010E9436
:100CB00047186B017C010E94311A1B01072E000CA2
:100CC000880B990B0E94E8179B01AC01C701B60184
:100CD0000E9452192B013C01AC019B01C501B401DA
:100CE0000E9447189B01AC0160E070E080E89FE340
:100CF0000E94521998014C855B850E9447186B83AE
:100D00007C838D839E83A501940160E070E080E880
:100D10009FE30E94521998014C855B850E944718F9
:100D20006B017C016F83D8868987FA86A3019201C3
:100D300060E070E080E89FE30E945219A5019401F1
:100D40000E9447189B01AC0160E070E080E89FE3DF
:100D50000E94521998014C855B850E9447184B01EF
:100D60005C01E2E02E16310409F47BC0E4F42114A6
:100D70003104B1F12A94232851F146015701CB8067
:100D8000DC80ED80FE802CC0C701B6010E94671A8E
:100D900087FD87CF20E030E040E85FE3C701B60180
:100DA0000E9452197CCFE3E02E16310409F465C08D
:100DB000F4E02F16310409F76801EC84FB848B0101
:100DC0008C87BB868F809884A984BA8409C0480127
:100DD000AC84BB840B811C818D818C87EE81EB8779
:100DE00020E030E04FE753E4B8018C859B850E94FA
:100DF00047180E94381AE981FA81608320E030E0C8
:100E00004FE753E4B401C5010E9447180E94381A05
:100E1000E981FA81618320E030E04FE753E4B601D5
:100E2000C7010E9447180E94381AE981FA8162833B
:100E30002C960FB6F894DEBF0FBECDBFDF91CF91D9
:100E40001F910F91FF90EF90DF90CF90BF90AF90E8
:100E50009F908F907F906F905F904F903F902F90DA
:100E600008956B017C014801AC84BB840F81188517
:100E7000F985FC878A858B87B3CF8B809C80AD807A
:100E8000BE806801EC84FB840F811885E985EC87BE
:100E9000FA85FB87A5CF4801AC84BB846801750146
:100EA0009FCF6F927F928F92CF92DF92EF92FF92BD
:100EB000CF93DF933B01882ED0E0C0E06A01550F4D
:100EC000EE08FF0880918F0290919002C817D90711
:100ED00068F4682DA301CE010E9450010E942804ED
:100EE000C701B6010E94A7042196ECCFDF91CF91F4
:100EF000FF90EF90DF90CF908F907F906F9008954C
:100F000042E350E060E070E080E00C945107CF9342
:100F1000DF93CDB7DEB72F970FB6F894DEBF0FBEC5
:100F2000CDBF42E350E060E070E080E00E945107F6
:100F300064E670E080E090E00E94A70442E350E0A5
:100F400060E07FEF80E00E94510764E670E080E09F
:100F500090E00E94A70442E350E060E070E080E08F
:100F60000E94510764E670E080E090E00E94A704D0
:100F70008CE0E6E1F2E0DE01119601900D928A9597
:100F8000E1F7BE016F5F7F4FCE010D960E9409060B
:100F90006D857E858F8542E350E00E9451072F9634
:100FA0000FB6F894DEBF0FBECDBFDF91CF9108958D
:100FB0004F925F926F927F928F929F92AF92BF9269
:100FC000CF92DF92EF92FF920F931F93CF93DF9315
:100FD00000D01F92CDB7DEB729013A014701580171
:100FE0002091160230911702409118025091190277
:100FF0000E9453196B017C0120E030E0A9010E949E
:10100000E11787FD84C020E030E040E85FE3C701DE
:10101000B6010E94671A18160CF47DC0C092160221
:10102000D0921702E0921802F092190220911A024F
:1010300030911B0240911C0250911D02C301B2016C
:101040000E9453196B017C0120E030E0A9010E944D
:10105000E11787FD67C020E030E040E85FE3C701AB
:10106000B6010E94671A18160CF460C0C0921A02EA
:10107000D0921B02E0921C02F0921D0220911E02EF
:1010800030911F024091200250912102C501B4010C
:101090000E9453196B017C0120E030E0A9010E94FD
:1010A000E11787FD4AC020E030E040E85FE3C70178
:1010B000B6010E94671A18160CF443C0C0921E02B3
:1010C000D0921F02E0922002F092210266E172E0CB
:1010D000CE0101960E94090669817A818B810E9466
:1010E00033010E9428040F900F900F90DF91CF9151
:1010F0001F910F91FF90EF90DF90CF90BF90AF9036
:101100009F908F907F906F905F904F900895C12C2B
:10111000D12C760183CFC12CD12C20E8E22E2FE3F5
:10112000F22E7CCFC12CD12C7601A0CFC12CD12C9A
:1011300090E8E92E9FE3F92E99CFC12CD12C7601AE
:10114000BDCFC12CD12C80E8E82E8FE3F82EB6CF8E
:10115000CF93DF93CDB7DEB72F970FB6F894DEBFEE
:101160000FBECDBF80932202813091F058F08230C3
:1011700061F02F960FB6F894DEBF0FBECDBFDF91A2
:10118000CF9108950E948007F4CF84E680930001F8
:101190008CE0E6E1F2E0DE01119601900D928A9575
:1011A000E1F7BE016F5F7F4FCE010D960E940906E9
:1011B0006D857E858F8542E350E00E945107D9CF2F
:1011C0008F929F92AF92BF92CF92DF92EF92FF9257
:1011D0000F931F93CF93DF93CDB7DEB72F970FB643
:1011E000F894DEBF0FBECDBF90912202923049F439
:1011F00010910001180F1093000117FF15C01092F5
:1012000000012F960FB6F894DEBF0FBECDBFDF9161
:10121000CF911F910F91FF90EF90DF90CF90BF90F3
:10122000AF909F908F900895153624F084E68093B8
:101230000001E7CF60E070E080E00E943301812F81
:1012400064E10E946C1A092F812F110F990B801BEA
:10125000910907FD939564E170E00E947A1A6B0191
:10126000162FF12CE12CCE14DF0481F066E172E040
:10127000CE0101960E94090649815A816B81C701FE
:101280000E9450018FEFE81AF80AEDCF153009F4EB
:1012900049C0002309F446C0602F000F770B880B6C
:1012A000990B0E94E81720911E0230911F02409175
:1012B0002002509121020E94471823E333E343E2C6
:1012C00051E40E94471820E030E04FE753E40E94C9
:1012D000BF1900911A0210911B0220911C0230913B
:1012E0001D028090160290901702A0901802B090F4
:1012F000190289829A82AB82BC820D831E832F835E
:10130000388769877A878B879C87BE016F5F7F4F9D
:10131000CE010D960E9409064D855E856F85C6013A
:101320000E9450010E9428046CCFCF92DF92EF926E
:10133000FF920F931F93CF93DF936C01EB017B011F
:10134000E40EF51E10E000E0CE15DF0581F0699196
:101350006D30D1F3D601ED91FC910190F081E02D3B
:10136000C6010995892B19F00F5F1F4FEDCFC801FA
:10137000DF91CF911F910F91FF90EF90DF90CF9071
:10138000089520E2260F283080F4FC01E359FF4F36
:10139000605E770B21E030E001C0220F6A95EAF72A
:1013A000209530812323208360E0FC01E159FF4F29
:1013B00026E0662321F03081361301C010822150CF
:1013C00031962111F6CF83599F4F0E94C60581E0C7
:1013D00090E0089520E2260F283078F4FC01E359CC
:1013E000FF4F605E770B41E050E001C0440F6A950B
:1013F000EAF72081242B208360E0FC01E159FF4FB4
:101400002081261709F1DC01A059BF4F2C91261726
:10141000D9F011962C912617B9F011962C91261718
:1014200099F011962C91261779F011962C91261788
:1014300059F030E020E0419141110DC0280F391FD3
:10144000F901E159FF4F608383599F4F0E94C60500
:1014500081E090E008952F5F3F4F2630310559F726
:1014600021E030E0FC013383228390E080E00895A6
:10147000EF92FF921F93CF93DF93EC01162F0E9400
:10148000EA097C01612FCE010E94C109C701992799
:10149000DF91CF911F91FF90EF900895089590E014
:1014A00080E00895CF93C82F60E00E94D20360E0EF
:1014B0008C2FCF910C94A403DC01FB0188E4808382
:1014C00089E4818384E482831D969C911D979F709B
:1014D0009F5B93831D968D919C9124E096958795B3
:1014E0002A95E1F78F708F5B848385E00895EF92F2
:1014F000FF920F931F93CF93DF93FB01208121383D
:1015000071F52381223259F5DC0112964C91248128
:1015100035814217130619F5EC010B851C85F12C5A
:10152000E12C0115110589F0F80144815581628192
:10153000738180E80E94EE018F3F980749F0E80E22
:10154000F91ED8010D911C91ECCF81E08F87C70166
:10155000DF91CF911F910F91FF90EF90089590E050
:1015600080E0F6CFCF93DF93CDB7DEB769970FB6A4
:10157000F894DEBF0FBECDBFFC01DB018C918F5F05
:101580008C939E012D5F3F4F8DE0D9011D928A956E
:10159000E9F729E0298384E08A8391E09D8383E051
:1015A0008E832A8721E22B879C879D879F8722E253
:1015B000288B27E02B8B25E02C8B8E8B20E430E0D2
:1015C000388F2F8B998F82818B8395858685998B18
:1015D0008A8B838180688D8B49E150E0BE016F5F0B
:1015E0007F4F80E00E94EE0169960FB6F894DEBF4F
:1015F0000FBECDBFDF91CF910895EF92FF920F9371
:101600001F93CF93DF937C018C01C8ECD0E0CE0117
:101610000E940519F80181938F012196C133F1E0F1
:10162000DF07A9F7C701DF91CF911F910F91FF90BD
:10163000EF900895FC0101900020E9F73197AF0188
:10164000481B590BBC018FE392E00C94EA058F9282
:101650009F92AF92BF920F931F93CF93DF93CDB71B
:10166000DEB7A1970FB6F894DEBF0FBECDBF19A2AB
:10167000423008F44AE08E010F5D1F4F842E912CFA
:10168000B12CA12CA50194010E948E1AE62FB9015C
:10169000CA01EA30F4F4E05DD801EE938D01232B0A
:1016A000242B252B79F790E080E0109719F0CD01DD
:1016B0000E941A0BA1960FB6F894DEBF0FBECDBFE5
:1016C000DF91CF911F910F91BF90AF909F908F901E
:1016D0000895E95CE1CF0F931F93CF93DF93EC0163
:1016E00088819981009759F02A813B812617370715
:1016F00030F081E0DF91CF911F910F9108958B0120
:101700006F5F7F4F0E94FB1B009759F0998388837E
:101710001B830A832C813D81232B59F7FC01108206
:10172000E8CF80E0E7CFCF93DF93EC018881998108
:10173000009711F00E94721B198218821D821C8270
:101740001B821A82DF91CF9108950F931F93CF933D
:10175000DF93EC010C811D810B5F1F4FB8010E94CC
:101760006B0B882391F0288139818C819D8164EBFA
:1017700071E0820F931F0E94C11C1D830C83CE0158
:10178000DF91CF911F910F910895CE010E94930B8D
:10179000F6CFEF92FF920F931F93CF93DF93EC015D
:1017A0007B01198218821B821A821D821C82FB0116
:1017B00001900020E9F731978F01061B170BB80144
:1017C0000E946B0B811109C0CE01DF91CF911F9157
:1017D0000F91FF90EF900C94930B1D830C83B70136
:1017E00088819981DF91CF911F910F91FF90EF90A8
:1017F0000C94C11CCF92DF92EF92FF920F931F9334
:10180000CF93DF93CDB7DEB729970FB6F894DEBF3D
:101810000FBECDBF8C01862FF8011182108213827A
:101820001282158214824AE09E012F5F3F4F6901A8
:10183000B90190E00E94B717F60101900020E9F786
:1018400031977F01EC18FD08B701C8010E946B0BAE
:10185000811112C0C8010E94930B29960FB6F8940B
:10186000DEBF0FBECDBFDF91CF911F910F91FF90D3
:10187000EF90DF90CF900895F801F582E482B601F1
:10188000808191810E94C11CE8CFEF92FF920F935B
:101890001F93CF93DF93EC01FB01E080F180E11413
:1018A000F10411F10481158101151105A9F08C8154
:1018B0009D81080F191FB801CE010E946B0B882370
:1018C00099F0288139818C819D81B701820F931F06
:1018D0000E94C11C1D830C83CE01DF91CF911F910B
:1018E0000F91FF90EF900895CE010E94930BF4CFDB
:1018F000FC0180819181009711F00C94721B089576
:10190000BF92CF92DF92EF92FF920F931F93CF93EC
:10191000DF93CDB7DEB761970FB6F894DEBF0FBE89
:10192000CDBFB82E25E0289FC001112487539D4FBD
:10193000FC01DE011D9601900D922A95E1F7FC0154
:101940008081811133C08E01025F1F4F6E01F2E171
:10195000CF0ED11CF801F1908F01FF20B9F08AEB76
:1019600091E00E941A0B6F2D70E090E080E040E162
:101970000E94270B87EC91E00E941A0B6F2D85ECDB
:1019800092E00E94C109C016D10621F761960FB6F8
:10199000F894DEBF0FBECDBFDF91CF911F910F91A5
:1019A000FF90EF90DF90CF90BF900895813071F756
:1019B0006E01FDE0CF0ED11C7E0181E1E80EF11C2D
:1019C000F60101816281102F062F01151105F1F238
:1019D000EAE3F3E0819191910817190721F4DF01FF
:1019E00012971D921C9283E0E234F80799F70E9447
:1019F000DA056B2DCE0107960E94FA0B6AEC71E0B6
:101A0000CE0101960E94C90BBE01695F7F4FCE01D6
:101A100001960E94450C0E94A50B0E940006CE0173
:101A200001960E94780CCE0107960E94780CB801AE
:101A300090E080E040E10E94270B87EC91E00E945B
:101A40001A0BE2E0CE0ED11CEC14FD0409F49ECF7B
:101A5000B7CFFF920F931F93CF93DF93EC01F62E36
:101A600008811981C8010E940519F81621F06F2D0F
:101A7000C8010E940D19CE01DF91CF911F910F91E6
:101A8000FF900895CF92DF92EF92FF920F931F93F2
:101A9000CF93DF9300D0CDB7DEB76C017C0104E6B5
:101AA00010E01A830983F70161917F01CE0101964D
:101AB0000E94290D0F5F1F4F0037110591F7C601D6
:101AC0000F900F90DF91CF911F910F91FF90EF90AA
:101AD000DF90CF9008959F92AF92BF92CF92DF9206
:101AE000EF92FF920F931F93CF93DF93CDB7DEB7A3
:101AF00061970FB6F894DEBF0FBECDBF982E8091D0
:101B00002302492D50E0882309F49FC082E1891502
:101B100008F49BC0FA01E157F24F0C94B01AA20DE1
:101B2000250EC40DC80D250E250ECA0DCC0DCE0DEB
:101B3000D30DD70D250E250E250E250E250E250EAF
:101B4000D90D030E86E192E00E94420D1A8219829D
:101B500060912202CE0101960E94290D0E94870702
:101B60001092230261960FB6F894DEBF0FBECDBF70
:101B7000DF91CF911F910F91FF90EF90DF90CF9069
:101B8000BF90AF909F90089581E08093F801EACFD5
:101B900082E0FBCF83E0F9CF84E0F7CF10922202FE
:101BA0000E948007DFCF81E00E94A808DBCF82E09F
:101BB000FBCF8091F801833081F08430C1F0823016
:101BC00089F6E12CF12C8701A80197016AE077EDF5
:101BD00083EA9CEB0E94D807C5CFE12CF12C87014A
:101BE0002DEC3CEC4CE45DEBC801B701F3CF1DECF0
:101BF000E12E1CECF12E0CE41DEB20E030E0A901FD
:101C0000CA01B901E7CF8091F801833079F08430BF
:101C1000A9F0823009F0A6CFE12CF12C8701A801B0
:101C200097016AE077ED83EA9CE3D4CFE12CF12CB5
:101C300087012DEC3CEC4CE45DE3D6CF1DECE12EAE
:101C40001CECF12E0CE41DE3D8CF25E0249FC0014D
:101C5000259F900D112487539D4FFC01DE011D9699
:101C600001900D922A95E1F7FC01808181113FC01E
:101C70008E01025F1F4F6E01F2E1CF0ED11CF80101
:101C8000F1908F01FF2009F46DCF692DCE010796E9
:101C90000E94FA0B6CED71E0CE0101960E94C90B17
:101CA000BE01695F7F4FCE0101960E94450C0E94E4
:101CB000A50B0E940006CE0101960E94780CCE0171
:101CC00007960E94780C6F2D70E090E080E040E174
:101CD0000E94270B87EC91E00E941A0B6F2D85EC78
:101CE00092E00E94EA09C016D10649F63BCF813046
:101CF00009F038CF7E01FDE0EF0EF11C5E0181E1BD
:101D0000A80EB11CCC24C394D12CF70101816281AF
:101D1000102F062F0115110509F424CF80913A03E5
:101D200090913B030817190721F180913C03909192
:101D30003D0308171907E9F080913E0390913F0396
:101D400008171907B1F080914003909141030817DB
:101D5000190779F0EAE3F3E090E080E02191319116
:101D6000232BC9F5880F991FFC01E65CFC4F1183FA
:101D700000830E94DA05692DCE0107960E94FA0BB6
:101D800067EE71E0CE0101960E94C90BBE01695F4A
:101D90007F4FCE0101960E94450C0E94A50B0E9428
:101DA0000006CE0101960E94780CCE0107960E9493
:101DB000780CB80190E080E040E10E94270B87ECAE
:101DC00091E00E941A0BF2E0EF0EF11CEA14FB0402
:101DD00009F4C8CE9ACF01968430910509F0BECFA0
:101DE000D092C802C092C702C6CFAF92BF92CF9224
:101DF000DF92EF92FF920F931F93CF93DF93CDB7B4
:101E0000DEB7CC53D1400FB6F894DEBF0FBECDBFC6
:101E1000DC01FB01EDB6FEB612962C91129784817F
:101E200095812817190609F062C02181808192816D
:101E3000C45CDE4F9883CC53D140813A09F059C03D
:101E4000213009F050C08381833021F49330D1F0E8
:101E5000943079F181E00FB6F894FEBE0FBEEDBE6E
:101E6000C45CDE4F0FB6F894DEBF0FBECDBFDF916E
:101E7000CF911F910F91FF90EF90DF90CF90BF9087
:101E8000AF900895198288E78A831B8289E68C8344
:101E900041E050E0BE01645C7E4F80E00E94EE01B4
:101EA00044E050E0BE016F5F7F4F80E00E94EE0192
:101EB000D1CFCE0186599F4F0E94FD0A89E6FE01CF
:101EC000E659FF4FDE01119601900D928A95E1F7D8
:101ED00041E050E0BE01645C7E4F80E00E94EE0174
:101EE00049E650E0DFCF81E0233009F4B4CF80E051
:101EF000B2CF8132E1F72B3019F41F969C93AACF11
:101F00002A3019F450969C93A5CF293081F794304C
:101F100071F766817781CDB6DEB68DB79EB7861B29
:101F2000970B0FB6F8949EBF0FBE8DBF0DB71EB7AF
:101F30000F5F1F4FC8010E94950189E6F801319695
:101F4000DE01AD52BF4F01900D928A95E1F7FE017F
:101F5000ED52FF4F5F0108EC10E01A830983F50191
:101F600061915F01CE0101960E94290D0F5F1F4F05
:101F70000133F1E01F0789F789E6FE01ED52FF4FBB
:101F8000DE01A659BF4F01900D928A95E1F789E6CF
:101F9000FE01E659FF4FDE01119601900D928A95E0
:101FA000E1F789E6FE013196A9ECB2E001900D92CD
:101FB0008A95E1F70FB6F894DEBE0FBECDBE97CF7F
:101FC000EF92FF920F931F93CF93DF93CDB7DEB7BE
:101FD000CB57D1090FB6F894DEBF0FBECDBF86E751
:101FE0009DE2ACE1BBEEEA968CAF9DAFAEAFBFAF6A
:101FF000EA978E010A581F4F9AE0E92EF12CFA82D7
:10200000E982F80161918F01CE0101960E94290DAC
:10201000FFEFEF1AFF0A8EE0E816F10481F789E678
:10202000EAE1F1E0DE01119601900D928A95E1F767
:1020300080E090E0A0E8BFE3AE968CAF9DAFAEAF7E
:10204000BFAFAE97E2968CAF9DAFAEAFBFAFE2979A
:10205000E6968CAF9DAFAEAFBFAFE697CE01865987
:102060009F4F0E94420DEC961FAE1EAEEC9762E0B1
:10207000CE0186589F4F0E94290D8E010F5F1F4F82
:1020800088ECE82EF12CEC96FFAEEEAEEC97F80162
:1020900061918F01CE0186589F4F0E94290DFFEF5D
:1020A000EF1AFF0A81E3E81681E0F80661F7C558E8
:1020B000DF4F0FB6F894DEBF0FBECDBFDF91CF91DB
:1020C0001F910F91FF90EF9008951F920F920FB6FE
:1020D0000F9211248F939F938091E1009091E100E2
:1020E000937F9093E10083FF0FC01092E90091E08D
:1020F0009093EB001092EC0092E39093ED0010921D
:102100003E0298E09093F00082FF1CC093E0909311
:10211000E9009091F200992319F09AE39093E80076
:1021200090911302992329F090911302915090936A
:10213000130290913D02992329F090913D02915014
:1021400090933D0284FF18C08091E2008E7E8160F2
:102150008093E2008091E1008F7E8093E100809186
:1021600014028E7E8061809314029F918F910F9054
:102170000FBE0F901F90189580FFF7CF8091E2005F
:102180008E7E80618093E2008091E1008E7E80935C
:10219000E100809114028E7E8160E5CF1F920F9244
:1021A0000FB60F921124CF92DF92EF92FF920F930E
:1021B0001F932F933F934F935F936F937F938F93CF
:1021C0009F93AF93BF93EF93FF93CF93DF93CDB7DD
:1021D000DEB76C97DEBFCDBF1092E9008091E800BA
:1021E00083FF2FC089E0FE017596EE2EDF2E815011
:1021F00029F09091F10090833196F9CF84E6809395
:102200003D0282EF8093E8008D8987FF39C090916D
:10221000E80090FFFCCF982F907609F033C19E899B
:102220004F89588D2F89F88C911131C0803861F514
:10223000809115028093F1001092F1008EEF80934F
:10224000E8006C960FB6F894DEBF0FBECDBFDF91ED
:10225000CF91FF91EF91BF91AF919F918F917F911E
:102260006F915F914F913F912F911F910F91FF902F
:10227000EF90DF90CF900F900FBE0F901F901895AA
:102280009EEF9093E800C7CF1092F100D5CF913028
:1022900059F48111D3CF4130510581F68091150257
:1022A0008D7F80931502CACF933049F48111C6CF38
:1022B0004130510519F6809115028260F2CF9530B8
:1022C00041F48091E80080FFFCCF20682093E30078
:1022D000B5CF963009F0A8C00B8D1C8D22E010926E
:1022E000E9001092110210921002F2122EC0109208
:1022F0000F0210920E020E94A2021F8299E099839F
:10230000FA8291E09E8390EA98879AEF99872091CC
:10231000100230911102275F3F4F3C832B838D8346
:102320001092E900109211021092100210930F0205
:1023300000930E0249E050E0BE016F5F7F4F80E0E6
:102340000E94EE010E94A20279CF10930F02009327
:102350000E020E942502DC0112960D911C910115BE
:10236000110509F449C1D801ED91FC910480F58172
:10237000E02D6E2D7D2DC8010995009709F037C11C
:10238000F80100851185EBCFF3E0FF120EC08F89B5
:10239000882309F440C0823061F440E86CE088E4AE
:1023A00091E00E944C13811149CF81E28093EB00B0
:1023B00048CF813029F440E869E08EE391E0F1CF25
:1023C000833099F70E942502DC011296ED90FC9073
:1023D0008E010F5F1F4F6801E114F10479F0D701FE
:1023E000ED91FC910680F781E02DB801C7010995B8
:1023F000080F111DF701E084F184EECFD8011C9283
:10240000F60101900020E9F73197BF016C197D09B1
:1024100040E0C601C6CF68E271E0FB01449150E0A4
:1024200080E80E94EE010ACF973009F4BECF9830C1
:1024300021F481E08093F10001CF993009F0FECEC4
:10244000837009F0B2CFEEE0F1E081E031E096E395
:102450002191222371F08093E9003093EB00DF019A
:1024600011972C912093EC009093ED008F5F8730B3
:1024700079F78EE78093EA001092EA008F898093C3
:102480003E02DCCE8B8D9C8D1092E90010921102E1
:102490001092100290930F0280930E02898D811189
:1024A0008CC08E899D89913A49F4813209F07DCFA3
:1024B00047E050E065E071E080E0B3CF913209F091
:1024C00074CF833269F48F89988DB0E0A0E0809357
:1024D000010190930201A0930301B0930401AECED9
:1024E000803239F467E070E085E091E00E94950168
:1024F000A5CE823209F0A2CE8F8980930C01EEEF37
:10250000FFE7859194918B3F9C4D51F1E0E0F8E01D
:102510008091050190910601A0910701B0910801F9
:10252000803B9440A105B105F1F480910C0180FD40
:102530001AC0EE3F8AE0F80789F587E797E79183AD
:102540008083809160008093120288E19BE00FB647
:10255000F894A895809360000FBE909360006ECEB3
:10256000EEEFFAE0D5CF808191818737974709F068
:1025700065CEA8958091600088618093600080910D
:10258000120280936000EE3F2AE0F20789F080910A
:10259000FE0A9091FF0A9183808350CE80819181C1
:1025A0008737980751F29093FF0A8093FE0AC5CFB0
:1025B0001092FF0A1092FE0A41CE0E942502DC0111
:1025C00012960D911C910115110509F4EECED8015A
:1025D000ED91FC910190F081E02D6E2D7D2DC801D3
:1025E000099581112BCEF80100851185ECCF1816C5
:1025F00019060CF423CED9CEF1E0FF12C5CE6CE261
:1026000071E00BCF1F920F920FB60F9211242F93F0
:102610003F938F939F93AF93BF938091FA019091D3
:10262000FB01A091FC01B091FD013091F90123E083
:10263000230F2D3758F50196A11DB11D2093F901E7
:102640008093FA019093FB01A093FC01B093FD01EC
:102650008091FE019091FF01A0910002B0910102D2
:102660000196A11DB11D8093FE019093FF01A093DF
:102670000002B0930102BF91AF919F918F913F9162
:102680002F910F900FBE0F901F90189526E8230FE3
:102690000296A11DB11DD2CFEF92FF920F931F930F
:1026A000CF93DF93F82E192FE62E042F81E0860FAB
:1026B000880F0E94C00183E00E94C001CF2DD12F5E
:1026C000EC0EFD2EF11CCE15DF05B9F007FF13C08F
:1026D000FE0184910E94C001182F80E00E94C00179
:1026E000812321968111EFCFDF91CF911F910F911F
:1026F000FF90EF9008958881EDCF81E0F5CF1F9393
:10270000CF93DF93CDB7DEB7C956D1090FB6F89492
:10271000DEBF0FBECDBF109242021092410288EE82
:1027200093E0A0E0B0E08093430290934402A09332
:102730004502B09346028AE991E09093400280936B
:102740003F028FEF9FEF90934C0280934B0284E007
:1027500090E09093900280938F02109291028CE00F
:1027600090E0909393028093920211E01093940270
:1027700010929C0210929B0210929D0261E081E0F7
:102780000E94D20380919202909193020E94D61AE5
:1027900090939A0280939902E2E8F1E0E491F0E0EC
:1027A000EE0FFF1FED58FE4F8591949190939C0280
:1027B00080939B02E6E5F1E0E491E0939D021092A4
:1027C000C8021092C7028CEA91E09093C6028093EF
:1027D000C5028091BD02811112C01092B802109200
:1027E000B7028FE991E09093BA028093B9028EE626
:1027F00090E09093BC028093BB021093BD02809145
:10280000AF02811105C00E94390281E08093AF02BE
:10281000E091A902F091AA02309769F587EB92E066
:102820009093AA028093A9028091AB029091AC028E
:102830002091BB023091BC02820F931F9093AC0297
:102840008093AB02CE0101960E94FD0A89E6FE014B
:102850003196A9ECB2E001900D928A95E1F7C75943
:10286000DF4F0FB6F894DEBF0FBECDBFDF91CF9123
:102870001F910895FC01808191810097D9F787EB22
:1028800092E091838083D0CFCF93DF93CDB7DEB733
:102890002F970FB6F894DEBF0FBECDBF789484B5E6
:1028A000826084BD84B5816084BD85B5826085BD4C
:1028B00085B5816085BD80916E00816080936E00DA
:1028C00010928100809181008260809381008091CC
:1028D000810081608093810080918000816080937D
:1028E000800080919100826080939100809191009E
:1028F000816080939100809190008160809390002E
:102900008091C10084608093C1008091C100826089
:102910008093C1008091C10081608093C10080914B
:10292000C30081608093C3008091C0008260809367
:10293000C0008091C20081608093C20080917A00C3
:10294000846080937A0080917A00826080937A001C
:1029500080917A00816080937A0080917A0080680B
:1029600080937A0010923E02109215021092140287
:102970008091D70081608093D70080EA8093D8004F
:1029800089B5806189BD89B5826089BD09B400FEC1
:10299000FDCF61E070E080E090E00E94A7048091AC
:1029A000D8008F7C80618093D8008091E000807F88
:1029B0008093E0008091E1008E7E8093E1008DE0C5
:1029C0008093E2008FEF9FEF90934C0280934B0235
:1029D0008AE090E00E94051989838BE090E00E94D4
:1029E00005198A838CE090E00E9405198B838DE0A5
:1029F00090E00E9405198C8389819A81AB81BC810A
:102A000086379D42AC41BB4E11F00E94E00F82E040
:102A10000E94520A83E00E94520A80E00E94520AF9
:102A20008CE00E94520A89E00E94520A85E00E94CE
:102A3000520A8AE00E94520A88E00E94520A84E008
:102A40000E94520A86E00E94520A61E08DE00E94D4
:102A5000D20361E08DE00E94A40361E082E10E9464
:102A6000D20361E082E10E94A40361E083E10E945D
:102A7000D20361E083E10E94A40357E8C52E51E030
:102A8000D52E03E811E0C016D10661F0F801F190EF
:102A90008F0160E08F2D0E94D20361E08F2D0E9494
:102AA000A403F1CF8CE00E947B0321E0892B09F481
:102AB00020E02093270289E00E947B0321E0892BFC
:102AC00009F420E02093260282E00E947B0321E0AB
:102AD000892B09F420E02093250283E00E947B03E8
:102AE00021E0892B09F420E02093240280E00E9459
:102AF0007B03892BC9F40E94E00F50E040E060E0C6
:102B000070E080E00E9451070E94870764E670E051
:102B100080E090E00E94A7040E94870764EF71E0C4
:102B200080E090E00E94A70461E081E00E94D2036F
:102B300046E1E42E42E0F42E04E610E0C8010E94D3
:102B40000519F70181937F010F5F1F4F00371105B2
:102B5000A9F790E080E00E9405198093220260E0CE
:102B600070E080E00E94330142E350E060E070E0FA
:102B700080E00E94510764E670E080E090E00E94EF
:102B8000A70442E350E06FEF70E088EC0E94510729
:102B900064E670E080E090E00E94A70442E350E029
:102BA00060E070E080E00E94510764E670E080E041
:102BB00090E00E94A7046FEF7FEF8FEF0E94DA048E
:102BC00064E670E080E090E00E94A70460E070E0BE
:102BD00080E00E94DA0464E670E080E090E00E9409
:102BE000A70442E350E06FEF70E088EC0E945107C9
:102BF00064E670E080E090E00E94A70442E350E0C9
:102C000060E070E080E00E94510764E670E080E0E0
:102C100090E00E94A704809122020E94A8081092CE
:102C200023022AE8622E21E0722E30E0832E30E06B
:102C3000932E93E8A92E91E0B92E10E000E0502EDB
:102C400087E8E82E81E0F82E6E147F0409F444C072
:102C50000330110529F4F9E8EF16F1E0FF0699F1C8
:102C6000F701408061E0842D0E94D20360E0842D52
:102C70000E94A403852D90E09C01285D3D4F6901D1
:102C8000F9013080F50180810E947B033816190616
:102C900091F4852D3320E9F00E94800C81E0F6014B
:102CA0009081911180E0F60180836AE070E080E01D
:102CB00090E00E94A70461E0842D0E94D20361E0AD
:102CC000842D0E94A403FFEFEF1AFF0A24E0520EA6
:102CD000BBCF0E946B0DE2CF0F5F1F4F3FEFA31AD8
:102CE000B30A0430110509F0AACF85E00E947B03E6
:102CF000209137022817190679F4222309F487C096
:102D000080913302882309F460C08BE00E94800C1C
:102D1000109233021092370280E00E947B032091D0
:102D200038022817190641F4222309F4A7C080E1CC
:102D30000E94800C109238028CE00E947B0320914C
:102D4000270228171906D1F089E00E947B03209101
:102D500026022817190609F4EFC081E10E946B0DC5
:102D600081E10E94800C9091270221E092279093AC
:102D700027028091260282278093260282E00E9409
:102D80007B03209125022817190609F4C7C083E0A8
:102D90000E947B03209124022817190609F4D1C050
:102DA0008BEF0E94E00883E10E946B0D83E10E949B
:102DB000800C9091240221E092279093240280912C
:102DC0002502822780932502A9C08091340288239E
:102DD00031F08CE00E94800C109234029BCF8091E5
:102DE0003502882331F08DE00E94800C109235026C
:102DF00091CF80913602882331F08EE00E94800CC2
:102E00001092360287CF8FE00E94800C83CF8AE039
:102E10000E947B03892B51F48BE00E946B0D81E0B3
:102E20008093330281E08093370276CF88E00E945E
:102E30007B03892B39F48CE00E946B0D81E0809339
:102E40003402F0CF84E00E947B03892B39F48DE0BB
:102E50000E946B0D81E080933502E4CF86E00E94F2
:102E60007B03892B39F48EE00E946B0D81E0809307
:102E70003602D8CF8FE00E946B0DD4CF80912B0209
:102E8000882309F452C080912F02882309F44DC091
:102E900042E350E060E070E080E00E94510764E6A9
:102EA00070E080E090E00E94A70442E350E06FEF02
:102EB0007FEF8FEF0E94510764E670E080E090E0C2
:102EC0000E94A70442E350E060E070E080E00E94CE
:102ED00051078091220281508230E8F464E670E06C
:102EE00080E090E00E94A7048CE0E6E1F2E0DE01E1
:102EF000119601900D928A95E1F7BE016F5F7F4FA9
:102F0000CE010D960E9409066D857E858F8542E370
:102F100050E00E94510781E08093230281149104C4
:102F200009F487CE0E94000084CE80E10E946B0DE0
:102F300081E08093380200CF82E10E946B0D82E134
:102F400010CF85E00E94E00884E10E946B0D84E1CF
:102F50002ECFCF93DF93CFE8D2E060E08D810E9447
:102F6000D2038A859B85DF91CF910C94721BBB277E
:102F7000FB015527AA27880F991FAA1FA41710F035
:102F8000A41B83955051B9F7A05DAA3308F0A95D41
:102F9000A193009779F7B111B1931192CB010C94E1
:102FA000D117DC01FC01672F71917723E1F732978C
:102FB00004C07C916D9370836291AE17BF07C8F314
:102FC00008950E94231808F481E00895E89409C048
:102FD00097FB3EF490958095709561957F4F8F4F4C
:102FE0009F4F9923A9F0F92F96E9BB279395F69562
:102FF000879577956795B795F111F8CFFAF4BB0FE0
:1030000011F460FF1BC06F5F7F4F8F4F9F4F16C043
:10301000882311F096E911C0772321F09EE8872FCD
:10302000762F05C0662371F096E8862F70E060E089
:103030002AF09A95660F771F881FDAF7880F969502
:10304000879597F90895990F0008550FAA0BE0E8A6
:10305000FEEF16161706E807F907C0F0121613065A
:10306000E407F50798F0621B730B840B950B39F49A
:103070000A2661F0232B242B252B21F408950A2600
:1030800009F4A140A6958FEF811D811D08950E942E
:103090005A180C94CB180E94BD1838F00E94C4181E
:1030A00020F0952311F00C94B4180C94BA18112444
:1030B0000C94FF180E94DC1870F3959FC1F3950FD4
:1030C00050E0551F629FF001729FBB27F00DB11DAC
:1030D000639FAA27F00DB11DAA1F649F6627B00D3C
:1030E000A11D661F829F2227B00DA11D621F739F25
:1030F000B00DA11D621F839FA00D611D221F749F33
:103100003327A00D611D231F849F600D211D822F79
:10311000762F6A2F11249F5750409AF0F1F08823A0
:103120004AF0EE0FFF1FBB1F661F771F881F9150CD
:103130005040A9F79E3F510580F00C94B4180C94B0
:10314000FF185F3FE4F3983ED4F386957795679533
:10315000B795F795E7959F5FC1F7FE2B880F911DF7
:103160009695879597F9089597F99F6780E870E09D
:1031700060E008959FEF80EC089500240A941616ED
:10318000170618060906089500240A941216130655
:10319000140605060895092E0394000C11F48823E3
:1031A00052F0BB0F40F4BF2B11F460FF04C06F5FFF
:1031B0007F4F8F4F9F4F089557FD9058440F551FD5
:1031C00059F05F3F71F04795880F97FB991F61F0A9
:1031D0009F3F79F087950895121613061406551F20
:1031E000F2CF4695F1DF08C0161617061806991F8C
:1031F000F1CF86957105610508940895E894BB2781
:1032000066277727CB0197F90895F999FECF92BDEC
:1032100081BDF89A992780B50895262FF999FECF98
:103220001FBA92BD81BD20BD0FB6F894FA9AF99AE3
:103230000FBE019608952F923F924F925F926F9228
:103240007F928F929F92AF92BF92CF92DF92EF9236
:10325000FF920F931F93CF93DF93CDB7DEB7CA1BB7
:10326000DB0B0FB6F894DEBF0FBECDBF09942A88E2
:10327000398848885F846E847D848C849B84AA848A
:10328000B984C884DF80EE80FD800C811B81AA8117
:10329000B981CE0FD11D0FB6F894DEBF0FBECDBFE2
:1032A000ED0108955058BB27AA270E946A190C9473
:1032B000CB180E94BD1838F00E94C41820F039F4D1
:1032C0009F3F19F426F40C94BA180EF4E095E7FB2E
:1032D0000C94B418E92F0E94DC1858F3BA1762074F
:1032E00073078407950720F079F4A6F50C94FE186F
:1032F0000EF4E0950B2EBA2FA02D0B01B901900111
:103300000C01CA01A0011124FF27591B99F0593F54
:1033100050F4503E68F11A16F040A22F232F342F9C
:103320004427585FF3CF469537952795A795F040EA
:103330005395C9F77EF41F16BA0B620B730B840BFF
:10334000BAF09150A1F0FF0FBB1F661F771F881FB7
:10335000C2F70EC0BA0F621F731F841F48F487950F
:1033600077956795B795F7959E3F08F0B0CF939501
:10337000880F08F09927EE0F9795879508950E947A
:10338000D3190C94CB180E94C41858F00E94BD1891
:1033900040F029F45F3F29F00C94B41851110C94BB
:1033A000FF180C94BA180E94DC1868F39923B1F343
:1033B000552391F3951B550BBB27AA27621773075B
:1033C000840738F09F5F5F4F220F331F441FAA1FEF
:1033D000A9F335D00E2E3AF0E0E832D091505040AB
:1033E000E695001CCAF72BD0FE2F29D0660F771F59
:1033F000881FBB1F261737074807AB07B0E809F03F
:10340000BB0B802DBF01FF2793585F4F3AF09E3FC3
:10341000510578F00C94B4180C94FF185F3FE4F356
:10342000983ED4F3869577956795B795F7959F5F06
:10343000C9F7880F911D9695879597F90895E1E052
:10344000660F771F881FBB1F621773078407BA07B1
:1034500020F0621B730B840BBA0BEE1F88F7E0950C
:1034600008950E94381A6894B1110C94FF180895B9
:103470000E94E41888F09F5798F0B92F9927B75108
:10348000B0F0E1F0660F771F881F991F1AF0BA9508
:10349000C9F714C0B13091F00E94FE18B1E0089550
:1034A0000C94FE18672F782F8827B85F39F0B93F42
:1034B000CCF3869577956795B395D9F73EF49095BB
:1034C0008095709561957F4F8F4F9F4F08950E9413
:1034D000231808F48FEF089587FB082E062687FD32
:1034E000819567FD61950E94B61A0EF4919507FCCF
:1034F0008195089597FB072E16F4009407D077FD69
:1035000009D00E94C21A07FC05D03EF4909581951F
:103510009F4F0895709561957F4F0895A1E21A2EEF
:10352000AA1BBB1BFD010DC0AA1FBB1FEE1FFF1F67
:10353000A217B307E407F50720F0A21BB30BE40BB7
:10354000F50B661F771F881F991F1A9469F76095FE
:103550007095809590959B01AC01BD01CF010895B8
:10356000EE0FFF1F0590F491E02D0994991B79E06F
:1035700004C0991F961708F0961B881F7A95C9F703
:1035800080950895AA1BBB1B51E107C0AA1FBB1F52
:10359000A617B70710F0A61BB70B881F991F5A95DF
:1035A000A9F780959095BC01CD0108950F931F93C5
:1035B000CF93DF938230910510F482E090E0E091A8
:1035C0004403F091450330E020E0B0E0A0E0309704
:1035D00099F42115310509F44AC0281B390B243010
:1035E0003105D8F58A819B816115710589F1FB014F
:1035F00093838283FE0111C0408151810281138136
:1036000048175907E0F04817590799F4109761F0E7
:1036100012960C93129713961C933296CF01DF915A
:10362000CF911F910F910895009344031093450388
:10363000F4CF2115310551F04217530738F0A90195
:10364000DB019A01BD01DF01F801C1CFEF01F9CF24
:103650009093450380934403CDCFFE01E20FF31F07
:10366000819391932250310939832883D7CF2091B8
:10367000420330914303232B41F4209116013091F2
:10368000170130934303209342032091140130919A
:1036900015012115310541F42DB73EB740911801B0
:1036A00050911901241B350BE0914203F091430323
:1036B000E217F307A0F42E1B3F0B2817390778F009
:1036C000AC014E5F5F4F2417350748F04E0F5F1F68
:1036D0005093430340934203819391939FCFF0E033
:1036E000E0E09CCFCF93DF930097E9F0FC013297A5
:1036F00013821282A0914403B0914503ED0130E0A2
:1037000020E01097A1F420813181820F931F209136
:103710004203309143032817390709F061C0F09341
:103720004303E0934203DF91CF910895EA01CE175E
:10373000DF07E8F54A815B819E0141155105B1F72C
:10374000E901FB83EA8349915991C40FD51FEC1716
:10375000FD0761F4808191810296840F951FE90134
:1037600099838883828193819B838A83F0E0E0E060
:1037700012968D919C9113970097B9F52D913C91DC
:103780001197CD010296820F931F20914203309131
:1037900043032817390739F6309751F5109245033E
:1037A00010924403B0934303A0934203BCCFD3834E
:1037B000C28340815181840F951FC817D90761F4D6
:1037C0004E5F5F4F88819981480F591F5183408315
:1037D0008A819B81938382832115310509F0B0CFC3
:1037E000F0934503E09344039ECFFD01DC01C0CF7D
:1037F00013821282D7CFB0E0A0E0E1E0FCE10C94AC
:103800001D198C01009751F4CB010E94D61A8C012E
:10381000C801CDB7DEB7E0E10C943919FC01E60F21
:10382000F71F9C0122503109E217F30708F49DC0ED
:10383000D901CD91DC911197C617D70798F0C53003
:10384000D10530F3CE0104978617970708F3C61BFE
:10385000D70B2297C193D1936D937C93CF010E9494
:10386000721BD6CF5B01AC1ABD0A4C018C0E9D1E9B
:10387000A0914403B0914503512C412CF12CE12C33
:10388000109731F580914203909143038815990573
:1038900009F05CC04616570608F058C08091140124
:1038A00090911501009741F48DB79EB74091180192
:1038B00050911901841B950BE817F90708F055C0C2
:1038C000F0934303E0934203F90171836083A0CF37
:1038D0008D919C91119712966C90129713967C90F3
:1038E0001397A815B90559F56C0142E0C40ED11C17
:1038F000CA14DB0420F1AC014A195B09DA01129603
:10390000159780F06282738251834083D9016D9351
:103910007C93E114F10471F0D7011396FC93EE93BC
:10392000129776CF22968C0F9D1FF9019183808389
:10393000F301EFCFF0934503E093440369CF4816BA
:10394000590608F42C017D01D3019ACFCB010E94C6
:10395000D61A7C01009749F0AE01B8010E94B81C4C
:10396000C8010E94721B870153CF10E000E050CFC6
:10397000FB01DC0102C001900D9241505040D8F78C
:103980000895FB01DC0101900D920020E1F70895FC
:1039900011E0C8E0D1E004C0FE010E94B01A2196F7
:0A39A000C930D107C9F7F894FFCF32
:1039AA0064FFFFFFFF00E100000000000000C1808B
:1039BA00810000000000460380000071040000003E
:1039CA007105000000710600000071070000007117
:1039DA00080000007109000000710A000000710B64
:1039EA00000000710C000000710D000000710E0053
:1039FA000000710F0000007110000000711100003A
:103A0A000071120000007113000000711400000020
:103A1A007115000000711600000071170000007196
:103A2A00180000171615140D121300000000F50EE9
:103A3A00B20A770A5C0A00000000D302EA05F4021F
:103A4A00E9021503F902050300000000380A950986
:103A5A004F0A4E0A293A2030780072656C65617304
:103A6A00654B65793A20000D0A0072656C656173D1
:103A7A0065436F6E73756D65722028007072657389
:103A8A00734B65792028007072657373436F6E7388
:083A9A00756D65722028000023
:00000001FF
