:100000000C9422010C944A010C944A010C944A016C
:100010000C944A010C944A010C944A010C944A0134
:100020000C944A010C944A010C94450C0C94AE0CAF
:100030000C944A010C944A010C944A010C944A0114
:100040000C944A010C944A010C944A010C944A0104
:100050000C944A010C944A010C944A010C94F00E41
:100060000C944A010C944A010C944A010C944A01E4
:100070000C944A010C944A010C944A010C944A01D4
:100080000C944A010C944A010C944A010C944A01C4
:100090000C944A010C944A010C944A010C944A01B4
:1000A0000C944A010C944A010C944A01000000008F
:1000B000000000002A2B28000000000000000000C3
:1000C0000000000000000000000000002C9EB4A012
:1000D000A1A2A434A6A7A5AE362D3738271E1F200F
:1000E000212223242526B333B62EB7B89F848586D4
:1000F0008788898A8B8C8D8E8F9091929394959618
:100100009798999A9B9C9D2F3130A3AD3504050695
:100110000708090A0B0C0D0E0F10111213141516F7
:100120001718191A1B1C1DAFB1B0B5000000000054
:10013000240027002A002D003000000000002300CA
:10014000260029002C002F000000000200090F00EB
:1001500000030401000C0000080B00020202010071
:10016000090400000102020000052400100105241A
:10017000010101042402060524060001070581038C
:1001800010004009040100020A00000007050202F5
:100190004000000705830240000004030904120127
:1001A0000002EF02014042AB0180000101020301A5
:1001B0005156455820546563680051564558204CA7
:1001C000796E657061640005010906A1018502056B
:1001D0000719E029E71500250175019508810295A9
:1001E0000175088103950675081500257305071923
:1001F0000029738100C004080201104080401020D3
:1002000040804080080204018040201002011080DC
:100210001020404000000000250028002B002E0088
:10022000310004040404040304050202020204036E
:100230000202020206060606060604040202020480
:100240003A0F7F1311241FBECFEFDAE0DEBFCDBF20
:1002500011E0A0E0B1E0E4ECFEE202C005900D92F6
:10026000A036B107D9F722E0A0E6B1E001C01D92A7
:10027000AE33B207E1F711E0C1E2D1E004C021974B
:10028000FE010E940316C032D107C9F70E940C106C
:100290000C9455170C940000CF93DF93FC018181DF
:1002A0009091FC01482F490F5527551F48305105A3
:1002B0009CF5A281B381109709F528EF31E03383D3
:1002C000228320812093FA018093FB018091FD011C
:1002D000820F80832091FE01A22FB091FF018A2F0F
:1002E000821B8917E8F481813D91C82FD0E0C35F5C
:1002F000DE4F38838F5F8183F2CFD90118962D911D
:100300003C91199721153105C1F728EF31E0199675
:100310003C932E931897D5CF80E0DF91CF9108952D
:1003200081E0FBCFE0913502F091360240912B0243
:1003300050912C029A01220F331F240F351F2E0FCC
:100340003F1FE217F30728F470836183828333969B
:10035000F8CF80912D02806880932D02089520911E
:100360002B0230912C028217930798F4FC01EE0FB8
:10037000FF1F8E0F9F1FE0913502F0913602E80FAC
:10038000F91F50834183628380912D02806880939E
:100390002D0208959091A601911103C08FEF9FEF58
:1003A00008954FB7F89492E09093E9009091F2008D
:1003B000292F30E01216130614F421E030E0232B2D
:1003C00029F084E68093A5018091F100992339F00A
:1003D0002091F200211103C02BE62093E8004FBFCB
:1003E0009923E1F290E00895CF93DF931F92CDB768
:1003F000DEB76983DC01ED91FC910280F381E02D91
:1004000041E050E0BE016F5F7F4F09950F90DF9193
:10041000CF91089583E08093E9008091F2008823D2
:1004200019F08AE38093E8000895FC01848595859E
:1004300097FD05C02FEF3FEF3587248708950C9473
:10044000CA01CF93DF93EC018C859D8597FF04C093
:100450000E94CA019D878C878C859D85DF91CF91F5
:100460000895FC018485958597FD0BC09FB7F8948E
:1004700082E08093E9008091F2009FBF90E00196B6
:1004800008959FB7F89482E08093E9008091F2008C
:100490009FBF90E00895409178015091790120919B
:1004A00076013091770142175307B4F49091E80038
:1004B0009570E1F39091E80092FD19C08093F100EE
:1004C000809178019091790101968F739927892BFA
:1004D00019F48EEF8093E800809178019091790172
:1004E0000196909379018093780181E0089580E0EE
:1004F0000895EF92FF920F931F93CF93DF93F82EFF
:10050000192FE62E042F81E0860F880F0E944B02E0
:1005100083E00E944B02CF2DD12FEC0EFD2EF11C5B
:10052000CE15DF05B9F007FF13C0FE0184910E94CC
:100530004B02182F80E00E944B02812321968111EB
:10054000EFCFDF91CF911F910F91FF90EF90089522
:100550008881EDCF81E0F5CFDF92EF92FF920F938C
:100560001F93CF93DF93D82E8A01EB017B01E40E1A
:10057000F51ECE15DF0559F0D7FE12C0FE0184919D
:100580000E944B0221968111F4CF0FEF1FEFC8019B
:10059000DF91CF911F910F91FF90EF90DF90089521
:1005A0008881EECF2FB7F89487708093E9009091FF
:1005B000E800892F807295FF04C09091F20080E4DA
:1005C000891B2FBF089583E00E94D20290E0089516
:1005D00080916E0181110DC082E080936A0184E0F8
:1005E00080936B0110926D0110926C0181E08093F9
:1005F0006E018AE691E008950F931F93CF93DF93E6
:100600001F92CDB7DEB782E0898342E450E068E50F
:1006100071E080E80E94AC020E94E802DC011296C0
:100620000D911C910115110589F0D801ED91FC91F6
:100630000280F381E02DBE016F5F7F4FC8010995F5
:1006400097FD04C0F80100851185ECCF89810F90DA
:10065000DF91CF911F910F91089581508F3008F055
:1006600047C0E82FF0E0E95CFC4F0C9403165403FC
:10067000580346034C0350037803780378035B0365
:100680006103650369036F0378037303809180003E
:100690008F77809380000895809180008F7DF9CFBF
:1006A00080918000877FF5CF84B58F7784BD0895D2
:1006B00084B58F7DFBCF809190008F7780939000E1
:1006C0000895809190008F7DF9CF80919000877F71
:1006D000F5CF8091C0008F778093C00008958091FE
:1006E000C0008F7DF9CF8091C200877F8093C200C8
:1006F0000895CF93DF93282F30E0F901E85BFE4F98
:100700008491F901EA50FE4FD491F901EE5DFD4F5D
:10071000C491CC23A1F081110E942D03EC2FF0E0B5
:10072000EE0FFF1FE65CFE4FA591B491EC91ED2317
:1007300081E090E009F480E0DF91CF91089580E0BE
:1007400090E0FACF1F93CF93DF93282F30E0F90189
:10075000E85BFE4F8491F901EA50FE4FD491F90114
:10076000EE5DFD4FC491CC23A9F0162F81110E949C
:100770002D03EC2FF0E0EE0FFF1FEC5EFD4FA59177
:10078000B4918FB7F894EC91111108C0D095DE2385
:10079000DC938FBFDF91CF911F910895DE2BF8CFAF
:1007A000CF93DF9390E0FC01EA50FE4F24918E5DE1
:1007B0009D4FFC0184918823D1F090E0880F991F10
:1007C000FC01E45DFE4FA591B491FC01EC5EFD4F90
:1007D000C591D49161110EC09FB7F8948C91E22F0E
:1007E000E0958E238C932881E223E8839FBFDF91DD
:1007F000CF9108958FB7F894EC91E22BEC938FBFD3
:10080000F6CF3FB7F8948091660190916701A0916F
:100810006801B091690126B5A89B05C02F3F19F06A
:100820000196A11DB11D3FBFBA2FA92F982F882770
:10083000BC01CD01620F711D811D911D42E0660F4B
:10084000771F881F991F4A95D1F708950F931F931B
:10085000CF93DF9300D000D000D01F92CDB7DEB78A
:1008600080912D0287FF66C00E9401040091310231
:10087000109132022091330230913402601B710BCF
:10088000820B930B6C3271408105910568F3F894EB
:1008900080913902E0913702F091380240912E02A6
:1008A00050912F0220913502309136025A834983AC
:1008B00089010F5F1F4FD9019C919F839081982BD5
:1008C0009E839081809589238D838D818C8388E0A0
:1008D0008B835E816D814F813B812C8189819A81DF
:1008E000D801508347FD252F3A952083262F39F0D4
:1008F000441F00C000006083000000C0F2CF38E059
:100900004D9160830000019761F74F833B832C83F7
:100910009A83898378940E940104609331027093D2
:100920003202809333029093340280912D028F77AC
:1009300080932D0227960FB6F894DEBF0FBECDBF71
:10094000DF91CF911F910F9108958F929F92AF9257
:10095000BF92CF92DF92EF92FF926B017C010E94D7
:1009600001044B015C01C114D104E104F104B9F0AC
:100970000E940104681979098A099B09683E73403D
:100980008105910580F321E0C21AD108E108F10840
:1009900088EE880E83E0981EA11CB11CE4CFFF9066
:1009A000EF90DF90CF90BF90AF909F908F90089581
:1009B000CF92DF92EF92CF93DF936B01E82ED0E0DE
:1009C000C0E080912B0290912C02C817D90778F4CF
:1009D0006E2DA601CE010E94AF010E94260462E3A3
:1009E00070E080E090E00E94A5042196EACFDF91BC
:1009F000CF91EF90DF90CF900895CF92DF92EF925A
:100A0000CF93DF936B01E82EC0912B02D0912C0283
:100A1000D7FD0FC06E2DA601CE010E94AF010E942E
:100A2000260462E370E080E090E00E94A504219734
:100A3000EFCFDF91CF91EF90DF90CF9008957F922D
:100A40008F929F92AF92BF92CF92DF92EF92FF92DE
:100A50000F931F93CF93DF93C82E8B017A01809160
:100A6000A601811110C08FEF9FEFDF91CF911F91F1
:100A70000F91FF90EF90DF90CF90BF90AF909F903D
:100A80008F907F90089580917C0180FF05C08091B8
:100A9000E00082608093E000CE2DDF2DD12C8AEF24
:100AA000B82E8C2D8770982E8C2D8072882E8C2DD0
:100AB0008074782E9AE3A92E209719F4DD2009F48A
:100AC00052C08C2D0E94D20281110AC0BA94BB2060
:100AD00051F261E070E080E090E00E94A504ECCF6C
:100AE0008C171D0611F00CF08C2F9FB7F894909284
:100AF000E9002091E80025FD02C09FBFDDCF282F2F
:100B000030E0C21BD30B882029F08150A0F0109256
:100B1000F100FBCFF801C7FC0AC0815050F04191B1
:100B20004093F100FACF44914093F1003196815007
:100B3000D0F7020F131FDD2021F0A092E800D12C86
:100B4000DCCF8091E80085FD07C0A092E800DD249D
:100B5000D394209791F2F3CF209779F6772069F21A
:100B6000A092E800CACF84E680937B01C7017DCFC5
:100B7000EF92FF921F93CF93DF931F92CDB7DEB713
:100B80007C018091090281112AC011E01093FC01BF
:100B90001093FD0182E092E09093FF018093FE01AB
:100BA00010920102109200028CE491E09093F901FE
:100BB0008093F80110920402109203021092060230
:100BC00010920502109307021093080281EC8093A3
:100BD00002020E94E8020E944C011093090282E086
:100BE000898341E050E0BE016F5F7F4F8091FB0140
:100BF0000E941F0597FD08C08091FB0148E050E06E
:100C0000B70180640E941F050F90DF91CF911F9163
:100C1000FF90EF900895CF93DF93EC0180910C014A
:100C2000882331F083E00E941F051816190634F05E
:100C300081E090E09B838A8380E090E0DF91CF9118
:100C400008952F923F924F925F926F927F928F9270
:100C50009F92AF92BF92CF92DF92EF92FF920F934B
:100C60001F93CF93DF93CDB7DEB728970FB6F894D5
:100C7000DEBF0FBECDBF9A838983FB01C080D180C8
:100C8000E280F38084809580A680B78000851185FE
:100C90008285888783858F8320E030E0A901C501A4
:100CA000B4010E941014882309F40CC120E030E044
:100CB000A901C701B6010E94101420E030E040E80D
:100CC0005FE387FF75C0C701B6010E94A4136B01E3
:100CD0007C0120E030E040EC50E4C701B6010E9406
:100CE00074152B013C010E9487146B01072E000C28
:100CF000880B990B0E94BF149B01AC01C301B20188
:100D00000E94A3132B013C01AC019B01C501B4015E
:100D10000E9474159B01AC0160E070E080E89FE3E5
:100D20000E94A313980148855F810E9474156B830C
:100D30007C838D839E83A501940160E070E080E850
:100D40009FE30E94A313980148855F810E94741558
:100D50001B017C01A301920160E070E080E89FE349
:100D60000E94A313A50194010E9474159B01AC017C
:100D700060E070E080E89FE30E94A313980148853B
:100D80005F810E9474154B015C01E2E0CE16D10434
:100D900009F47AC0E4F4C114D104A9F1CA94CD28AD
:100DA00049F1410157012B803C80ED80FE802BC032
:100DB000C701B6010E946F1587FD8BCF20E030E0A0
:100DC00040E85FE3C701B6010E94A31380CFE3E0D0
:100DD000CE16D10409F466C0F4E0CF16D10409F7A9
:100DE000302F212F98858F818401A886BF824101F1
:100DF000570163C04801A884BF800B811C818D818D
:100E00008887EE81EF8320E030E04FE753E4B801BC
:100E100088859F810E9474150E948E14E981FA8151
:100E2000608320E030E04FE753E4B401C5010E9445
:100E300074150E948E14E981FA81618320E030E00C
:100E40004FE753E4B101C7010E9474150E948E144C
:100E5000E981FA81628328960FB6F894DEBF0FBE4F
:100E6000CDBFDF91CF911F910F91FF90EF90DF9059
:100E7000CF90BF90AF909F908F907F906F905F903A
:100E80004F903F902F900895302F212F98858F817C
:100E90008101E886FF8214017501832E922EA92E0E
:100EA000B82EB1CF8B809C80AD80BE80302F212F9B
:100EB00098858F818101E886FF82232E322EE92ECC
:100EC000F82EA1CF1801E884FF80480157019BCF7D
:100ED000DC01FB0112962C911297848195812817D1
:100EE000190641F491818081813A31F49D7F81E03E
:100EF000913009F080E008958132E1F79B3029F4C8
:100F000082811F968C9381E008959A3099F78281AF
:100F100050968C93F8CFDC01FB0188E4808389E450
:100F2000818384E482831D969C911D979F709F5BB3
:100F300093831D968D919C9124E0969587952A9593
:100F4000E1F78F708F5B848385E00895EF92FF92C5
:100F50000F931F93CF93DF93FB012081213871F50D
:100F60002381223259F5DC0112964C91248135817E
:100F70004217130619F5EC010B851C85F12CE12CA9
:100F80000115110589F0F801448155816281738151
:100F900080E80E94AC028F3F980749F0E80EF91EE6
:100FA000D8010D911C91ECCF81E08F87C701DF91B3
:100FB000CF911F910F91FF90EF90089590E080E006
:100FC000F6CFCF93DF93CDB7DEB769970FB6F8941E
:100FD000DEBF0FBECDBFFC01DB018C918F5F8C9318
:100FE0009E012D5F3F4F8DE0D9011D928A95E9F753
:100FF00029E0298384E08A8391E09D8383E08E83C6
:101000002A8721E22B879C879D879F8722E2288B56
:1010100027E02B8B25E02C8B8E8B20E430E0388F63
:101020002F8B998F82818B8395858685998B8A8B6F
:10103000838180688D8B49E150E0BE016F5F7F4FF7
:1010400080E00E94AC0269960FB6F894DEBF0FBE36
:10105000CDBFDF91CF910895CF92DF92EF92FF92B3
:101060000F931F93CF93DF936C01EB017B01E40E91
:10107000F51E10E000E0CE15DF0581F069916D30BE
:10108000D1F3D601ED91FC910190F081E02DC601E4
:101090000995892B19F00F5F1F4FEDCFC801DF9124
:1010A000CF911F910F91FF90EF90DF90CF90089517
:1010B000DC016838A0F06858FD0186E0662321F065
:1010C0009681961301C01682815031968111F6CF18
:1010D000CD0104960E94B80581E090E00895E62FC6
:1010E000F0E067FF12C0E058F10981E090E001C034
:1010F000880FEA95EAF7809514969C9114978923B6
:1011000014968C93149760E0D7CFE455FF4F649109
:10111000662359F067FFD0CF14968C9114978D7F7A
:1011200014968C9314976F77C7CF90E080E0089562
:10113000DC01683888F1685816968C9116978617E6
:1011400021F117968C9117978617F9F018968C91C4
:1011500018978617D1F019968C9119978617A9F0D0
:101160001A968C911A97861781F01B968C911B9773
:10117000861759F0FD01369690E080E0219121110B
:1011800039C08A0F9B1FFC016683CD0104960E9423
:10119000B80581E090E00895E62FF0E067FF11C008
:1011A000E058F10921E030E001C0220FEA95EAF7AA
:1011B00014968C911497822B14968C93149760E05C
:1011C000BBCFE455FF4F6491611109C081E090E00D
:1011D00013969C938E93129790E080E0089567FF9A
:1011E000ABCF14968C911497826014968C931497BD
:1011F0006F77A2CF01968630910509F0BFCFE6CF79
:10120000EF92FF921F93CF93DF93EC01162F0E9472
:1012100098087C01612FCE010E945808C7019927C8
:10122000DF91CF911F91FF90EF900895089590E086
:1012300080E008958F929F92AF92BF92CF92DF92FB
:10124000EF92FF920F931F93CF93DF93CDB7DEB74B
:101250002F970FB6F894DEBF0FBECDBF9091A701B8
:10126000923049F410917E01180F10937E0117FF00
:1012700015C010927E012F960FB6F894DEBF0FBEF8
:10128000CDBFDF91CF911F910F91FF90EF90DF9035
:10129000CF90BF90AF909F908F900895153624F017
:1012A00084E680937E01E7CF60E070E080E00E94FA
:1012B0009201812F69E10E94E115092F812F110F01
:1012C000990B801B910907FD939569E170E00E94DD
:1012D000EF156B01162FF12CE12CCE14DF0481F0F9
:1012E0006FE771E0CE0101960E94210649815A8183
:1012F0006B81C7010E94AF018FEFE81AF80AEDCFAA
:10130000143009F449C0002309F446C0602F000FCF
:10131000770B880B990B0E94BF14209187013091A5
:1013200088014091890150918A010E94741523E33C
:1013300033E343E251E40E94741520E030E04FE7CC
:1013400053E40E94151400918301109184012091AF
:1013500085013091860180907F0190908001A0905E
:101360008101B090820189829A82AB82BC820D8316
:101370001E832F83388769877A878B879C87BE0176
:101380006F5F7F4FCE010D960E9421064D855E85D1
:101390006F85C6010E94AF010E9426046CCFCF93D7
:1013A000C82F60E00E94D00360E08C2FCF910C9496
:1013B000A203CF9390918F0191111BC0E82FF0E011
:1013C000E65EFE4F60818FE192E00E945808C09176
:1013D0006001C13059F461E070E080E090E00E946B
:1013E000A50469EF8FE192E00E945808C150C093B4
:1013F0006001CF910895CF93C091A70190E080E064
:101400000E948D13C81729F06C2F90E080E00E9495
:10141000951387EA91E0CF910895CF92DF92EF92F2
:10142000FF920F931F93CF93DF93CDB7DEB7A497AF
:101430000FB6F894DEBF0FBECDBF182F80918F017D
:10144000882309F4F8C1133108F090C0E12FF0E0CF
:10145000E45DF54F0C9403169A0BB60AB60A930B8B
:10146000B60AB60AB60A960BC50A820A3F0AB60A37
:10147000B60AB60AB60AB60AB60A430BDC0A809167
:10148000A701823029F082E08093A7010E94FB0926
:1014900060E07FEF80E00E94D80468EC70E080E0BC
:1014A00090E00E94A50460E070E080E00E94D80413
:1014B00068EC70E080E090E00E94A50482E38093F5
:1014C0007E016FE771E0CE0101960E9421068091B6
:1014D0002B0290912C02029790F099812A818B81A6
:1014E000E0913502F0913602208391838283238339
:1014F0009483858380912D02806880932D020E94C1
:10150000260434C08091A701813029F081E08093C6
:10151000A7010E94FB0960E07FEF80E00E94D804F1
:1015200068EC70E080E090E00E94A50460E070E06C
:1015300080E00E94D80468EC70E080E090E00E94B7
:10154000A5048CE0EFE7F1E0DE01599601900D92E1
:101550008A95E1F7BE01675E7F4FCE0101960E943A
:10156000210669817A818B810E94D804A4960FB6E6
:10157000F894DEBF0FBECDBFDF91CF911F910F91C9
:10158000FF90EF90DF90CF9008958091A70188237E
:1015900021F01092A7010E94FB0960E07FEF80E03C
:1015A0000E94D80468EC70E080E090E00E94A504FE
:1015B00060E070E080E0D8CF80910001882329F0BE
:1015C000813099F18F3F29F5D1CF2AE037ED43EAF9
:1015D0005CE360917F017091800180918101909125
:1015E00082010E94A4136B017C0120E030E040E8FE
:1015F0005FE30E946F1587FD8DC080E090E0A0E85A
:10160000BFE380937F0190938001A0938101B09309
:1016100082016FE771E0CE0101960E942106698187
:101620007A818B810E9492016ACF2DEC3CEC4CE4D4
:101630005DE36091870170918801809189019091AB
:101640008A010E94A4136B017C0120E030E040E895
:101650005FE30E946F1587FD0DC080E090E0A0E879
:10166000BFE38093870190938801A0938901B09391
:101670008A01CFCFC0928701D0928801E092890180
:10168000F0928A01C6CF80910001882319F1813040
:1016900009F098CF2DEC3CEC4CE45DE360918701C0
:1016A000709188018091890190918A010E94A31311
:1016B0006B017C0120E030E0A9010E941014181693
:1016C000CCF2109287011092880110928901109239
:1016D0008A019FCF2AE037ED43EA5CE360917F0106
:1016E0007091800180918101909182010E94A313E9
:1016F0006B017C0120E030E0A9010E941014181653
:101700004CF010927F011092800110928101109292
:1017100082017FCFC0927F01D0928001E09281014F
:10172000F092820176CF1092000120CF81E0809369
:1017300000011CCF8FEF8093000110928F018FE783
:10174000E82E81E0F82E04E610E0F701D1907F0149
:10175000C8010E948D13D81621F06D2DC8010E947A
:1017600095130F5F1F4F0037110579F760E07FEF8A
:1017700080E00E94D80466E470E080E090E00E947F
:10178000A50460E070E080E00E94D80466E470E0A8
:1017900080E090E00E94A50460E07FEF80E00E947E
:1017A000D80466E470E080E090E00E94A50460E068
:1017B00070E080E00E94D80466E470E080E090E091
:1017C0000E94A5048091A701813031F08230D1F0D0
:1017D00081E080939001CACE8CE0EFE7F1E0DE017A
:1017E0001D9601900D928A95E1F7BE01635F7F4FD0
:1017F000CE0101960E94210669817A818B810E9427
:10180000D804E6CF8CE0EFE7F1E0DE01119601901D
:101810000D928A95E1F7BE016F5F7F4FCE010D9665
:101820000E9421066D857E858F850E94D80484E6FE
:1018300080937E01CDCF0091600101110BC069EF53
:101840008FE192E00E94980861E070E080E090E013
:101850000E94A5040F5F00936001E12FF0E0E65EB7
:10186000FE4F60818FE192E00E9498087FCECF9377
:10187000C82F0E940D0A6AE070E080E090E00E94AC
:10188000A5048C2FCF910C94D9091F920F920FB6FB
:101890000F9211248F939F938091E1009091E1002A
:1018A000937F9093E10083FF0FC01092E90091E0D5
:1018B0009093EB001092EC0092E39093ED00109265
:1018C000A60198E09093F00082FF1CC093E09093F3
:1018D000E9009091F200992319F09AE39093E800BF
:1018E00090917B01992329F090917B0191509093E5
:1018F0007B019091A501992329F09091A501915028
:101900009093A50184FF18C08091E2008E7E8160D3
:101910008093E2008091E1008F7E8093E1008091CE
:101920007C018E7E806180937C019F918F910F90CE
:101930000FBE0F901F90189580FFF7CF8091E200A7
:101940008E7E80618093E2008091E1008E7E8093A4
:10195000E10080917C018E7E8160E5CF1F920F9225
:101960000FB60F921124CF92DF92EF92FF920F9356
:101970001F932F933F934F935F936F937F938F9317
:101980009F93AF93BF93EF93FF93CF93DF93CDB725
:10199000DEB76C97DEBFCDBF1092E9008091E80002
:1019A00083FF2FC089E0FE017596EE2EDF2E815059
:1019B00029F09091F10090833196F9CF84E68093DD
:1019C000A50182EF8093E8008D8987FF39C090914F
:1019D000E80090FFFCCF982F907609F033C19E89E4
:1019E0004F89588D2F89F88C911131C0803861F55D
:1019F00080917D018093F1001092F1008EEF809331
:101A0000E8006C960FB6F894DEBF0FBECDBFDF9135
:101A1000CF91FF91EF91BF91AF919F918F917F9166
:101A20006F915F914F913F912F911F910F91FF9077
:101A3000EF90DF90CF900F900FBE0F901F901895F2
:101A40009EEF9093E800C7CF1092F100D5CF913070
:101A500059F48111D3CF4130510581F680917D0138
:101A60008D7F80937D01CACF933049F48111C6CF19
:101A70004130510519F680917D018260F2CF953099
:101A800041F48091E80080FFFCCF20682093E300C0
:101A9000B5CF963009F0A8C00B8D1C8D22E01092B6
:101AA000E9001092790110927801F2122EC0109282
:101AB0007701109276010E94FC021F8299E09983BF
:101AC000FA8291E09E8390EA98879AEF9987209115
:101AD000780130917901275F3F4F3C832B838D83C1
:101AE0001092E90010927901109278011093770119
:101AF0000093760149E050E0BE016F5F7F4F80E0C8
:101B00000E94AC020E94FC0279CF109377010093EF
:101B100076010E94E802DC0112960D911C910115DC
:101B2000110509F457C1D801ED91FC910480F581AC
:101B3000E02D6E2D7D2DC8010995009709F045C156
:101B4000F80100851185EBCFF3E0FF120EC08F89FD
:101B5000882309F440C0823061F440E86CE08AEBED
:101B600091E00E947902811149CF81E28093EB00DC
:101B700048CF813029F440E869E080EB91E0F1CF73
:101B8000833099F70E94E802DC011296ED90FC90F8
:101B90008E010F5F1F4F6801E114F10479F0D70146
:101BA000ED91FC910680F781E02DB801C701099500
:101BB000080F111DF701E084F184EECFD8011C92CB
:101BC000F60101900020E9F73197BF016C197D09FA
:101BD00040E0C601C6CF6AE971E0FB01449150E0E4
:101BE00080E80E94AC020ACF973009F4BECF98304B
:101BF00021F481E08093F10001CF993009F0FECE0D
:101C0000837009F0B2CFEEE0F1E081E031E096E3DD
:101C10002191222371F08093E9003093EB00DF01E2
:101C200011972C912093EC009093ED008F5F8730FB
:101C300079F78EE78093EA001092EA008F8980930B
:101C4000A601DCCE8B8D9C8D1092E900109279015B
:101C5000109278019093770180937601898D81119C
:101C60009AC08E899D89913A49F4813209F07DCFDD
:101C700047E050E065E071E080E0B3CF913209F0D9
:101C800074CF833269F48F89988DB0E0A0E080939F
:101C9000010190930201A0930301B0930401AECE21
:101CA0008032A9F48091E80082FFFCCF88E0E5E073
:101CB000F1E0815029F09091F10090833196F9CFB5
:101CC00084E68093A5018BEF8093E80097CE823263
:101CD00009F094CE8F8980930C01EEEFFFE7859198
:101CE00094918B3F9C4D51F1E0E0F8E0809105012B
:101CF00090910601A0910701B0910801803B9440AA
:101D0000A105B105F1F480910C0180FD1AC0EE3FF0
:101D10008AE0F80789F587E797E7918380838091C8
:101D2000600080937A0188E19BE00FB6F894A89553
:101D3000809360000FBE9093600060CEEEEFFAE0FB
:101D4000D5CF808191818737974709F057CEA895E5
:101D50008091600088618093600080917A01809317
:101D60006000EE3F2AE0F20789F08091FE0A909130
:101D7000FF0A9183808342CE8081918187379807C3
:101D800051F29093FF0A8093FE0AC5CF1092FF0A8A
:101D90001092FE0A33CE0E94E802DC0112960D91E9
:101DA0001C910115110509F4E0CED801ED91FC91CB
:101DB0000190F081E02D6E2D7D2DC80109958111D6
:101DC0001DCEF80100851185ECCF181619060CF40C
:101DD00015CECBCEF1E0FF12B7CE6EE971E0FDCEAD
:101DE0001F920F920FB60F9211242F933F938F9350
:101DF0009F93AF93BF938091620190916301A091F3
:101E00006401B09165013091610123E0230F2D370A
:101E100058F50196A11DB11D2093610180936201C7
:101E200090936301A0936401B09365018091660172
:101E300090916701A0916801B09169010196A11D7F
:101E4000B11D8093660190936701A0936801B093E0
:101E50006901BF91AF919F918F913F912F910F9009
:101E60000FBE0F901F90189526E8230F0296A11D14
:101E7000B11DD2CFCF93DF931092AB011092AA0184
:101E800088EE93E0A0E0B0E08093AC019093AD01C8
:101E9000A093AE01B093AF018AE391E09093A901C2
:101EA0008093A8018FEF9FEF9093B5018093B401C9
:101EB000109222021092210288E591E09093200274
:101EC00080931F0280911702811113C01092120299
:101ED0001092110287EC91E0909314028093130208
:101EE0008FE290E0909316028093150281E0809338
:101EF00017028091090281112AC0C1E0C093FC0140
:101F0000C093FD0182E092E09093FF018093FE0177
:101F100010920102109200028CE491E09093F9017A
:101F20008093F801109204021092030210920602AC
:101F300010920502C0930702C093080281EC8093BF
:101F400002020E94E8020E944C01C0930902E09143
:101F50000302F0910402309709F055C081E192E04C
:101F600090930402809303028091050290910602EF
:101F70002091150230911602820F931F9093060252
:101F80008093050284E090E090932C0280932B02D2
:101F900010922D028CE090E090932F0280932E02FD
:101FA00081E0809330021092380210923702109232
:101FB000390261E00E94D003C0912E02D0912F021D
:101FC000CE010E9429169093360280933502AE010D
:101FD00070E060E00E944E17E3E2F2E0E491F0E08E
:101FE000EE0FFF1FEC5EFD4F8591949190933802A8
:101FF00080933702E7EFF1E0E491E0933902DF915B
:10200000CF910895FC01808191810097D9F781E1FA
:1020100092E091838083A8CFCF93DF93CDB7DEB7D3
:10202000E3970FB6F894DEBF0FBECDBF789484B5AA
:10203000826084BD84B5816084BD85B5826085BDC4
:1020400085B5816085BD80916E00816080936E0052
:102050001092810080918100826080938100809144
:1020600081008160809381008091800081608093F5
:102070008000809191008260809391008091910016
:1020800081608093910080919000816080939000A6
:102090008091C10084608093C1008091C100826002
:1020A0008093C1008091C10081608093C1008091C4
:1020B000C30081608093C3008091C00082608093E0
:1020C000C0008091C20081608093C20080917A003C
:1020D000846080937A0080917A00826080937A0095
:1020E00080917A00816080937A0080917A00806884
:1020F00080937A001092A60110927D0110927C01CB
:102100008091D70081608093D70080EA8093D800C7
:1021100089B5806189BD89B5826089BD09B400FE39
:10212000FDCF61E070E080E090E00E94A504809126
:10213000D8008F7C80618093D8008091E000807F00
:102140008093E0008091E1008E7E8093E1008DE03D
:102150008093E20068EE73E080E090E00E94A504C6
:1021600060E0809130020E94A2030E94010460930B
:102170003102709332028093330290933402809143
:102180002D02806880932D020E9426046FEF70E07C
:1021900088EC0E94D80464E670E080E090E00E9441
:1021A000A50460E070E080E00E94D80464E670E07E
:1021B00080E090E00E94A5046FEF7FEF8FEF0E9418
:1021C000FD0464E670E080E090E00E94A50460E019
:1021D00070E080E00E94FD0464E670E080E090E042
:1021E0000E94A5046FEF70E088EC0E94D80464E6BA
:1021F00070E080E090E00E94A50460E070E080E084
:102200000E94D80464E670E080E090E00E94A5049B
:102210006FE7E62E61E0F62E04E610E0C8010E94AA
:102220008D13F70181937F010F5F1F4F0037110559
:10223000A9F790E080E00E948D138093A701813080
:1022400069F1823009F440C061E08DE00E94D00362
:1022500061E08DE00E94A20361E082E10E94D00370
:1022600061E082E10E94A20361E083E10E94D00369
:1022700061E083E10E94A2030FE211E0F1E0033389
:102280001F07D9F1F801F1908F0160E08F2D0E94B6
:10229000D00361E08F2D0E94A203F0CF8CE0EFE726
:1022A000F1E0DE01959601900D928A95E1F7BE016D
:1022B0006B5D7F4FCE0101960E94210669817A8174
:1022C0008B810E94D804C0CF8CE0EFE7F1E0DE0103
:1022D000599601900D928A95E1F7BE01675E7F4F96
:1022E000CE0101960E94210669817A818B810E942C
:1022F000D80484E680937E01A7CF82E090E00E941C
:10230000CF0983E090E00E94CF0990E080E00E9436
:10231000CF098CE090E00E94CF0989E090E00E9414
:10232000CF0985E090E00E94CF098AE090E00E940A
:10233000CF0988E090E00E94CF0984E090E00E94FD
:10234000CF0986E090E00E94CF098CE00E947903DB
:1023500021E0892B09F420E020938E0189E00E947E
:10236000790321E0892B09F420E020938D0182E09C
:102370000E94790321E0892B09F420E020938C014D
:1023800083E00E94790321E0892B09F420E0209367
:102390008B0136E3632E31E0732E40E0842E40E063
:1023A000942E54E6352E2FE2A22E21E0B22E10E01C
:1023B00000E0502E93E3E92E91E0F92E6E147F0495
:1023C00009F444C00330110529F4F5E3EF16F1E0F8
:1023D000FF0699F1F701408061E0842D0E94D0034F
:1023E00060E0842D0E94A203852D90E09C0120577F
:1023F0003E4F6901F9012080F50180810E94790337
:102400002816190691F4852D2220E9F00E94D90999
:1024100081E0F6019081911180E0F60180836AE00D
:1024200070E080E090E00E94A50461E0842D0E94AD
:10243000D00361E0842D0E94A203FFEFEF1AFF0A90
:1024400024E0520EBBCF0E940D0AE2CF0F5F1F4F58
:102450003FEFA31AB30A0430110509F0AACF85E0B3
:102460000E94790320919F012817190679F42223ED
:1024700009F481C080919B01882309F45AC08BE044
:102480000E94D90910929B0110929F0180E00E9446
:1024900079032091A0012817190641F4222309F499
:1024A000A1C080E10E94D9091092A0018CE00E9495
:1024B000790320918E0128171906B9F089E00E944E
:1024C000790320918D012817190609F411C181E1C2
:1024D0000E94370C90918E0121E0922790938E01FB
:1024E00080918D01822780938D0182E00E94790383
:1024F00020918C012817190609F4BEC083E00E94C0
:10250000790320918B012817190609F4F3C08BEF8A
:102510000E941A0983E10E94370C90918B0121E0FF
:10252000922790938B0180918C01822780938C015C
:10253000A3C080919C01882331F08CE00E94D909CE
:1025400010929C01A1CF80919D01882331F08DE0F4
:102550000E94D90910929D0197CF80919E018823F6
:1025600031F08EE00E94D90910929E018DCF8FE04C
:102570000E94D90989CF8AE00E947903892B51F4FE
:102580008BE00E940D0A81E080939B0181E08093A3
:102590009F017CCF88E00E947903892B39F48CE07D
:1025A0000E940D0A81E080939C01F0CF84E00E949C
:1025B0007903892B39F48DE00E940D0A81E0809324
:1025C0009D01E4CF86E00E947903892B39F48EE0E7
:1025D0000E940D0A81E080939E01D8CF8FE00E9477
:1025E0000D0AD4CF80919301882309F47AC0809199
:1025F0009701882309F475C080918F01811171C002
:1026000080E9E82E81E0F82E10E0F70181917F014A
:10261000882329F031971082812F0E94D9091F5FEA
:10262000153199F781E080938F0160E070E080E0E0
:102630000E94D80468EC70E080E090E00E94A5045D
:102640006FEF7FEF8FEF0E94D80468EC70E080E0BE
:1026500090E00E94A50460E070E080E00E94D80451
:1026600068EC70E080E090E00E94A5048091A701F2
:10267000813049F08230E9F08114910409F493CE5D
:102680000E94000090CE8CE0EFE7F1E0DE011D96A5
:1026900001900D928A95E1F7BE01635F7F4FCE01F5
:1026A000C1960E94210669A97AA98BA90E94D80423
:1026B000E3CF8CE0EFE7F1E0DE01119601900D929F
:1026C0008A95E1F7BE016F5F7F4FCE01C1960E94F0
:1026D000210669A97AA98BA90E94D80430927E01AB
:1026E000CBCF80E10E940D0A81E08093A001DECE75
:1026F00082E1EECE85E00E941A0984E10CCFCF93EF
:10270000DF93CBE2D2E060E08D810E94D0038A8526
:102710009B85DF91CF910C94C516F999FECF92BDA0
:1027200081BDF89A992780B50895262FF999FECF93
:102730001FBA92BD81BD20BD0FB6F894FA9AF99ADE
:102740000FBE019608955058BB27AA270E94BB13BD
:102750000C9435150E94271538F00E942E1520F094
:1027600039F49F3F19F426F40C9424150EF4E095E7
:10277000E7FB0C941E15E92F0E94461558F3BA1773
:10278000620773078407950720F079F4A6F50C9487
:1027900068150EF4E0950B2EBA2FA02D0B01B90190
:1027A00090010C01CA01A0011124FF27591B99F0C7
:1027B000593F50F4503E68F11A16F040A22F232FD3
:1027C000342F4427585FF3CF469537952795A79523
:1027D000F0405395C9F77EF41F16BA0B620B730BCA
:1027E000840BBAF09150A1F0FF0FBB1F661F771F3B
:1027F000881FC2F70EC0BA0F621F731F841F48F4F0
:10280000879577956795B795F7959E3F08F0B0CF78
:102810009395880F08F09927EE0F9795879508955F
:102820000E94FA1408F481E008950E9429140C947F
:1028300035150E942E1558F00E94271540F029F4F6
:102840005F3F29F00C941E1551110C9469150C94DE
:1028500024150E94461568F39923B1F3552391F38B
:10286000951B550BBB27AA2762177307840738F0FF
:102870009F5F5F4F220F331F441FAA1FA9F335D05C
:102880000E2E3AF0E0E832D091505040E695001C10
:10289000CAF72BD0FE2F29D0660F771F881FBB1FCA
:1028A000261737074807AB07B0E809F0BB0B802DA8
:1028B000BF01FF2793585F4F3AF09E3F510578F0D4
:1028C0000C941E150C9469155F3FE4F3983ED4F305
:1028D000869577956795B795F7959F5FC9F7880FA8
:1028E000911D9695879597F90895E1E0660F771FFA
:1028F000881FBB1F621773078407BA0720F0621B8B
:10290000730B840BBA0BEE1F88F7E09508950E94B5
:102910008E146894B1110C94691508950E944E1597
:1029200088F09F5798F0B92F9927B751B0F0E1F090
:10293000660F771F881F991F1AF0BA95C9F714C040
:10294000B13091F00E946815B1E008950C946815BB
:10295000672F782F8827B85F39F0B93FCCF3869579
:1029600077956795B395D9F73EF4909580957095D6
:1029700061957F4F8F4F9F4F0895E89409C097FB53
:102980003EF490958095709561957F4F8F4F9F4F46
:102990009923A9F0F92F96E9BB279395F69587958A
:1029A00077956795B795F111F8CFFAF4BB0F11F44D
:1029B00060FF1BC06F5F7F4F8F4F9F4F16C08823F4
:1029C00011F096E911C0772321F09EE8872F762F2A
:1029D00005C0662371F096E8862F70E060E02AF06B
:1029E0009A95660F771F881FDAF7880F9695879557
:1029F00097F90895990F0008550FAA0BE0E8FEEF2C
:102A000016161706E807F907C0F012161306E407B2
:102A1000F50798F0621B730B840B950B39F40A26AB
:102A200061F0232B242B252B21F408950A2609F489
:102A3000A140A6958FEF811D811D089597F99F678D
:102A400080E870E060E008959FEF80EC0895002436
:102A50000A941616170618060906089500240A9403
:102A600012161306140605060895092E0394000C89
:102A700011F4882352F0BB0F40F4BF2B11F460FF18
:102A800004C06F5F7F4F8F4F9F4F089557FD905841
:102A9000440F551F59F05F3F71F04795880F97FB22
:102AA000991F61F09F3F79F08795089512161306DC
:102AB0001406551FF2CF4695F1DF08C0161617060B
:102AC0001806991FF1CF8695710561050894089540
:102AD000E894BB2766277727CB0197F908950E94D2
:102AE000FA1408F48FEF08950E9487150C94351599
:102AF0000E94271538F00E942E1520F0952311F022
:102B00000C941E150C94241511240C9469150E9424
:102B1000461570F3959FC1F3950F50E0551F629FC6
:102B2000F001729FBB27F00DB11D639FAA27F00D26
:102B3000B11DAA1F649F6627B00DA11D661F829F4D
:102B40002227B00DA11D621F739FB00DA11D621F32
:102B5000839FA00D611D221F749F3327A00D611D4F
:102B6000231F849F600D211D822F762F6A2F112431
:102B70009F5750409AF0F1F088234AF0EE0FFF1F64
:102B8000BB1F661F771F881F91505040A9F79E3FBB
:102B9000510580F00C941E150C9469155F3FE4F309
:102BA000983ED4F3869577956795B795F795E79511
:102BB0009F5FC1F7FE2B880F911D9695879597F91A
:102BC000089587FB082E062687FD819567FD619590
:102BD0000E9409160EF4919507FC8195089597FBC4
:102BE000072E16F4009407D077FD09D00E94151621
:102BF00007FC05D03EF4909581959F4F0895709500
:102C000061957F4F0895EE0FFF1F0590F491E02D21
:102C10000994991B79E004C0991F961708F0961B38
:102C2000881F7A95C9F780950895AA1BBB1B51E1AF
:102C300007C0AA1FBB1FA617B70710F0A61BB70B2C
:102C4000881F991F5A95A9F780959095BC01CD01D1
:102C500008950F931F93CF93DF938230910510F463
:102C600082E090E0E0913C02F0913D0230E020E013
:102C7000B0E0A0E0309799F42115310509F44AC07D
:102C8000281B390B24303105D8F58A819B816115C9
:102C9000710589F1FB0193838283FE0111C040819C
:102CA00051810281138148175907E0F048175907ED
:102CB00099F4109761F012960C93129713961C9347
:102CC0003296CF01DF91CF911F910F91089500931C
:102CD0003C0210933D02F4CF2115310551F042170B
:102CE000530738F0A901DB019A01BD01DF01F801AA
:102CF000C1CFEF01F9CF90933D0280933C02CDCF3D
:102D0000FE01E20FF31F8193919322503109398321
:102D10002883D7CF20913A0230913B02232B41F4F4
:102D2000209116013091170130933B0220933A0213
:102D300020911401309115012115310541F42DB771
:102D40003EB74091180150911901241B350BE091B9
:102D50003A02F0913B02E217F307A0F42E1B3F0B5F
:102D60002817390778F0AC014E5F5F4F24173507FD
:102D700048F04E0F5F1F50933B0240933A028193FD
:102D800091939FCFF0E0E0E09CCFCF93DF9300974B
:102D9000E9F0FC01329713821282A0913C02B091BB
:102DA0003D02ED0130E020E01097A1F42081318157
:102DB000820F931F20913A0230913B022817390766
:102DC00009F061C0F0933B02E0933A02DF91CF91AA
:102DD0000895EA01CE17DF07E8F54A815B819E017D
:102DE00041155105B1F7E901FB83EA8349915991F6
:102DF000C40FD51FEC17FD0761F480819181029605
:102E0000840F951FE90199838883828193819B8335
:102E10008A83F0E0E0E012968D919C9113970097E1
:102E2000B9F52D913C911197CD010296820F931F18
:102E300020913A0230913B022817390739F6309732
:102E400051F510923D0210923C02B0933B02A093C8
:102E50003A02BCCFD383C28340815181840F951F36
:102E6000C817D90761F44E5F5F4F88819981480F79
:102E7000591F518340838A819B81938382832115CB
:102E8000310509F0B0CFF0933D02E0933C029ECFB4
:102E9000FD01DC01C0CF13821282D7CFDC0101C05B
:102EA0006D9341505040E0F7089511E0C1E2D1E048
:102EB00004C0FE010E9403162196C232D107C9F751
:042EC000F894FFCFB4
:102EC400FFFFFFFFFF00E100000000000000C180E1
:102ED4008100000000003E02800061626364656658
:102EE4006768696A6B6C6D6E6F7071727374751755
:102EF4001615140D121300000000F4010B06E30272
:102F04000A02310215022102000000006807E107ED
:102F1400A6078B070000000000092C0817091609F2
:00000001FF
